{
  "contractName": "ApolloToken",
  "abi": [
    {
      "inputs": [],
      "stateMutability": "nonpayable",
      "type": "constructor"
    },
    {
      "anonymous": false,
      "inputs": [
        {
          "indexed": true,
          "internalType": "address",
          "name": "owner",
          "type": "address"
        },
        {
          "indexed": true,
          "internalType": "address",
          "name": "spender",
          "type": "address"
        },
        {
          "indexed": false,
          "internalType": "uint256",
          "name": "value",
          "type": "uint256"
        }
      ],
      "name": "Approval",
      "type": "event"
    },
    {
      "anonymous": false,
      "inputs": [
        {
          "indexed": true,
          "internalType": "address",
          "name": "operator",
          "type": "address"
        },
        {
          "indexed": false,
          "internalType": "uint256",
          "name": "previousRate",
          "type": "uint256"
        },
        {
          "indexed": false,
          "internalType": "uint256",
          "name": "newRate",
          "type": "uint256"
        }
      ],
      "name": "BurnRateUpdated",
      "type": "event"
    },
    {
      "anonymous": false,
      "inputs": [
        {
          "indexed": true,
          "internalType": "address",
          "name": "delegator",
          "type": "address"
        },
        {
          "indexed": true,
          "internalType": "address",
          "name": "fromDelegate",
          "type": "address"
        },
        {
          "indexed": true,
          "internalType": "address",
          "name": "toDelegate",
          "type": "address"
        }
      ],
      "name": "DelegateChanged",
      "type": "event"
    },
    {
      "anonymous": false,
      "inputs": [
        {
          "indexed": true,
          "internalType": "address",
          "name": "delegate",
          "type": "address"
        },
        {
          "indexed": false,
          "internalType": "uint256",
          "name": "previousBalance",
          "type": "uint256"
        },
        {
          "indexed": false,
          "internalType": "uint256",
          "name": "newBalance",
          "type": "uint256"
        }
      ],
      "name": "DelegateVotesChanged",
      "type": "event"
    },
    {
      "anonymous": false,
      "inputs": [
        {
          "indexed": true,
          "internalType": "address",
          "name": "operator",
          "type": "address"
        },
        {
          "indexed": false,
          "internalType": "uint256",
          "name": "previousAmount",
          "type": "uint256"
        },
        {
          "indexed": false,
          "internalType": "uint256",
          "name": "newAmount",
          "type": "uint256"
        }
      ],
      "name": "MinAmountToLiquifyUpdated",
      "type": "event"
    },
    {
      "anonymous": false,
      "inputs": [
        {
          "indexed": true,
          "internalType": "address",
          "name": "previousOperator",
          "type": "address"
        },
        {
          "indexed": true,
          "internalType": "address",
          "name": "newOperator",
          "type": "address"
        }
      ],
      "name": "OperatorTransferred",
      "type": "event"
    },
    {
      "anonymous": false,
      "inputs": [
        {
          "indexed": true,
          "internalType": "address",
          "name": "previousOwner",
          "type": "address"
        },
        {
          "indexed": true,
          "internalType": "address",
          "name": "newOwner",
          "type": "address"
        }
      ],
      "name": "OwnershipTransferred",
      "type": "event"
    },
    {
      "anonymous": false,
      "inputs": [
        {
          "indexed": false,
          "internalType": "address",
          "name": "_addr",
          "type": "address"
        },
        {
          "indexed": false,
          "internalType": "bool",
          "name": "_status",
          "type": "bool"
        }
      ],
      "name": "SetMinter",
      "type": "event"
    },
    {
      "anonymous": false,
      "inputs": [
        {
          "indexed": false,
          "internalType": "address",
          "name": "_addr",
          "type": "address"
        },
        {
          "indexed": false,
          "internalType": "bool",
          "name": "_status",
          "type": "bool"
        }
      ],
      "name": "SetWhiteList",
      "type": "event"
    },
    {
      "anonymous": false,
      "inputs": [
        {
          "indexed": true,
          "internalType": "address",
          "name": "operator",
          "type": "address"
        },
        {
          "indexed": true,
          "internalType": "address",
          "name": "router",
          "type": "address"
        },
        {
          "indexed": true,
          "internalType": "address",
          "name": "pair",
          "type": "address"
        }
      ],
      "name": "SingSwapRouterUpdated",
      "type": "event"
    },
    {
      "anonymous": false,
      "inputs": [
        {
          "indexed": false,
          "internalType": "uint256",
          "name": "tokensSwapped",
          "type": "uint256"
        },
        {
          "indexed": false,
          "internalType": "uint256",
          "name": "ethReceived",
          "type": "uint256"
        },
        {
          "indexed": false,
          "internalType": "uint256",
          "name": "tokensIntoLiqudity",
          "type": "uint256"
        }
      ],
      "name": "SwapAndLiquify",
      "type": "event"
    },
    {
      "anonymous": false,
      "inputs": [
        {
          "indexed": true,
          "internalType": "address",
          "name": "operator",
          "type": "address"
        },
        {
          "indexed": false,
          "internalType": "bool",
          "name": "enabled",
          "type": "bool"
        }
      ],
      "name": "SwapAndLiquifyEnabledUpdated",
      "type": "event"
    },
    {
      "anonymous": false,
      "inputs": [
        {
          "indexed": true,
          "internalType": "address",
          "name": "from",
          "type": "address"
        },
        {
          "indexed": true,
          "internalType": "address",
          "name": "to",
          "type": "address"
        },
        {
          "indexed": false,
          "internalType": "uint256",
          "name": "value",
          "type": "uint256"
        }
      ],
      "name": "Transfer",
      "type": "event"
    },
    {
      "anonymous": false,
      "inputs": [
        {
          "indexed": true,
          "internalType": "address",
          "name": "operator",
          "type": "address"
        },
        {
          "indexed": false,
          "internalType": "uint256",
          "name": "previousRate",
          "type": "uint256"
        },
        {
          "indexed": false,
          "internalType": "uint256",
          "name": "newRate",
          "type": "uint256"
        }
      ],
      "name": "TransferTaxRateUpdated",
      "type": "event"
    },
    {
      "anonymous": false,
      "inputs": [
        {
          "indexed": true,
          "internalType": "address",
          "name": "from",
          "type": "address"
        },
        {
          "indexed": true,
          "internalType": "address",
          "name": "to",
          "type": "address"
        },
        {
          "indexed": false,
          "internalType": "uint256",
          "name": "total",
          "type": "uint256"
        }
      ],
      "name": "whitelistedTransfer",
      "type": "event"
    },
    {
      "inputs": [],
      "name": "BURN_ADDRESS",
      "outputs": [
        {
          "internalType": "address",
          "name": "",
          "type": "address"
        }
      ],
      "stateMutability": "view",
      "type": "function"
    },
    {
      "inputs": [],
      "name": "DELEGATION_TYPEHASH",
      "outputs": [
        {
          "internalType": "bytes32",
          "name": "",
          "type": "bytes32"
        }
      ],
      "stateMutability": "view",
      "type": "function"
    },
    {
      "inputs": [],
      "name": "DOMAIN_TYPEHASH",
      "outputs": [
        {
          "internalType": "bytes32",
          "name": "",
          "type": "bytes32"
        }
      ],
      "stateMutability": "view",
      "type": "function"
    },
    {
      "inputs": [],
      "name": "IRON",
      "outputs": [
        {
          "internalType": "address",
          "name": "",
          "type": "address"
        }
      ],
      "stateMutability": "view",
      "type": "function"
    },
    {
      "inputs": [],
      "name": "MAXIMUM_TRANSFER_TAX_RATE",
      "outputs": [
        {
          "internalType": "uint16",
          "name": "",
          "type": "uint16"
        }
      ],
      "stateMutability": "view",
      "type": "function"
    },
    {
      "inputs": [
        {
          "internalType": "address",
          "name": "owner",
          "type": "address"
        },
        {
          "internalType": "address",
          "name": "spender",
          "type": "address"
        }
      ],
      "name": "allowance",
      "outputs": [
        {
          "internalType": "uint256",
          "name": "",
          "type": "uint256"
        }
      ],
      "stateMutability": "view",
      "type": "function"
    },
    {
      "inputs": [],
      "name": "apolloSwapPair",
      "outputs": [
        {
          "internalType": "address",
          "name": "",
          "type": "address"
        }
      ],
      "stateMutability": "view",
      "type": "function"
    },
    {
      "inputs": [],
      "name": "apolloSwapRouter",
      "outputs": [
        {
          "internalType": "contract IUniswapV2Router02",
          "name": "",
          "type": "address"
        }
      ],
      "stateMutability": "view",
      "type": "function"
    },
    {
      "inputs": [
        {
          "internalType": "address",
          "name": "spender",
          "type": "address"
        },
        {
          "internalType": "uint256",
          "name": "amount",
          "type": "uint256"
        }
      ],
      "name": "approve",
      "outputs": [
        {
          "internalType": "bool",
          "name": "",
          "type": "bool"
        }
      ],
      "stateMutability": "nonpayable",
      "type": "function"
    },
    {
      "inputs": [
        {
          "internalType": "address",
          "name": "account",
          "type": "address"
        }
      ],
      "name": "balanceOf",
      "outputs": [
        {
          "internalType": "uint256",
          "name": "",
          "type": "uint256"
        }
      ],
      "stateMutability": "view",
      "type": "function"
    },
    {
      "inputs": [],
      "name": "bank",
      "outputs": [
        {
          "internalType": "contract IBank",
          "name": "",
          "type": "address"
        }
      ],
      "stateMutability": "view",
      "type": "function"
    },
    {
      "inputs": [],
      "name": "burnRate",
      "outputs": [
        {
          "internalType": "uint16",
          "name": "",
          "type": "uint16"
        }
      ],
      "stateMutability": "view",
      "type": "function"
    },
    {
      "inputs": [
        {
          "internalType": "address",
          "name": "",
          "type": "address"
        },
        {
          "internalType": "uint32",
          "name": "",
          "type": "uint32"
        }
      ],
      "name": "checkpoints",
      "outputs": [
        {
          "internalType": "uint32",
          "name": "fromBlock",
          "type": "uint32"
        },
        {
          "internalType": "uint256",
          "name": "votes",
          "type": "uint256"
        }
      ],
      "stateMutability": "view",
      "type": "function"
    },
    {
      "inputs": [],
      "name": "decimals",
      "outputs": [
        {
          "internalType": "uint8",
          "name": "",
          "type": "uint8"
        }
      ],
      "stateMutability": "view",
      "type": "function"
    },
    {
      "inputs": [
        {
          "internalType": "address",
          "name": "spender",
          "type": "address"
        },
        {
          "internalType": "uint256",
          "name": "subtractedValue",
          "type": "uint256"
        }
      ],
      "name": "decreaseAllowance",
      "outputs": [
        {
          "internalType": "bool",
          "name": "",
          "type": "bool"
        }
      ],
      "stateMutability": "nonpayable",
      "type": "function"
    },
    {
      "inputs": [
        {
          "internalType": "address",
          "name": "spender",
          "type": "address"
        },
        {
          "internalType": "uint256",
          "name": "addedValue",
          "type": "uint256"
        }
      ],
      "name": "increaseAllowance",
      "outputs": [
        {
          "internalType": "bool",
          "name": "",
          "type": "bool"
        }
      ],
      "stateMutability": "nonpayable",
      "type": "function"
    },
    {
      "inputs": [],
      "name": "masterChef",
      "outputs": [
        {
          "internalType": "address",
          "name": "",
          "type": "address"
        }
      ],
      "stateMutability": "view",
      "type": "function"
    },
    {
      "inputs": [],
      "name": "minAmountToLiquify",
      "outputs": [
        {
          "internalType": "uint256",
          "name": "",
          "type": "uint256"
        }
      ],
      "stateMutability": "view",
      "type": "function"
    },
    {
      "inputs": [],
      "name": "name",
      "outputs": [
        {
          "internalType": "string",
          "name": "",
          "type": "string"
        }
      ],
      "stateMutability": "view",
      "type": "function"
    },
    {
      "inputs": [
        {
          "internalType": "address",
          "name": "",
          "type": "address"
        }
      ],
      "name": "nonces",
      "outputs": [
        {
          "internalType": "uint256",
          "name": "",
          "type": "uint256"
        }
      ],
      "stateMutability": "view",
      "type": "function"
    },
    {
      "inputs": [
        {
          "internalType": "address",
          "name": "",
          "type": "address"
        }
      ],
      "name": "numCheckpoints",
      "outputs": [
        {
          "internalType": "uint32",
          "name": "",
          "type": "uint32"
        }
      ],
      "stateMutability": "view",
      "type": "function"
    },
    {
      "inputs": [],
      "name": "owner",
      "outputs": [
        {
          "internalType": "address",
          "name": "",
          "type": "address"
        }
      ],
      "stateMutability": "view",
      "type": "function"
    },
    {
      "inputs": [],
      "name": "renounceOwnership",
      "outputs": [],
      "stateMutability": "nonpayable",
      "type": "function"
    },
    {
      "inputs": [],
      "name": "swapAndLiquifyEnabled",
      "outputs": [
        {
          "internalType": "bool",
          "name": "",
          "type": "bool"
        }
      ],
      "stateMutability": "view",
      "type": "function"
    },
    {
      "inputs": [],
      "name": "symbol",
      "outputs": [
        {
          "internalType": "string",
          "name": "",
          "type": "string"
        }
      ],
      "stateMutability": "view",
      "type": "function"
    },
    {
      "inputs": [],
      "name": "totalSupply",
      "outputs": [
        {
          "internalType": "uint256",
          "name": "",
          "type": "uint256"
        }
      ],
      "stateMutability": "view",
      "type": "function"
    },
    {
      "inputs": [
        {
          "internalType": "address",
          "name": "recipient",
          "type": "address"
        },
        {
          "internalType": "uint256",
          "name": "amount",
          "type": "uint256"
        }
      ],
      "name": "transfer",
      "outputs": [
        {
          "internalType": "bool",
          "name": "",
          "type": "bool"
        }
      ],
      "stateMutability": "nonpayable",
      "type": "function"
    },
    {
      "inputs": [
        {
          "internalType": "address",
          "name": "sender",
          "type": "address"
        },
        {
          "internalType": "address",
          "name": "recipient",
          "type": "address"
        },
        {
          "internalType": "uint256",
          "name": "amount",
          "type": "uint256"
        }
      ],
      "name": "transferFrom",
      "outputs": [
        {
          "internalType": "bool",
          "name": "",
          "type": "bool"
        }
      ],
      "stateMutability": "nonpayable",
      "type": "function"
    },
    {
      "inputs": [
        {
          "internalType": "address",
          "name": "newOwner",
          "type": "address"
        }
      ],
      "name": "transferOwnership",
      "outputs": [],
      "stateMutability": "nonpayable",
      "type": "function"
    },
    {
      "inputs": [],
      "name": "transferTaxRate",
      "outputs": [
        {
          "internalType": "uint16",
          "name": "",
          "type": "uint16"
        }
      ],
      "stateMutability": "view",
      "type": "function"
    },
    {
      "inputs": [
        {
          "internalType": "address",
          "name": "_to",
          "type": "address"
        },
        {
          "internalType": "uint256",
          "name": "_amount",
          "type": "uint256"
        }
      ],
      "name": "mint",
      "outputs": [],
      "stateMutability": "nonpayable",
      "type": "function"
    },
    {
      "inputs": [
        {
          "internalType": "uint16",
          "name": "_transferTaxRate",
          "type": "uint16"
        }
      ],
      "name": "updateTransferTaxRate",
      "outputs": [],
      "stateMutability": "nonpayable",
      "type": "function"
    },
    {
      "inputs": [
        {
          "internalType": "address",
          "name": "_bank",
          "type": "address"
        }
      ],
      "name": "setBank",
      "outputs": [],
      "stateMutability": "nonpayable",
      "type": "function"
    },
    {
      "inputs": [
        {
          "internalType": "address",
          "name": "_masterchef",
          "type": "address"
        }
      ],
      "name": "setMasterchef",
      "outputs": [],
      "stateMutability": "nonpayable",
      "type": "function"
    },
    {
      "inputs": [
        {
          "internalType": "uint16",
          "name": "_burnRate",
          "type": "uint16"
        }
      ],
      "name": "updateBurnRate",
      "outputs": [],
      "stateMutability": "nonpayable",
      "type": "function"
    },
    {
      "inputs": [
        {
          "internalType": "uint256",
          "name": "_minAmount",
          "type": "uint256"
        }
      ],
      "name": "updateMinAmountToLiquify",
      "outputs": [],
      "stateMutability": "nonpayable",
      "type": "function"
    },
    {
      "inputs": [
        {
          "internalType": "bool",
          "name": "_enabled",
          "type": "bool"
        }
      ],
      "name": "updateSwapAndLiquifyEnabled",
      "outputs": [],
      "stateMutability": "nonpayable",
      "type": "function"
    },
    {
      "inputs": [
        {
          "internalType": "address",
          "name": "_router",
          "type": "address"
        }
      ],
      "name": "updateSwapRouter",
      "outputs": [],
      "stateMutability": "nonpayable",
      "type": "function"
    },
    {
      "inputs": [],
      "name": "operator",
      "outputs": [
        {
          "internalType": "address",
          "name": "",
          "type": "address"
        }
      ],
      "stateMutability": "view",
      "type": "function"
    },
    {
      "inputs": [
        {
          "internalType": "address",
          "name": "newOperator",
          "type": "address"
        }
      ],
      "name": "transferOperator",
      "outputs": [],
      "stateMutability": "nonpayable",
      "type": "function"
    },
    {
      "inputs": [
        {
          "internalType": "address",
          "name": "delegator",
          "type": "address"
        }
      ],
      "name": "delegates",
      "outputs": [
        {
          "internalType": "address",
          "name": "",
          "type": "address"
        }
      ],
      "stateMutability": "view",
      "type": "function"
    },
    {
      "inputs": [
        {
          "internalType": "address",
          "name": "delegatee",
          "type": "address"
        }
      ],
      "name": "delegate",
      "outputs": [],
      "stateMutability": "nonpayable",
      "type": "function"
    },
    {
      "inputs": [
        {
          "internalType": "address",
          "name": "delegatee",
          "type": "address"
        },
        {
          "internalType": "uint256",
          "name": "nonce",
          "type": "uint256"
        },
        {
          "internalType": "uint256",
          "name": "expiry",
          "type": "uint256"
        },
        {
          "internalType": "uint8",
          "name": "v",
          "type": "uint8"
        },
        {
          "internalType": "bytes32",
          "name": "r",
          "type": "bytes32"
        },
        {
          "internalType": "bytes32",
          "name": "s",
          "type": "bytes32"
        }
      ],
      "name": "delegateBySig",
      "outputs": [],
      "stateMutability": "nonpayable",
      "type": "function"
    },
    {
      "inputs": [
        {
          "internalType": "address",
          "name": "account",
          "type": "address"
        }
      ],
      "name": "getCurrentVotes",
      "outputs": [
        {
          "internalType": "uint256",
          "name": "",
          "type": "uint256"
        }
      ],
      "stateMutability": "view",
      "type": "function"
    },
    {
      "inputs": [
        {
          "internalType": "address",
          "name": "account",
          "type": "address"
        },
        {
          "internalType": "uint256",
          "name": "blockNumber",
          "type": "uint256"
        }
      ],
      "name": "getPriorVotes",
      "outputs": [
        {
          "internalType": "uint256",
          "name": "",
          "type": "uint256"
        }
      ],
      "stateMutability": "view",
      "type": "function"
    },
    {
      "inputs": [
        {
          "internalType": "address",
          "name": "_addr",
          "type": "address"
        },
        {
          "internalType": "bool",
          "name": "_status",
          "type": "bool"
        }
      ],
      "name": "setWhiteList",
      "outputs": [],
      "stateMutability": "nonpayable",
      "type": "function"
    },
    {
      "inputs": [
        {
          "internalType": "address",
          "name": "_addr",
          "type": "address"
        },
        {
          "internalType": "bool",
          "name": "_status",
          "type": "bool"
        }
      ],
      "name": "setMinter",
      "outputs": [],
      "stateMutability": "nonpayable",
      "type": "function"
    },
    {
      "inputs": [
        {
          "internalType": "address",
          "name": "_addr",
          "type": "address"
        }
      ],
      "name": "setSwapToken",
      "outputs": [],
      "stateMutability": "nonpayable",
      "type": "function"
    }
  ],
  "bytecode": "0x60806040526005805461ffff60a81b1916604b60aa1b1761ffff60b81b1916600560ba1b1790556006805473d86b5923f3ad7b585ed81b448170ae026c65ae9a6001600160a01b03199091161760ff60a01b191690556127106007553480156200006857600080fd5b5060408051808201825260068082526541706f6c6c6f60d01b602080840182815285518087019096529285528401528151919291620000aa916003916200020e565b508051620000c09060049060208401906200020e565b50506005805460ff19166012179055506000620000dc6200020a565b60058054610100600160a81b0319166101006001600160a01b03841690810291909117909155604051919250906000907f8be0079c531659141344cd1fd0a4f28419497f9722a3daafe3b4186f6b6457e0908290a3506200013c6200020a565b600c80546001600160a01b0319166001600160a01b03929092169190911790556001600d60006200016c6200020a565b6001600160a01b0316815260208101919091526040016000908120805460ff191692151592909217909155600190600e90620001a76200020a565b6001600160a01b039081168252602082019290925260409081016000908120805460ff191694151594909417909355600c549051911691907f74da04524d50c64947f5dd5381ef1a4dca5cba8ed1d816243f9e48aa0b5617ed908290a3620002aa565b3390565b828054600181600116156101000203166002900490600052602060002090601f016020900481019282601f106200025157805160ff191683800117855562000281565b8280016001018555821562000281579182015b828111156200028157825182559160200191906001019062000264565b506200028f92915062000293565b5090565b5b808211156200028f576000815560010162000294565b61305d80620002ba6000396000f3fe608060405234801561001057600080fd5b50600436106102a05760003560e01c8063782d6fe111610167578063b851b7ca116100ce578063dd62ed3e11610087578063dd62ed3e14610814578063e7a324dc14610842578063f1127ed81461084a578063f2fde38b1461089c578063f607f2b4146108c2578063fccc2813146108e3576102a0565b8063b851b7ca14610743578063b98b677f14610769578063bed998501461078f578063c3cda52014610797578063cf456ae7146107de578063d82483581461080c576102a0565b80639f9a4e7f116101205780639f9a4e7f14610681578063a392e674146106a0578063a457c2d7146106bd578063a9059cbb146106e9578063b4b5ea5714610715578063b65d08b01461073b576102a0565b8063782d6fe1146105cb5780637ecebe00146105f75780638d14e1271461061d5780638da5cb5b1461064b578063933baa861461065357806395d89b4114610679576102a0565b8063395093511161020b578063587cde1e116101c4578063587cde1e1461050a5780635c19a95c146105305780636fcfff451461055657806370a0823114610595578063715018a6146105bb57806376cdb03b146105c3576102a0565b8063395093511461049257806340c10f19146104be5780634a74bb02146104ea578063542b9324146104f2578063570ca735146104fa578063575a86b214610502576102a0565b806320606b701161025d57806320606b70146103e757806323b872dd146103ef57806329605e771461042557806330fbd21e1461044b578063313ce56714610453578063376c239114610471576102a0565b806306fdde03146102a5578063090d23b914610322578063095ea7b31461034a57806318160ddd1461038a5780631ad9339a146103a45780631fd81bcd146103c3575b600080fd5b6102ad6108eb565b6040805160208082528351818301528351919283929083019185019080838360005b838110156102e75781810151838201526020016102cf565b50505050905090810190601f1680156103145780820380516001836020036101000a031916815260200191505b509250505060405180910390f35b6103486004803603602081101561033857600080fd5b50356001600160a01b0316610981565b005b6103766004803603604081101561036057600080fd5b506001600160a01b0381351690602001356109ec565b604080519115158252519081900360200190f35b610392610a0a565b60408051918252519081900360200190f35b6103ac610a10565b6040805161ffff9092168252519081900360200190f35b6103cb610a16565b604080516001600160a01b039092168252519081900360200190f35b610392610a25565b6103766004803603606081101561040557600080fd5b506001600160a01b03813581169160208101359091169060400135610a49565b6103486004803603602081101561043b57600080fd5b50356001600160a01b0316610ad0565b6103cb610bba565b61045b610bc9565b6040805160ff9092168252519081900360200190f35b6103486004803603602081101561048757600080fd5b503561ffff16610bd2565b610376600480360360408110156104a857600080fd5b506001600160a01b038135169060200135610ccd565b610348600480360360408110156104d457600080fd5b506001600160a01b038135169060200135610d1b565b610376610db2565b6103cb610dc2565b6103cb610dd1565b6103cb610de0565b6103cb6004803603602081101561052057600080fd5b50356001600160a01b0316610def565b6103486004803603602081101561054657600080fd5b50356001600160a01b0316610e0d565b61057c6004803603602081101561056c57600080fd5b50356001600160a01b0316610e1a565b6040805163ffffffff9092168252519081900360200190f35b610392600480360360208110156105ab57600080fd5b50356001600160a01b0316610e32565b610348610e4d565b6103cb610f0c565b610392600480360360408110156105e157600080fd5b506001600160a01b038135169060200135610f1b565b6103926004803603602081101561060d57600080fd5b50356001600160a01b0316611123565b6103486004803603604081101561063357600080fd5b506001600160a01b0381351690602001351515611135565b6103cb61122c565b6103486004803603602081101561066957600080fd5b50356001600160a01b0316611240565b6102ad6112ab565b6103486004803603602081101561069757600080fd5b5035151561130c565b610348600480360360208110156106b657600080fd5b50356113ab565b610376600480360360408110156106d357600080fd5b506001600160a01b038135169060200135611437565b610376600480360360408110156106ff57600080fd5b506001600160a01b03813516906020013561149f565b6103926004803603602081101561072b57600080fd5b50356001600160a01b03166114b3565b6103ac611517565b6103486004803603602081101561075957600080fd5b50356001600160a01b0316611528565b6103486004803603602081101561077f57600080fd5b50356001600160a01b031661164c565b6103ac611848565b610348600480360360c08110156107ad57600080fd5b506001600160a01b038135169060208101359060408101359060ff6060820135169060808101359060a00135611859565b610348600480360360408110156107f457600080fd5b506001600160a01b0381351690602001351515611acc565b610392611bc3565b6103926004803603604081101561082a57600080fd5b506001600160a01b0381358116916020013516611bc9565b610392611bf4565b61087c6004803603604081101561086057600080fd5b5080356001600160a01b0316906020013563ffffffff16611c18565b6040805163ffffffff909316835260208301919091528051918290030190f35b610348600480360360208110156108b257600080fd5b50356001600160a01b0316611c45565b610348600480360360208110156108d857600080fd5b503561ffff16611d60565b6103cb611e5a565b60038054604080516020601f60026000196101006001881615020190951694909404938401819004810282018101909252828152606093909290918301828280156109775780601f1061094c57610100808354040283529160200191610977565b820191906000526020600020905b81548152906001019060200180831161095a57829003601f168201915b5050505050905090565b600c546001600160a01b031633146109ca5760405162461bcd60e51b8152600401808060200182810382526024815260200180612f076024913960400191505060405180910390fd5b600980546001600160a01b0319166001600160a01b0392909216919091179055565b6000610a006109f9611e60565b8484611e64565b5060015b92915050565b60025490565b6103e881565b6006546001600160a01b031681565b7f8cad95687ba82c2ce50e74f7b754645e5117c3a5bec8151c0726d5857980a86681565b6000610a56848484611f50565b610ac684610a62611e60565b610ac185604051806060016040528060288152602001612eb7602891396001600160a01b038a16600090815260016020526040812090610aa0611e60565b6001600160a01b0316815260208101919091526040016000205491906121e9565b611e64565b5060019392505050565b600c546001600160a01b03163314610b195760405162461bcd60e51b8152600401808060200182810382526024815260200180612f076024913960400191505060405180910390fd5b6001600160a01b038116610b5e5760405162461bcd60e51b815260040180806020018281038252603a815260200180612cf6603a913960400191505060405180910390fd5b600c546040516001600160a01b038084169216907f74da04524d50c64947f5dd5381ef1a4dca5cba8ed1d816243f9e48aa0b5617ed90600090a3600c80546001600160a01b0319166001600160a01b0392909216919091179055565b600b546001600160a01b031681565b60055460ff1690565b600c546001600160a01b03163314610c1b5760405162461bcd60e51b8152600401808060200182810382526024815260200180612f076024913960400191505060405180910390fd5b6103e861ffff82161115610c605760405162461bcd60e51b8152600401808060200182810382526052815260200180612dc26052913960600191505060405180910390fd5b6005546040805161ffff600160a81b909304831681529183166020830152805133927fe9d5c8ee2a65d4fb859c680669d8f902172d53e3f15f9f11108a31bbada4b70b92908290030190a26005805461ffff909216600160a81b0261ffff60a81b19909216919091179055565b6000610a00610cda611e60565b84610ac18560016000610ceb611e60565b6001600160a01b03908116825260208083019390935260409182016000908120918c168152925290205490612280565b336000908152600e602052604090205460ff16610d7f576040805162461bcd60e51b815260206004820152601e60248201527f6d696e7465723a2063616c6c6572206973206e6f742061206d696e7465720000604482015290519081900360640190fd5b610d8982826122da565b6001600160a01b038083166000908152600f6020526040812054610dae9216836123ca565b5050565b600654600160a01b900460ff1681565b6008546001600160a01b031681565b600c546001600160a01b031690565b600a546001600160a01b031681565b6001600160a01b039081166000908152600f60205260409020541690565b610e173382612507565b50565b60116020526000908152604090205463ffffffff1681565b6001600160a01b031660009081526020819052604090205490565b610e55611e60565b60055461010090046001600160a01b03908116911614610ebc576040805162461bcd60e51b815260206004820181905260248201527f4f776e61626c653a2063616c6c6572206973206e6f7420746865206f776e6572604482015290519081900360640190fd5b60055460405160009161010090046001600160a01b0316907f8be0079c531659141344cd1fd0a4f28419497f9722a3daafe3b4186f6b6457e0908390a360058054610100600160a81b0319169055565b6009546001600160a01b031681565b6000438210610f5b5760405162461bcd60e51b8152600401808060200182810382526029815260200180612e376029913960400191505060405180910390fd5b6001600160a01b03831660009081526011602052604090205463ffffffff1680610f89576000915050610a04565b6001600160a01b038416600090815260106020908152604080832063ffffffff600019860181168552925290912054168310610ff8576001600160a01b03841660009081526010602090815260408083206000199490940163ffffffff16835292905220600101549050610a04565b6001600160a01b038416600090815260106020908152604080832083805290915290205463ffffffff16831015611033576000915050610a04565b600060001982015b8163ffffffff168163ffffffff1611156110ec57600282820363ffffffff16048103611065612cbb565b506001600160a01b038716600090815260106020908152604080832063ffffffff8086168552908352928190208151808301909252805490931680825260019093015491810191909152908714156110c757602001519450610a049350505050565b805163ffffffff168711156110de578193506110e5565b6001820392505b505061103b565b506001600160a01b038516600090815260106020908152604080832063ffffffff9094168352929052206001015491505092915050565b60126020526000908152604090205481565b600c546001600160a01b0316331461117e5760405162461bcd60e51b8152600401808060200182810382526024815260200180612f076024913960400191505060405180910390fd5b6001600160a01b0382166111c8576040805162461bcd60e51b815260206004820152600c60248201526b5a65726f204164647265737360a01b604482015290519081900360640190fd5b6001600160a01b0382166000818152600d6020908152604091829020805460ff191685151590811790915582519384529083015280517ffd813a33bba8e3b5e540229e266ccd9c045fd61bcb50873786f1bede0ddad3679281900390910190a15050565b60055461010090046001600160a01b031690565b600c546001600160a01b031633146112895760405162461bcd60e51b8152600401808060200182810382526024815260200180612f076024913960400191505060405180910390fd5b600a80546001600160a01b0319166001600160a01b0392909216919091179055565b60048054604080516020601f60026000196101006001881615020190951694909404938401819004810282018101909252828152606093909290918301828280156109775780601f1061094c57610100808354040283529160200191610977565b600c546001600160a01b031633146113555760405162461bcd60e51b8152600401808060200182810382526024815260200180612f076024913960400191505060405180910390fd5b604080518215158152905133917f3ca65588b29182880283bc8778fea5f01b351e01d874839a39a99e1c281a2113919081900360200190a260068054911515600160a01b0260ff60a01b19909216919091179055565b600c546001600160a01b031633146113f45760405162461bcd60e51b8152600401808060200182810382526024815260200180612f076024913960400191505060405180910390fd5b6007546040805191825260208201839052805133927f54c7a13ff01698e4ed3550a23216585f8472c7b1515a932eac98c9a6d48990c592908290030190a2600755565b6000610a00611444611e60565b84610ac185604051806060016040528060258152602001613003602591396001600061146e611e60565b6001600160a01b03908116825260208083019390935260409182016000908120918d168152925290205491906121e9565b6000610a006114ac611e60565b8484611f50565b6001600160a01b03811660009081526011602052604081205463ffffffff16806114de576000611510565b6001600160a01b038316600090815260106020908152604080832063ffffffff60001986011684529091529020600101545b9392505050565b600554600160a81b900461ffff1681565b600c546001600160a01b031633146115715760405162461bcd60e51b8152600401808060200182810382526024815260200180612f076024913960400191505060405180910390fd5b6001600160a01b0381166115bb576040805162461bcd60e51b815260206004820152600c60248201526b5a65726f204164647265737360a01b604482015290519081900360640190fd5b600680546001600160a01b0319166001600160a01b038381169190911791829055604080516370a0823160e01b8152306004820152905192909116916370a0823191602480820192602092909190829003018186803b15801561161d57600080fd5b505afa158015611631573d6000803e3d6000fd5b505050506040513d602081101561164757600080fd5b505050565b600c546001600160a01b031633146116955760405162461bcd60e51b8152600401808060200182810382526024815260200180612f076024913960400191505060405180910390fd5b600880546001600160a01b0319166001600160a01b0383811691909117918290556040805163c45a015560e01b81529051929091169163c45a015591600480820192602092909190829003018186803b1580156116f157600080fd5b505afa158015611705573d6000803e3d6000fd5b505050506040513d602081101561171b57600080fd5b50516006546040805163e6a4390560e01b81523060048201526001600160a01b0392831660248201529051919092169163e6a43905916044808301926020929190829003018186803b15801561177057600080fd5b505afa158015611784573d6000803e3d6000fd5b505050506040513d602081101561179a57600080fd5b5051600b80546001600160a01b0319166001600160a01b03928316179081905516611804576040805162461bcd60e51b815260206004820152601560248201527424b73b30b634b2103830b4b91030b2323932b9b99760591b604482015290519081900360640190fd5b600b546008546040516001600160a01b03928316929091169033907f048467caa7b6009fd9a4ddc7c97e87f752dbc572fd91688efd4071639a9de06990600090a450565b600554600160b81b900461ffff1681565b60007f8cad95687ba82c2ce50e74f7b754645e5117c3a5bec8151c0726d5857980a8666118846108eb565b8051906020012061189361259c565b60408051602080820195909552808201939093526060830191909152306080808401919091528151808403909101815260a0830182528051908401207fe48329057bfd03d55e49b547132e39cffd9c1820ad7b9d4c5307691425d15adf60c08401526001600160a01b038b1660e084015261010083018a90526101208084018a9052825180850390910181526101408401835280519085012061190160f01b6101608501526101628401829052610182808501829052835180860390910181526101a285018085528151918701919091206000918290526101c2860180865281905260ff8b166101e287015261020286018a90526102228601899052935192965090949293909260019261024280840193601f198301929081900390910190855afa1580156119c6573d6000803e3d6000fd5b5050604051601f1901519150506001600160a01b038116611a185760405162461bcd60e51b8152600401808060200182810382526028815260200180612edf6028913960400191505060405180910390fd5b6001600160a01b03811660009081526012602052604090208054600181019091558914611a765760405162461bcd60e51b8152600401808060200182810382526024815260200180612d306024913960400191505060405180910390fd5b87421115611ab55760405162461bcd60e51b8152600401808060200182810382526028815260200180612f986028913960400191505060405180910390fd5b611abf818b612507565b505050505b505050505050565b600c546001600160a01b03163314611b155760405162461bcd60e51b8152600401808060200182810382526024815260200180612f076024913960400191505060405180910390fd5b6001600160a01b038216611b5f576040805162461bcd60e51b815260206004820152600c60248201526b5a65726f204164647265737360a01b604482015290519081900360640190fd5b6001600160a01b0382166000818152600e6020908152604091829020805460ff191685151590811790915582519384529083015280517f1f96bc657d385fd83da973a43f2ad969e6d96b6779b779571a7306db7ca1cd009281900390910190a15050565b60075481565b6001600160a01b03918216600090815260016020908152604080832093909416825291909152205490565b7fe48329057bfd03d55e49b547132e39cffd9c1820ad7b9d4c5307691425d15adf81565b60106020908152600092835260408084209091529082529020805460019091015463ffffffff9091169082565b611c4d611e60565b60055461010090046001600160a01b03908116911614611cb4576040805162461bcd60e51b815260206004820181905260248201527f4f776e61626c653a2063616c6c6572206973206e6f7420746865206f776e6572604482015290519081900360640190fd5b6001600160a01b038116611cf95760405162461bcd60e51b8152600401808060200182810382526026815260200180612d546026913960400191505060405180910390fd5b6005546040516001600160a01b0380841692610100900416907f8be0079c531659141344cd1fd0a4f28419497f9722a3daafe3b4186f6b6457e090600090a3600580546001600160a01b0390921661010002610100600160a81b0319909216919091179055565b600c546001600160a01b03163314611da95760405162461bcd60e51b8152600401808060200182810382526024815260200180612f076024913960400191505060405180910390fd5b60648161ffff161115611ded5760405162461bcd60e51b8152600401808060200182810382526043815260200180612fc06043913960600191505060405180910390fd5b6005546040805161ffff600160b81b909304831681529183166020830152805133927f3eec69630b6f49d4e10eec296fce4baddec5f34c5430fb2cd72f8c4218f63fd092908290030190a26005805461ffff909216600160b81b0261ffff60b81b19909216919091179055565b61dead81565b3390565b6001600160a01b038316611ea95760405162461bcd60e51b8152600401808060200182810382526024815260200180612f746024913960400191505060405180910390fd5b6001600160a01b038216611eee5760405162461bcd60e51b8152600401808060200182810382526022815260200180612d7a6022913960400191505060405180910390fd5b6001600160a01b03808416600081815260016020908152604080832094871680845294825291829020859055815185815291517f8c5be1e5ebec7d5bd14f71427d1e84f3dd0314c0f7b2291e5b200ac8c7c3b9259281900390910190a3505050565b600654600160a01b900460ff1615156001148015611f785750600b54600160a01b900460ff16155b8015611f8e57506008546001600160a01b031615155b8015611fa45750600b546001600160a01b031615155b8015611fbe5750600b546001600160a01b03848116911614155b8015611fe35750611fcd61122c565b6001600160a01b0316836001600160a01b031614155b15611ff057611ff06125a0565b6001600160a01b0382166000908152600d602052604090205460ff168061202f57506001600160a01b0383166000908152600d602052604090205460ff165b806120475750600a546001600160a01b038381169116145b8061205f5750600a546001600160a01b038481169116145b806120775750600c546001600160a01b038481169116145b8061208c57506001600160a01b03821661dead145b806120a457506009546001600160a01b038381169116145b806120ba5750600554600160a81b900461ffff16155b156120cf576120ca838383612712565b611647565b6005546000906120f990612710906120f3908590600160a81b900461ffff1661286d565b906128c6565b60055490915060009061211f906064906120f3908590600160b81b900461ffff1661286d565b9050600061212d8383612908565b9050808201831461216f5760405162461bcd60e51b8152600401808060200182810382526024815260200180612f506024913960400191505060405180910390fd5b600061217b8585612908565b905083810185146121bd5760405162461bcd60e51b8152600401808060200182810382526023815260200180612e146023913960400191505060405180910390fd5b6121ca8761dead85612712565b6121d5873084612712565b6121e0878783612712565b50505050505050565b600081848411156122785760405162461bcd60e51b81526004018080602001828103825283818151815260200191508051906020019080838360005b8381101561223d578181015183820152602001612225565b50505050905090810190601f16801561226a5780820380516001836020036101000a031916815260200191505b509250505060405180910390fd5b505050900390565b600082820183811015611510576040805162461bcd60e51b815260206004820152601b60248201527f536166654d6174683a206164646974696f6e206f766572666c6f770000000000604482015290519081900360640190fd5b6001600160a01b038216612335576040805162461bcd60e51b815260206004820152601f60248201527f45524332303a206d696e7420746f20746865207a65726f206164647265737300604482015290519081900360640190fd5b61234160008383611647565b60025461234e9082612280565b6002556001600160a01b0382166000908152602081905260409020546123749082612280565b6001600160a01b0383166000818152602081815260408083209490945583518581529351929391927fddf252ad1be2c89b69c2b068fc378daa952ba7f163c4a11628f55a4df523b3ef9281900390910190a35050565b816001600160a01b0316836001600160a01b0316141580156123ec5750600081115b15611647576001600160a01b0383161561247e576001600160a01b03831660009081526011602052604081205463ffffffff16908161242c57600061245e565b6001600160a01b038516600090815260106020908152604080832063ffffffff60001987011684529091529020600101545b9050600061246c8285612908565b905061247a8684848461294a565b5050505b6001600160a01b03821615611647576001600160a01b03821660009081526011602052604081205463ffffffff1690816124b95760006124eb565b6001600160a01b038416600090815260106020908152604080832063ffffffff60001987011684529091529020600101545b905060006124f98285612280565b9050611ac48584848461294a565b6001600160a01b038083166000908152600f60205260408120549091169061252e84610e32565b6001600160a01b038581166000818152600f602052604080822080546001600160a01b031916898616908117909155905194955093928616927f3134e8a2e6d97e929a7e54011ea5485d7d196dd5f0ba4d4ef95803e8e3fc257f9190a46125968284836123ca565b50505050565b4690565b600b8054600160a01b60ff60a01b199091161790556005805461ffff60a81b198116909155600654600160a81b90910461ffff16906001600160a01b031660006125e930610e32565b905060075481106126e1576125fd81612aaf565b600954604080516370a0823160e01b81526001600160a01b03928316600482015290516000928516916370a08231916024808301926020929190829003018186803b15801561264b57600080fd5b505afa15801561265f573d6000803e3d6000fd5b505050506040513d602081101561267557600080fd5b50516009546040805163044b6acd60e51b81526004810184905290519293506001600160a01b039091169163896d59a09160248082019260009290919082900301818387803b1580156126c757600080fd5b505af11580156126db573d6000803e3d6000fd5b50505050505b50506005805461ffff909216600160a81b0261ffff60a81b19909216919091179055600b805460ff60a01b19169055565b6001600160a01b0383166127575760405162461bcd60e51b8152600401808060200182810382526025815260200180612f2b6025913960400191505060405180910390fd5b6001600160a01b03821661279c5760405162461bcd60e51b8152600401808060200182810382526023815260200180612cd36023913960400191505060405180910390fd5b6127a7838383611647565b6127e481604051806060016040528060268152602001612d9c602691396001600160a01b03861660009081526020819052604090205491906121e9565b6001600160a01b0380851660009081526020819052604080822093909355908416815220546128139082612280565b6001600160a01b038084166000818152602081815260409182902094909455805185815290519193928716927fddf252ad1be2c89b69c2b068fc378daa952ba7f163c4a11628f55a4df523b3ef92918290030190a3505050565b60008261287c57506000610a04565b8282028284828161288957fe5b04146115105760405162461bcd60e51b8152600401808060200182810382526021815260200180612e966021913960400191505060405180910390fd5b600061151083836040518060400160405280601a81526020017f536166654d6174683a206469766973696f6e206279207a65726f000000000000815250612bf8565b600061151083836040518060400160405280601e81526020017f536166654d6174683a207375627472616374696f6e206f766572666c6f7700008152506121e9565b600061296e43604051806060016040528060368152602001612e6060369139612c5d565b905060008463ffffffff161180156129b757506001600160a01b038516600090815260106020908152604080832063ffffffff6000198901811685529252909120548282169116145b156129f4576001600160a01b038516600090815260106020908152604080832063ffffffff60001989011684529091529020600101829055612a65565b60408051808201825263ffffffff808416825260208083018681526001600160a01b038a166000818152601084528681208b8616825284528681209551865490861663ffffffff19918216178755925160019687015590815260119092529390208054928801909116919092161790555b604080518481526020810184905281516001600160a01b038816927fdec2bacdd2f05b59de34da9b523dff8be42e5e38e818c82fdb0bae774387a724928290030190a25050505050565b60408051600280825260608083018452926020830190803683370190505090503081600081518110612add57fe5b6001600160a01b039283166020918202929092010152600654825191169082906001908110612b0857fe5b6001600160a01b039283166020918202929092010152600854612b2e9130911684611e64565b600854600954604051635c11d79560e01b8152600481018581526000602483018190526001600160a01b0393841660648401819052426084850181905260a060448601908152885160a487015288519690971696635c11d795968a9694958a9590929160c490910190602080880191028083838b5b83811015612bbb578181015183820152602001612ba3565b505050509050019650505050505050600060405180830381600087803b158015612be457600080fd5b505af1158015611ac4573d6000803e3d6000fd5b60008183612c475760405162461bcd60e51b815260206004820181815283516024840152835190928392604490910191908501908083836000831561223d578181015183820152602001612225565b506000838581612c5357fe5b0495945050505050565b6000816401000000008410612cb35760405162461bcd60e51b815260206004820181815283516024840152835190928392604490910191908501908083836000831561223d578181015183820152602001612225565b509192915050565b60408051808201909152600080825260208201529056fe45524332303a207472616e7366657220746f20746865207a65726f206164647265737341504f4c4c4f3a3a7472616e736665724f70657261746f723a206e6577206f70657261746f7220697320746865207a65726f206164647265737341504f4c4c4f3a3a64656c656761746542795369673a20696e76616c6964206e6f6e63654f776e61626c653a206e6577206f776e657220697320746865207a65726f206164647265737345524332303a20617070726f766520746f20746865207a65726f206164647265737345524332303a207472616e7366657220616d6f756e7420657863656564732062616c616e636541504f4c4c4f3a3a7570646174655472616e73666572546178526174653a205472616e73666572207461782072617465206d757374206e6f742065786365656420746865206d6178696d756d20726174652e41504f4c4c4f3a3a7472616e736665723a205461782076616c756520696e76616c696441504f4c4c4f3a3a6765745072696f72566f7465733a206e6f74207965742064657465726d696e656441504f4c4c4f3a3a5f7772697465436865636b706f696e743a20626c6f636b206e756d62657220657863656564732033322062697473536166654d6174683a206d756c7469706c69636174696f6e206f766572666c6f7745524332303a207472616e7366657220616d6f756e74206578636565647320616c6c6f77616e636541504f4c4c4f3a3a64656c656761746542795369673a20696e76616c6964207369676e61747572656f70657261746f723a2063616c6c6572206973206e6f7420746865206f70657261746f7245524332303a207472616e736665722066726f6d20746865207a65726f206164647265737341504f4c4c4f3a3a7472616e736665723a204275726e2076616c756520696e76616c696445524332303a20617070726f76652066726f6d20746865207a65726f206164647265737341504f4c4c4f3a3a64656c656761746542795369673a207369676e6174757265206578706972656441504f4c4c4f3a3a7570646174654275726e526174653a204275726e2072617465206d757374206e6f742065786365656420746865206d6178696d756d20726174652e45524332303a2064656372656173656420616c6c6f77616e63652062656c6f77207a65726fa26469706673582212200d95711abce92df108c38c82dff84536d254cecb152eb57a6656fcf2b205b01664736f6c634300060c0033",
  "immutableReferences": {},
  "source": "// SPDX-License-Identifier: MIT\r\npragma solidity 0.6.12;\r\n\r\nimport \"./libs/Ownable.sol\";\r\nimport \"./libs/ERC20.sol\";\r\nimport \"./libs/IERC20.sol\";\r\nimport \"./interfaces/IUniswapV2Router02.sol\";\r\nimport \"./interfaces/IBank.sol\";\r\n\r\ncontract ApolloToken is ERC20(\"Apollo\", \"Apollo\"), Ownable {\r\n\r\n    // Transfer tax rate in basis points. (default 5%)\r\n    uint16 public transferTaxRate = 300;\r\n    // Burn rate % of transfer tax. (default 20% x 5% = 1% of total amount).\r\n    uint16 public burnRate = 20;\r\n    // Max transfer tax rate: 10%.\r\n    uint16 public constant MAXIMUM_TRANSFER_TAX_RATE = 1000;\r\n    // Burn address\r\n    address public constant BURN_ADDRESS = 0x000000000000000000000000000000000000dEaD;\r\n    address public IRON = address(0xD86b5923F3AD7b585eD81B448170ae026c65ae9a); //matic IRON//IRON\r\n    // Automatic swap and liquify enabled\r\n    bool public swapAndLiquifyEnabled = false;\r\n    // Min amount to liquify. (default 500 APOLLOs)\r\n    uint256 public minAmountToLiquify = 10000;\r\n    // The swap router, modifiable. Will be changed to SingSwap's router when our own AMM release\r\n    IUniswapV2Router02 public apolloSwapRouter;\r\n    IBank public bank;\r\n    address public masterChef;\r\n    // The trading pair\r\n    address public apolloSwapPair;\r\n    // In swap and liquify\r\n    bool private _inSwapAndLiquify;\r\n    // The operator can only update the transfer tax rate\r\n    address private _operator;\r\n\r\n    mapping(address => bool) whitelist;\r\n    mapping(address => bool) minters;\r\n\r\n    // Events\r\n    event OperatorTransferred(address indexed previousOperator, address indexed newOperator);\r\n    event TransferTaxRateUpdated(address indexed operator, uint256 previousRate, uint256 newRate);\r\n    event BurnRateUpdated(address indexed operator, uint256 previousRate, uint256 newRate);\r\n    event SwapAndLiquifyEnabledUpdated(address indexed operator, bool enabled);\r\n    event MinAmountToLiquifyUpdated(address indexed operator, uint256 previousAmount, uint256 newAmount);\r\n    event SingSwapRouterUpdated(address indexed operator, address indexed router, address indexed pair);\r\n    event SwapAndLiquify(uint256 tokensSwapped, uint256 ethReceived, uint256 tokensIntoLiqudity);\r\n    event whitelistedTransfer(address indexed from, address indexed to, uint256 total);\r\n    event SetWhiteList(address _addr, bool _status);\r\n    event SetMinter(address _addr, bool _status);\r\n\r\n    modifier onlyOperator() {\r\n        require(_operator == msg.sender, \"operator: caller is not the operator\");\r\n        _;\r\n    }\r\n    modifier onlyMinters() {\r\n        require(minters[msg.sender], \"minter: caller is not a minter\");\r\n        _;\r\n    }\r\n\r\n    modifier lockTheSwap {\r\n        _inSwapAndLiquify = true;\r\n        _;\r\n        _inSwapAndLiquify = false;\r\n    }\r\n\r\n    modifier transferTaxFree {\r\n        uint16 _transferTaxRate = transferTaxRate;\r\n        transferTaxRate = 0;\r\n        _;\r\n        transferTaxRate = _transferTaxRate;\r\n    }\r\n\r\n    /**\r\n     * @notice Constructs the SingToken contract.\r\n     */\r\n    constructor() public {\r\n        _operator = _msgSender();\r\n        whitelist[_msgSender()] = true;\r\n        minters[_msgSender()] = true;\r\n        emit OperatorTransferred(address(0), _operator);\r\n    }\r\n\r\n    /// @notice Creates `_amount` token to `_to`. Must only be called by the owner (MasterChef).\r\n    function mint(address _to, uint256 _amount) public onlyMinters {\r\n        _mint(_to, _amount);\r\n        _moveDelegates(address(0), _delegates[_to], _amount);\r\n    }\r\n\r\n    /// @dev overrides transfer function to meet tokenomics of APOLLO\r\n    function _transfer(address sender, address recipient, uint256 amount) internal virtual override {\r\n        // swap and liquify\r\n        if (\r\n            swapAndLiquifyEnabled == true\r\n            && _inSwapAndLiquify == false\r\n            && address(apolloSwapRouter) != address(0)\r\n            && apolloSwapPair != address(0)\r\n            && sender != apolloSwapPair\r\n            && sender != owner()\r\n        ) {\r\n            swapAndLiquify();\r\n        }\r\n\r\n        if ( whitelist[recipient] || whitelist[sender] || recipient == masterChef || sender == masterChef || sender == _operator || recipient == BURN_ADDRESS || recipient == address(bank) || transferTaxRate == 0) {\r\n            super._transfer(sender, recipient, amount);\r\n        } else {\r\n            uint256 taxAmount = amount.mul(transferTaxRate).div(10000);\r\n            uint256 burnAmount = taxAmount.mul(burnRate).div(100);\r\n            uint256 liquidityAmount = taxAmount.sub(burnAmount);\r\n            require(taxAmount == burnAmount + liquidityAmount, \"APOLLO::transfer: Burn value invalid\");\r\n\r\n            uint256 sendAmount = amount.sub(taxAmount);\r\n            require(amount == sendAmount + taxAmount, \"APOLLO::transfer: Tax value invalid\");\r\n\r\n            super._transfer(sender, BURN_ADDRESS, burnAmount);\r\n            super._transfer(sender, address(this), liquidityAmount);\r\n            super._transfer(sender, recipient, sendAmount);\r\n        }\r\n    }\r\n\r\n    /// @dev Swap and add to bank\r\n    function swapAndLiquify() private lockTheSwap transferTaxFree {\r\n        IERC20 iron = IERC20(IRON);\r\n        uint256 contractTokenBalance = balanceOf(address(this));\r\n        if (contractTokenBalance >= minAmountToLiquify) {\r\n            swapTokensForIRON(contractTokenBalance);\r\n            uint256 initialBalance = iron.balanceOf(address(bank));\r\n            bank.addRepo(initialBalance);\r\n        }\r\n    }\r\n\r\n    function swapTokensForIRON(uint256 tokenAmount) private {\r\n        address[] memory path = new address[](2);\r\n        path[0] = address(this);\r\n        path[1] = IRON;\r\n\r\n        _approve(address(this), address(apolloSwapRouter), tokenAmount);\r\n\r\n        // make the swap\r\n        apolloSwapRouter.swapExactTokensForTokensSupportingFeeOnTransferTokens(\r\n            tokenAmount,\r\n            0,\r\n            path,\r\n            address(bank),\r\n            block.timestamp\r\n        );\r\n    }\r\n\r\n    // receive() external payable {}\r\n\r\n    /**\r\n     * @dev Update the transfer tax rate.\r\n     * Can only be called by the current operator.\r\n     */\r\n    function updateTransferTaxRate(uint16 _transferTaxRate) public onlyOperator {\r\n        require(_transferTaxRate <= MAXIMUM_TRANSFER_TAX_RATE, \"APOLLO::updateTransferTaxRate: Transfer tax rate must not exceed the maximum rate.\");\r\n        emit TransferTaxRateUpdated(msg.sender, transferTaxRate, _transferTaxRate);\r\n        transferTaxRate = _transferTaxRate;\r\n    }\r\n\r\n    function setBank(address _bank) public onlyOperator {\r\n        bank = IBank(_bank);\r\n    }\r\n\r\n    function setMasterchef(address _masterchef) public onlyOperator {\r\n        masterChef = _masterchef;\r\n    }\r\n    /**\r\n     * @dev Update the burn rate.\r\n     * Can only be called by the current operator.\r\n     */\r\n    function updateBurnRate(uint16 _burnRate) public onlyOperator {\r\n        require(_burnRate <= 100, \"APOLLO::updateBurnRate: Burn rate must not exceed the maximum rate.\");\r\n        emit BurnRateUpdated(msg.sender, burnRate, _burnRate);\r\n        burnRate = _burnRate;\r\n    }\r\n\r\n    /**\r\n     * @dev Update the min amount to liquify.\r\n     * Can only be called by the current operator.\r\n     */\r\n    function updateMinAmountToLiquify(uint256 _minAmount) public onlyOperator {\r\n        emit MinAmountToLiquifyUpdated(msg.sender, minAmountToLiquify, _minAmount);\r\n        minAmountToLiquify = _minAmount;\r\n    }\r\n\r\n    /**\r\n     * @dev Update the swapAndLiquifyEnabled.\r\n     * Can only be called by the current operator.\r\n     */\r\n    function updateSwapAndLiquifyEnabled(bool _enabled) public onlyOperator {\r\n        emit SwapAndLiquifyEnabledUpdated(msg.sender, _enabled);\r\n        swapAndLiquifyEnabled = _enabled;\r\n    }\r\n\r\n    /**\r\n     * @dev Update the swap router.\r\n     * Can only be called by the current operator.\r\n     */\r\n    function updateSwapRouter(address _router) public onlyOperator {\r\n        apolloSwapRouter = IUniswapV2Router02(_router);\r\n        apolloSwapPair = IUniswapV2Factory(apolloSwapRouter.factory()).getPair(address(this), IRON);\r\n        require(apolloSwapPair != address(0), \"Invalid pair address.\");\r\n        emit SingSwapRouterUpdated(msg.sender, address(apolloSwapRouter), apolloSwapPair);\r\n    }\r\n\r\n    /**\r\n     * @dev Returns the address of the current operator.\r\n     */\r\n    function operator() public view returns (address) {\r\n        return _operator;\r\n    }\r\n\r\n    /**\r\n     * @dev Transfers operator of the contract to a new account (`newOperator`).\r\n     * Can only be called by the current operator.\r\n     */\r\n    function transferOperator(address newOperator) public onlyOperator {\r\n        require(newOperator != address(0), \"APOLLO::transferOperator: new operator is the zero address\");\r\n        emit OperatorTransferred(_operator, newOperator);\r\n        _operator = newOperator;\r\n    }\r\n\r\n    // Copied and modified from YAM code:\r\n    // https://github.com/yam-finance/yam-protocol/blob/master/contracts/token/YAMGovernanceStorage.sol\r\n    // https://github.com/yam-finance/yam-protocol/blob/master/contracts/token/YAMGovernance.sol\r\n    // Which is copied and modified from COMPOUND:\r\n    // https://github.com/compound-finance/compound-protocol/blob/master/contracts/Governance/Comp.sol\r\n\r\n    /// @dev A record of each accounts delegate\r\n    mapping(address => address) internal _delegates;\r\n\r\n    /// @notice A checkpoint for marking number of votes from a given block\r\n    struct Checkpoint {\r\n        uint32 fromBlock;\r\n        uint256 votes;\r\n    }\r\n\r\n    /// @notice A record of votes checkpoints for each account, by index\r\n    mapping(address => mapping(uint32 => Checkpoint)) public checkpoints;\r\n\r\n    /// @notice The number of checkpoints for each account\r\n    mapping(address => uint32) public numCheckpoints;\r\n\r\n    /// @notice The EIP-712 typehash for the contract's domain\r\n    bytes32 public constant DOMAIN_TYPEHASH = keccak256(\"EIP712Domain(string name,uint256 chainId,address verifyingContract)\");\r\n\r\n    /// @notice The EIP-712 typehash for the delegation struct used by the contract\r\n    bytes32 public constant DELEGATION_TYPEHASH = keccak256(\"Delegation(address delegatee,uint256 nonce,uint256 expiry)\");\r\n\r\n    /// @notice A record of states for signing / validating signatures\r\n    mapping(address => uint) public nonces;\r\n\r\n    /// @notice An event thats emitted when an account changes its delegate\r\n    event DelegateChanged(address indexed delegator, address indexed fromDelegate, address indexed toDelegate);\r\n\r\n    /// @notice An event thats emitted when a delegate account's vote balance changes\r\n    event DelegateVotesChanged(address indexed delegate, uint previousBalance, uint newBalance);\r\n\r\n    /**\r\n     * @notice Delegate votes from `msg.sender` to `delegatee`\r\n     * @param delegator The address to get delegatee for\r\n     */\r\n    function delegates(address delegator)\r\n    external\r\n    view\r\n    returns (address)\r\n    {\r\n        return _delegates[delegator];\r\n    }\r\n\r\n    /**\r\n     * @notice Delegate votes from `msg.sender` to `delegatee`\r\n     * @param delegatee The address to delegate votes to\r\n     */\r\n    function delegate(address delegatee) external {\r\n        return _delegate(msg.sender, delegatee);\r\n    }\r\n\r\n    /**\r\n     * @notice Delegates votes from signatory to `delegatee`\r\n     * @param delegatee The address to delegate votes to\r\n     * @param nonce The contract state required to match the signature\r\n     * @param expiry The time at which to expire the signature\r\n     * @param v The recovery byte of the signature\r\n     * @param r Half of the ECDSA signature pair\r\n     * @param s Half of the ECDSA signature pair\r\n     */\r\n    function delegateBySig(\r\n        address delegatee,\r\n        uint nonce,\r\n        uint expiry,\r\n        uint8 v,\r\n        bytes32 r,\r\n        bytes32 s\r\n    )\r\n    external\r\n    {\r\n        bytes32 domainSeparator = keccak256(\r\n            abi.encode(\r\n                DOMAIN_TYPEHASH,\r\n                keccak256(bytes(name())),\r\n                getChainId(),\r\n                address(this)\r\n            )\r\n        );\r\n\r\n        bytes32 structHash = keccak256(\r\n            abi.encode(\r\n                DELEGATION_TYPEHASH,\r\n                delegatee,\r\n                nonce,\r\n                expiry\r\n            )\r\n        );\r\n\r\n        bytes32 digest = keccak256(\r\n            abi.encodePacked(\r\n                \"\\x19\\x01\",\r\n                domainSeparator,\r\n                structHash\r\n            )\r\n        );\r\n\r\n        address signatory = ecrecover(digest, v, r, s);\r\n        require(signatory != address(0), \"APOLLO::delegateBySig: invalid signature\");\r\n        require(nonce == nonces[signatory]++, \"APOLLO::delegateBySig: invalid nonce\");\r\n        require(now <= expiry, \"APOLLO::delegateBySig: signature expired\");\r\n        return _delegate(signatory, delegatee);\r\n    }\r\n\r\n    /**\r\n     * @notice Gets the current votes balance for `account`\r\n     * @param account The address to get votes balance\r\n     * @return The number of current votes for `account`\r\n     */\r\n    function getCurrentVotes(address account)\r\n    external\r\n    view\r\n    returns (uint256)\r\n    {\r\n        uint32 nCheckpoints = numCheckpoints[account];\r\n        return nCheckpoints > 0 ? checkpoints[account][nCheckpoints - 1].votes : 0;\r\n    }\r\n\r\n    /**\r\n     * @notice Determine the prior number of votes for an account as of a block number\r\n     * @dev Block number must be a finalized block or else this function will revert to prevent misinformation.\r\n     * @param account The address of the account to check\r\n     * @param blockNumber The block number to get the vote balance at\r\n     * @return The number of votes the account had as of the given block\r\n     */\r\n    function getPriorVotes(address account, uint blockNumber)\r\n    external\r\n    view\r\n    returns (uint256)\r\n    {\r\n        require(blockNumber < block.number, \"APOLLO::getPriorVotes: not yet determined\");\r\n\r\n        uint32 nCheckpoints = numCheckpoints[account];\r\n        if (nCheckpoints == 0) {\r\n            return 0;\r\n        }\r\n\r\n        // First check most recent balance\r\n        if (checkpoints[account][nCheckpoints - 1].fromBlock <= blockNumber) {\r\n            return checkpoints[account][nCheckpoints - 1].votes;\r\n        }\r\n\r\n        // Next check implicit zero balance\r\n        if (checkpoints[account][0].fromBlock > blockNumber) {\r\n            return 0;\r\n        }\r\n\r\n        uint32 lower = 0;\r\n        uint32 upper = nCheckpoints - 1;\r\n        while (upper > lower) {\r\n            uint32 center = upper - (upper - lower) / 2;\r\n            // ceil, avoiding overflow\r\n            Checkpoint memory cp = checkpoints[account][center];\r\n            if (cp.fromBlock == blockNumber) {\r\n                return cp.votes;\r\n            } else if (cp.fromBlock < blockNumber) {\r\n                lower = center;\r\n            } else {\r\n                upper = center - 1;\r\n            }\r\n        }\r\n        return checkpoints[account][lower].votes;\r\n    }\r\n\r\n    function _delegate(address delegator, address delegatee)\r\n    internal\r\n    {\r\n        address currentDelegate = _delegates[delegator];\r\n        uint256 delegatorBalance = balanceOf(delegator);\r\n        // balance of underlying APOLLOs (not scaled);\r\n        _delegates[delegator] = delegatee;\r\n\r\n        emit DelegateChanged(delegator, currentDelegate, delegatee);\r\n\r\n        _moveDelegates(currentDelegate, delegatee, delegatorBalance);\r\n    }\r\n\r\n    function _moveDelegates(address srcRep, address dstRep, uint256 amount) internal {\r\n        if (srcRep != dstRep && amount > 0) {\r\n            if (srcRep != address(0)) {\r\n                // decrease old representative\r\n                uint32 srcRepNum = numCheckpoints[srcRep];\r\n                uint256 srcRepOld = srcRepNum > 0 ? checkpoints[srcRep][srcRepNum - 1].votes : 0;\r\n                uint256 srcRepNew = srcRepOld.sub(amount);\r\n                _writeCheckpoint(srcRep, srcRepNum, srcRepOld, srcRepNew);\r\n            }\r\n\r\n            if (dstRep != address(0)) {\r\n                // increase new representative\r\n                uint32 dstRepNum = numCheckpoints[dstRep];\r\n                uint256 dstRepOld = dstRepNum > 0 ? checkpoints[dstRep][dstRepNum - 1].votes : 0;\r\n                uint256 dstRepNew = dstRepOld.add(amount);\r\n                _writeCheckpoint(dstRep, dstRepNum, dstRepOld, dstRepNew);\r\n            }\r\n        }\r\n    }\r\n\r\n    function _writeCheckpoint(\r\n        address delegatee,\r\n        uint32 nCheckpoints,\r\n        uint256 oldVotes,\r\n        uint256 newVotes\r\n    )\r\n    internal\r\n    {\r\n        uint32 blockNumber = safe32(block.number, \"APOLLO::_writeCheckpoint: block number exceeds 32 bits\");\r\n\r\n        if (nCheckpoints > 0 && checkpoints[delegatee][nCheckpoints - 1].fromBlock == blockNumber) {\r\n            checkpoints[delegatee][nCheckpoints - 1].votes = newVotes;\r\n        } else {\r\n            checkpoints[delegatee][nCheckpoints] = Checkpoint(blockNumber, newVotes);\r\n            numCheckpoints[delegatee] = nCheckpoints + 1;\r\n        }\r\n\r\n        emit DelegateVotesChanged(delegatee, oldVotes, newVotes);\r\n    }\r\n\r\n    function safe32(uint n, string memory errorMessage) internal pure returns (uint32) {\r\n        require(n < 2 ** 32, errorMessage);\r\n        return uint32(n);\r\n    }\r\n\r\n    function getChainId() internal pure returns (uint) {\r\n        uint256 chainId;\r\n        assembly {chainId := chainid()}\r\n        return chainId;\r\n    }\r\n\r\n    // allow the token to be used in vaults/other reward contracts\r\n    function setWhiteList(address _addr, bool _status) external onlyOperator {\r\n        require(_addr != address(0), \"Zero Address\");\r\n        whitelist[_addr] = _status;\r\n        emit SetWhiteList(_addr, _status);\r\n    }\r\n\r\n    // allow us to add a new mc contract during deployment\r\n    function setMinter(address _addr, bool _status) external onlyOperator {\r\n        require(_addr != address(0), \"Zero Address\");\r\n        minters[_addr] = _status;\r\n        emit SetMinter(_addr, _status);\r\n    }\r\n\r\n    // allow us to swap reward token\r\n    function setSwapToken(address _addr) external onlyOperator {\r\n        require(_addr != address(0), \"Zero Address\");\r\n        IRON = _addr;\r\n        IERC20(IRON).balanceOf(address(this));\r\n    }\r\n\r\n\r\n}\r\n",
  "sourcePath": "C:\\defi\\bitdeep\\hermesdefi\\masterchef-bank\\contracts\\ApolloToken.sol",
  "compiler": {
    "name": "solc",
    "version": "0.6.12+commit.27d51765.Emscripten.clang"
  },
  "schemaVersion": "3.4.3",
  "updatedAt": "2021-10-20T23:01:06.461Z",
  "devdoc": {
    "kind": "dev",
    "methods": {
      "allowance(address,address)": {
        "details": "See {IERC20-allowance}."
      },
      "approve(address,uint256)": {
        "details": "See {IERC20-approve}. Requirements: - `spender` cannot be the zero address."
      },
      "balanceOf(address)": {
        "details": "See {IERC20-balanceOf}."
      },
      "decimals()": {
        "details": "Returns the number of decimals used to get its user representation. For example, if `decimals` equals `2`, a balance of `505` tokens should be displayed to a user as `5,05` (`505 / 10 ** 2`). Tokens usually opt for a value of 18, imitating the relationship between Ether and Wei. This is the value {ERC20} uses, unless {_setupDecimals} is called. NOTE: This information is only used for _display_ purposes: it in no way affects any of the arithmetic of the contract, including {IERC20-balanceOf} and {IERC20-transfer}."
      },
      "decreaseAllowance(address,uint256)": {
        "details": "Atomically decreases the allowance granted to `spender` by the caller. This is an alternative to {approve} that can be used as a mitigation for problems described in {IERC20-approve}. Emits an {Approval} event indicating the updated allowance. Requirements: - `spender` cannot be the zero address. - `spender` must have allowance for the caller of at least `subtractedValue`."
      },
      "delegate(address)": {
        "params": {
          "delegatee": "The address to delegate votes to"
        }
      },
      "delegateBySig(address,uint256,uint256,uint8,bytes32,bytes32)": {
        "params": {
          "delegatee": "The address to delegate votes to",
          "expiry": "The time at which to expire the signature",
          "nonce": "The contract state required to match the signature",
          "r": "Half of the ECDSA signature pair",
          "s": "Half of the ECDSA signature pair",
          "v": "The recovery byte of the signature"
        }
      },
      "delegates(address)": {
        "params": {
          "delegator": "The address to get delegatee for"
        }
      },
      "getCurrentVotes(address)": {
        "params": {
          "account": "The address to get votes balance"
        },
        "returns": {
          "_0": "The number of current votes for `account`"
        }
      },
      "getPriorVotes(address,uint256)": {
        "details": "Block number must be a finalized block or else this function will revert to prevent misinformation.",
        "params": {
          "account": "The address of the account to check",
          "blockNumber": "The block number to get the vote balance at"
        },
        "returns": {
          "_0": "The number of votes the account had as of the given block"
        }
      },
      "increaseAllowance(address,uint256)": {
        "details": "Atomically increases the allowance granted to `spender` by the caller. This is an alternative to {approve} that can be used as a mitigation for problems described in {IERC20-approve}. Emits an {Approval} event indicating the updated allowance. Requirements: - `spender` cannot be the zero address."
      },
      "name()": {
        "details": "Returns the name of the token."
      },
      "operator()": {
        "details": "Returns the address of the current operator."
      },
      "owner()": {
        "details": "Returns the address of the current owner."
      },
      "renounceOwnership()": {
        "details": "Leaves the contract without owner. It will not be possible to call `onlyOwner` functions anymore. Can only be called by the current owner. NOTE: Renouncing ownership will leave the contract without an owner, thereby removing any functionality that is only available to the owner."
      },
      "symbol()": {
        "details": "Returns the symbol of the token, usually a shorter version of the name."
      },
      "totalSupply()": {
        "details": "See {IERC20-totalSupply}."
      },
      "transfer(address,uint256)": {
        "details": "See {IERC20-transfer}. Requirements: - `recipient` cannot be the zero address. - the caller must have a balance of at least `amount`."
      },
      "transferFrom(address,address,uint256)": {
        "details": "See {IERC20-transferFrom}. Emits an {Approval} event indicating the updated allowance. This is not required by the EIP. See the note at the beginning of {ERC20}; Requirements: - `sender` and `recipient` cannot be the zero address. - `sender` must have a balance of at least `amount`. - the caller must have allowance for ``sender``'s tokens of at least `amount`."
      },
      "transferOperator(address)": {
        "details": "Transfers operator of the contract to a new account (`newOperator`). Can only be called by the current operator."
      },
      "transferOwnership(address)": {
        "details": "Transfers ownership of the contract to a new account (`newOwner`). Can only be called by the current owner."
      },
      "updateBurnRate(uint16)": {
        "details": "Update the burn rate. Can only be called by the current operator."
      },
      "updateMinAmountToLiquify(uint256)": {
        "details": "Update the min amount to liquify. Can only be called by the current operator."
      },
      "updateSwapAndLiquifyEnabled(bool)": {
        "details": "Update the swapAndLiquifyEnabled. Can only be called by the current operator."
      },
      "updateSwapRouter(address)": {
        "details": "Update the swap router. Can only be called by the current operator."
      },
      "updateTransferTaxRate(uint16)": {
        "details": "Update the transfer tax rate. Can only be called by the current operator."
      }
    },
    "stateVariables": {
      "_delegates": {
        "details": "A record of each accounts delegate"
      }
    },
    "version": 1
  },
  "userdoc": {
    "events": {
      "DelegateChanged(address,address,address)": {
        "notice": "An event thats emitted when an account changes its delegate"
      },
      "DelegateVotesChanged(address,uint256,uint256)": {
        "notice": "An event thats emitted when a delegate account's vote balance changes"
      }
    },
    "kind": "user",
    "methods": {
      "DELEGATION_TYPEHASH()": {
        "notice": "The EIP-712 typehash for the delegation struct used by the contract"
      },
      "DOMAIN_TYPEHASH()": {
        "notice": "The EIP-712 typehash for the contract's domain"
      },
      "checkpoints(address,uint32)": {
        "notice": "A record of votes checkpoints for each account, by index"
      },
      "constructor": "Constructs the SingToken contract.",
      "delegate(address)": {
        "notice": "Delegate votes from `msg.sender` to `delegatee`"
      },
      "delegateBySig(address,uint256,uint256,uint8,bytes32,bytes32)": {
        "notice": "Delegates votes from signatory to `delegatee`"
      },
      "delegates(address)": {
        "notice": "Delegate votes from `msg.sender` to `delegatee`"
      },
      "getCurrentVotes(address)": {
        "notice": "Gets the current votes balance for `account`"
      },
      "getPriorVotes(address,uint256)": {
        "notice": "Determine the prior number of votes for an account as of a block number"
      },
      "mint(address,uint256)": {
        "notice": "Creates `_amount` token to `_to`. Must only be called by the owner (MasterChef)."
      },
      "nonces(address)": {
        "notice": "A record of states for signing / validating signatures"
      },
      "numCheckpoints(address)": {
        "notice": "The number of checkpoints for each account"
      }
    },
    "version": 1
  }
}