{
  "contractName": "Bank2",
  "abi": [
    {
      "inputs": [
        {
          "internalType": "contract IERC20",
          "name": "_lp",
          "type": "address"
        }
      ],
      "stateMutability": "nonpayable",
      "type": "constructor"
    },
    {
      "anonymous": false,
      "inputs": [
        {
          "indexed": true,
          "internalType": "address",
          "name": "previousOwner",
          "type": "address"
        },
        {
          "indexed": true,
          "internalType": "address",
          "name": "newOwner",
          "type": "address"
        }
      ],
      "name": "OwnershipTransferred",
      "type": "event"
    },
    {
      "inputs": [],
      "name": "APOLLO",
      "outputs": [
        {
          "internalType": "contract IERC20",
          "name": "",
          "type": "address"
        }
      ],
      "stateMutability": "view",
      "type": "function"
    },
    {
      "inputs": [],
      "name": "USDC",
      "outputs": [
        {
          "internalType": "contract IERC20",
          "name": "",
          "type": "address"
        }
      ],
      "stateMutability": "view",
      "type": "function"
    },
    {
      "inputs": [],
      "name": "apollorouter",
      "outputs": [
        {
          "internalType": "address",
          "name": "",
          "type": "address"
        }
      ],
      "stateMutability": "view",
      "type": "function"
    },
    {
      "inputs": [
        {
          "internalType": "address",
          "name": "",
          "type": "address"
        }
      ],
      "name": "approvedContracts",
      "outputs": [
        {
          "internalType": "bool",
          "name": "",
          "type": "bool"
        }
      ],
      "stateMutability": "view",
      "type": "function"
    },
    {
      "inputs": [],
      "name": "burnAddress",
      "outputs": [
        {
          "internalType": "address",
          "name": "",
          "type": "address"
        }
      ],
      "stateMutability": "view",
      "type": "function"
    },
    {
      "inputs": [],
      "name": "currentRepo",
      "outputs": [
        {
          "internalType": "uint256",
          "name": "",
          "type": "uint256"
        }
      ],
      "stateMutability": "view",
      "type": "function"
    },
    {
      "inputs": [],
      "name": "devaddr",
      "outputs": [
        {
          "internalType": "address",
          "name": "",
          "type": "address"
        }
      ],
      "stateMutability": "view",
      "type": "function"
    },
    {
      "inputs": [],
      "name": "endtime",
      "outputs": [
        {
          "internalType": "uint256",
          "name": "",
          "type": "uint256"
        }
      ],
      "stateMutability": "view",
      "type": "function"
    },
    {
      "inputs": [],
      "name": "entryMin",
      "outputs": [
        {
          "internalType": "uint256",
          "name": "",
          "type": "uint256"
        }
      ],
      "stateMutability": "view",
      "type": "function"
    },
    {
      "inputs": [
        {
          "internalType": "uint256",
          "name": "",
          "type": "uint256"
        }
      ],
      "name": "lotlist",
      "outputs": [
        {
          "internalType": "address",
          "name": "",
          "type": "address"
        }
      ],
      "stateMutability": "view",
      "type": "function"
    },
    {
      "inputs": [],
      "name": "lotrate",
      "outputs": [
        {
          "internalType": "uint256",
          "name": "",
          "type": "uint256"
        }
      ],
      "stateMutability": "view",
      "type": "function"
    },
    {
      "inputs": [],
      "name": "lotsize",
      "outputs": [
        {
          "internalType": "uint256",
          "name": "",
          "type": "uint256"
        }
      ],
      "stateMutability": "view",
      "type": "function"
    },
    {
      "inputs": [],
      "name": "lotstart",
      "outputs": [
        {
          "internalType": "uint256",
          "name": "",
          "type": "uint256"
        }
      ],
      "stateMutability": "view",
      "type": "function"
    },
    {
      "inputs": [],
      "name": "lotwinner",
      "outputs": [
        {
          "internalType": "address",
          "name": "",
          "type": "address"
        }
      ],
      "stateMutability": "view",
      "type": "function"
    },
    {
      "inputs": [],
      "name": "newRepo",
      "outputs": [
        {
          "internalType": "uint256",
          "name": "",
          "type": "uint256"
        }
      ],
      "stateMutability": "view",
      "type": "function"
    },
    {
      "inputs": [],
      "name": "owner",
      "outputs": [
        {
          "internalType": "address",
          "name": "",
          "type": "address"
        }
      ],
      "stateMutability": "view",
      "type": "function"
    },
    {
      "inputs": [],
      "name": "paused",
      "outputs": [
        {
          "internalType": "bool",
          "name": "",
          "type": "bool"
        }
      ],
      "stateMutability": "view",
      "type": "function"
    },
    {
      "inputs": [],
      "name": "period",
      "outputs": [
        {
          "internalType": "uint256",
          "name": "",
          "type": "uint256"
        }
      ],
      "stateMutability": "view",
      "type": "function"
    },
    {
      "inputs": [
        {
          "internalType": "uint256",
          "name": "",
          "type": "uint256"
        }
      ],
      "name": "poolInfo",
      "outputs": [
        {
          "internalType": "uint256",
          "name": "initamt",
          "type": "uint256"
        },
        {
          "internalType": "uint256",
          "name": "amount",
          "type": "uint256"
        },
        {
          "internalType": "uint256",
          "name": "startTime",
          "type": "uint256"
        },
        {
          "internalType": "uint256",
          "name": "endTime",
          "type": "uint256"
        },
        {
          "internalType": "uint256",
          "name": "tokenPerSec",
          "type": "uint256"
        },
        {
          "internalType": "uint256",
          "name": "accPerShare",
          "type": "uint256"
        },
        {
          "internalType": "contract IERC20",
          "name": "token",
          "type": "address"
        },
        {
          "internalType": "uint256",
          "name": "lastRewardTime",
          "type": "uint256"
        },
        {
          "internalType": "address",
          "name": "router",
          "type": "address"
        },
        {
          "internalType": "bool",
          "name": "disableCompound",
          "type": "bool"
        }
      ],
      "stateMutability": "view",
      "type": "function"
    },
    {
      "inputs": [],
      "name": "renounceOwnership",
      "outputs": [],
      "stateMutability": "nonpayable",
      "type": "function"
    },
    {
      "inputs": [
        {
          "internalType": "uint256",
          "name": "",
          "type": "uint256"
        }
      ],
      "name": "skipPool",
      "outputs": [
        {
          "internalType": "bool",
          "name": "",
          "type": "bool"
        }
      ],
      "stateMutability": "view",
      "type": "function"
    },
    {
      "inputs": [],
      "name": "totalAmount",
      "outputs": [
        {
          "internalType": "uint256",
          "name": "",
          "type": "uint256"
        }
      ],
      "stateMutability": "view",
      "type": "function"
    },
    {
      "inputs": [],
      "name": "totalBurnt",
      "outputs": [
        {
          "internalType": "uint256",
          "name": "",
          "type": "uint256"
        }
      ],
      "stateMutability": "view",
      "type": "function"
    },
    {
      "inputs": [],
      "name": "totalpayout",
      "outputs": [
        {
          "internalType": "uint256",
          "name": "",
          "type": "uint256"
        }
      ],
      "stateMutability": "view",
      "type": "function"
    },
    {
      "inputs": [
        {
          "internalType": "address",
          "name": "newOwner",
          "type": "address"
        }
      ],
      "name": "transferOwnership",
      "outputs": [],
      "stateMutability": "nonpayable",
      "type": "function"
    },
    {
      "inputs": [],
      "name": "usdcPool",
      "outputs": [
        {
          "internalType": "uint256",
          "name": "idx",
          "type": "uint256"
        },
        {
          "internalType": "uint256",
          "name": "usdcPerTime",
          "type": "uint256"
        },
        {
          "internalType": "uint256",
          "name": "startTime",
          "type": "uint256"
        },
        {
          "internalType": "uint256",
          "name": "accUsdcPerShare",
          "type": "uint256"
        },
        {
          "internalType": "uint256",
          "name": "lastRewardTime",
          "type": "uint256"
        }
      ],
      "stateMutability": "view",
      "type": "function"
    },
    {
      "inputs": [
        {
          "internalType": "address",
          "name": "",
          "type": "address"
        }
      ],
      "name": "userInfo",
      "outputs": [
        {
          "internalType": "uint256",
          "name": "amount",
          "type": "uint256"
        },
        {
          "internalType": "uint256",
          "name": "rewardDebt",
          "type": "uint256"
        },
        {
          "internalType": "uint256",
          "name": "lastwithdraw",
          "type": "uint256"
        }
      ],
      "stateMutability": "view",
      "type": "function"
    },
    {
      "inputs": [
        {
          "internalType": "uint256",
          "name": "",
          "type": "uint256"
        },
        {
          "internalType": "address",
          "name": "",
          "type": "address"
        }
      ],
      "name": "userPInfo",
      "outputs": [
        {
          "internalType": "uint256",
          "name": "rewardDebt",
          "type": "uint256"
        }
      ],
      "stateMutability": "view",
      "type": "function"
    },
    {
      "inputs": [],
      "name": "winner",
      "outputs": [
        {
          "internalType": "address",
          "name": "",
          "type": "address"
        }
      ],
      "stateMutability": "view",
      "type": "function"
    },
    {
      "inputs": [],
      "name": "winnum",
      "outputs": [
        {
          "internalType": "uint256",
          "name": "",
          "type": "uint256"
        }
      ],
      "stateMutability": "view",
      "type": "function"
    },
    {
      "inputs": [],
      "name": "wmatic",
      "outputs": [
        {
          "internalType": "contract IERC20",
          "name": "",
          "type": "address"
        }
      ],
      "stateMutability": "view",
      "type": "function"
    },
    {
      "inputs": [
        {
          "internalType": "address",
          "name": "_user",
          "type": "address"
        }
      ],
      "name": "userinfo",
      "outputs": [
        {
          "components": [
            {
              "internalType": "uint256",
              "name": "amount",
              "type": "uint256"
            },
            {
              "internalType": "uint256",
              "name": "rewardDebt",
              "type": "uint256"
            },
            {
              "internalType": "uint256",
              "name": "lastwithdraw",
              "type": "uint256"
            },
            {
              "internalType": "uint256[]",
              "name": "pids",
              "type": "uint256[]"
            }
          ],
          "internalType": "struct Bank2.UserInfo",
          "name": "",
          "type": "tuple"
        }
      ],
      "stateMutability": "view",
      "type": "function"
    },
    {
      "inputs": [],
      "name": "usdcinfo",
      "outputs": [
        {
          "components": [
            {
              "internalType": "uint256",
              "name": "idx",
              "type": "uint256"
            },
            {
              "internalType": "uint256[]",
              "name": "wkUnit",
              "type": "uint256[]"
            },
            {
              "internalType": "uint256",
              "name": "usdcPerTime",
              "type": "uint256"
            },
            {
              "internalType": "uint256",
              "name": "startTime",
              "type": "uint256"
            },
            {
              "internalType": "uint256",
              "name": "accUsdcPerShare",
              "type": "uint256"
            },
            {
              "internalType": "uint256",
              "name": "lastRewardTime",
              "type": "uint256"
            }
          ],
          "internalType": "struct Bank2.UsdcPool",
          "name": "",
          "type": "tuple"
        }
      ],
      "stateMutability": "view",
      "type": "function"
    },
    {
      "inputs": [],
      "name": "poolLength",
      "outputs": [
        {
          "internalType": "uint256",
          "name": "",
          "type": "uint256"
        }
      ],
      "stateMutability": "view",
      "type": "function"
    },
    {
      "inputs": [],
      "name": "livepoolIndex",
      "outputs": [
        {
          "internalType": "uint256[]",
          "name": "",
          "type": "uint256[]"
        },
        {
          "internalType": "uint256",
          "name": "",
          "type": "uint256"
        }
      ],
      "stateMutability": "view",
      "type": "function"
    },
    {
      "inputs": [
        {
          "internalType": "uint256",
          "name": "_pid",
          "type": "uint256"
        },
        {
          "internalType": "address",
          "name": "_user",
          "type": "address"
        }
      ],
      "name": "pendingReward",
      "outputs": [
        {
          "internalType": "uint256",
          "name": "",
          "type": "uint256"
        }
      ],
      "stateMutability": "view",
      "type": "function"
    },
    {
      "inputs": [
        {
          "internalType": "address",
          "name": "_user",
          "type": "address"
        }
      ],
      "name": "pendingrewards",
      "outputs": [
        {
          "internalType": "uint256[]",
          "name": "",
          "type": "uint256[]"
        }
      ],
      "stateMutability": "view",
      "type": "function"
    },
    {
      "inputs": [
        {
          "internalType": "address",
          "name": "_user",
          "type": "address"
        }
      ],
      "name": "mytickets",
      "outputs": [
        {
          "internalType": "uint256[]",
          "name": "",
          "type": "uint256[]"
        }
      ],
      "stateMutability": "view",
      "type": "function"
    },
    {
      "inputs": [],
      "name": "totalticket",
      "outputs": [
        {
          "internalType": "uint256",
          "name": "",
          "type": "uint256"
        }
      ],
      "stateMutability": "view",
      "type": "function"
    },
    {
      "inputs": [
        {
          "internalType": "address",
          "name": "_user",
          "type": "address"
        }
      ],
      "name": "pendingUsdc",
      "outputs": [
        {
          "internalType": "uint256",
          "name": "",
          "type": "uint256"
        }
      ],
      "stateMutability": "view",
      "type": "function"
    },
    {
      "inputs": [
        {
          "internalType": "uint256",
          "name": "_amount",
          "type": "uint256"
        }
      ],
      "name": "deposit",
      "outputs": [],
      "stateMutability": "nonpayable",
      "type": "function"
    },
    {
      "inputs": [
        {
          "internalType": "uint256",
          "name": "_pid",
          "type": "uint256"
        }
      ],
      "name": "enroll",
      "outputs": [],
      "stateMutability": "nonpayable",
      "type": "function"
    },
    {
      "inputs": [],
      "name": "compound",
      "outputs": [
        {
          "internalType": "uint256",
          "name": "",
          "type": "uint256"
        }
      ],
      "stateMutability": "nonpayable",
      "type": "function"
    },
    {
      "inputs": [
        {
          "internalType": "uint256",
          "name": "_amount",
          "type": "uint256"
        }
      ],
      "name": "addRepo",
      "outputs": [],
      "stateMutability": "nonpayable",
      "type": "function"
    },
    {
      "inputs": [
        {
          "internalType": "uint256",
          "name": "_amount",
          "type": "uint256"
        },
        {
          "internalType": "uint256",
          "name": "_startTime",
          "type": "uint256"
        },
        {
          "internalType": "uint256",
          "name": "_endTime",
          "type": "uint256"
        },
        {
          "internalType": "contract IERC20",
          "name": "_token",
          "type": "address"
        },
        {
          "internalType": "address",
          "name": "_router",
          "type": "address"
        }
      ],
      "name": "addpool",
      "outputs": [],
      "stateMutability": "nonpayable",
      "type": "function"
    },
    {
      "inputs": [
        {
          "internalType": "uint256",
          "name": "_period",
          "type": "uint256"
        }
      ],
      "name": "start",
      "outputs": [],
      "stateMutability": "nonpayable",
      "type": "function"
    },
    {
      "inputs": [
        {
          "internalType": "uint256",
          "name": "_pid",
          "type": "uint256"
        }
      ],
      "name": "stopPool",
      "outputs": [],
      "stateMutability": "nonpayable",
      "type": "function"
    },
    {
      "inputs": [
        {
          "internalType": "bool",
          "name": "_paused",
          "type": "bool"
        }
      ],
      "name": "pause",
      "outputs": [],
      "stateMutability": "nonpayable",
      "type": "function"
    },
    {
      "inputs": [
        {
          "internalType": "uint256",
          "name": "_period",
          "type": "uint256"
        }
      ],
      "name": "setPeriod",
      "outputs": [],
      "stateMutability": "nonpayable",
      "type": "function"
    },
    {
      "inputs": [
        {
          "internalType": "uint256",
          "name": "_entryMin",
          "type": "uint256"
        }
      ],
      "name": "setMin",
      "outputs": [],
      "stateMutability": "nonpayable",
      "type": "function"
    },
    {
      "inputs": [
        {
          "internalType": "uint256",
          "name": "_pid",
          "type": "uint256"
        },
        {
          "internalType": "bool",
          "name": "_disable",
          "type": "bool"
        }
      ],
      "name": "disableCompound",
      "outputs": [],
      "stateMutability": "nonpayable",
      "type": "function"
    },
    {
      "inputs": [
        {
          "internalType": "address",
          "name": "_contract",
          "type": "address"
        },
        {
          "internalType": "bool",
          "name": "_status",
          "type": "bool"
        }
      ],
      "name": "setApprovedContract",
      "outputs": [],
      "stateMutability": "nonpayable",
      "type": "function"
    }
  ],
  "bytecode": "0x60806040526001600755600f80546001600160a01b0319908116732791bca1f2de4661ed88a30c99a7a9449aa8417417909155601080548216730d500b1d8e8ef31e21c99d1db9a6444d3adf127017905560118054821673a5e0829caced8ffdd4de3c43696c57f7d7a678ff179055674563918244f40000601c5560c8601e55601f805490911661dead1790553480156200009957600080fd5b506040516200368638038062003686833981016040819052620000bc916200039a565b6000620000c862000301565b600080546001600160a01b0319166001600160a01b0383169081178255604051929350917f8be0079c531659141344cd1fd0a4f28419497f9722a3daafe3b4186f6b6457e0908290a3506001808055600e80546001600160a01b0319166001600160a01b0384161790556021805460ff191690911790556040805160808101825260008082526020820181905291810182905260608101919091526200017390600990600462000305565b50601280546001600160a01b0319163317905560105460115460405163095ea7b360e01b81526001600160a01b039283169263095ea7b392620001c09291169060001990600401620003c3565b602060405180830381600087803b158015620001db57600080fd5b505af1158015620001f0573d6000803e3d6000fd5b505050506040513d601f19601f8201168201806040525081019062000216919062000371565b50600f5460115460405163095ea7b360e01b81526001600160a01b039283169263095ea7b392620002519291169060001990600401620003c3565b602060405180830381600087803b1580156200026c57600080fd5b505af115801562000281573d6000803e3d6000fd5b505050506040513d601f19601f82011682018060405250810190620002a7919062000371565b5050601f54600680546001810182556000919091527ff652222313e28459528d920b65115c16c04f3efc82aaedc97be59f3f377c0d3f0180546001600160a01b0319166001600160a01b03909216919091179055620003dc565b3390565b82805482825590600052602060002090810192821562000348579160200282015b8281111562000348578251829060ff1690559160200191906001019062000326565b50620003569291506200035a565b5090565b5b808211156200035657600081556001016200035b565b60006020828403121562000383578081fd5b8151801515811462000393578182fd5b9392505050565b600060208284031215620003ac578081fd5b81516001600160a01b038116811462000393578182fd5b6001600160a01b03929092168252602082015260400190565b61329a80620003ec6000396000f3fe608060405234801561001057600080fd5b506004361061030c5760003560e01c8063715018a61161019d578063b6b55f25116100e9578063ef78d4fd116100a2578063f69e20461161007c578063f69e204614610620578063fb41be1614610628578063fc91f64214610630578063ff464806146106435761030c565b8063ef78d4fd146105f2578063f2fde38b146105fa578063f57d585b1461060d5761030c565b8063b6b55f2514610598578063ccd5db2f146105ab578063d49e77cd146105c1578063dfbf53ae146105c9578063e37ac5d7146105d1578063e49bd61e146105d95761030c565b806395805dad11610156578063a1ff5e0a11610130578063a1ff5e0a14610555578063a75e510714610568578063a95cad681461057d578063b5dbfb25146105855761030c565b806395805dad14610527578063966ff6501461053a57806398969e82146105425761030c565b8063715018a6146104c9578063782c27a9146104d1578063896d59a0146104e457806389a30271146104f75780638da5cb5b146104ff5780639446ec9f146105075761030c565b8063331f7d9d1161025c5780635c8c2083116102155780635fc93c2d116101ef5780635fc93c2d146104935780635ffd993b146104a657806370d5ae05146104b957806370e8fba8146104c15761030c565b80635c8c2083146104705780635c975abb146104785780635def5f5e146104805761030c565b8063331f7d9d146104125780633380e42a1461041a5780633606ef0b14610422578063390710bc1461044257806345dc3dd81461044a57806353f298e61461045d5761030c565b80631526fe27116102c9578063195b6cd4116102a3578063195b6cd4146103cd5780631a39d8ef146103e257806326749ad7146103ea5780632ca126f81461040a5761030c565b80631526fe271461037a57806316ba8cb9146103a35780631959a002146103ab5761030c565b806302329a2914610311578063081e3eda146103265780630ba23681146103445780630f3a9f651461034c5780630f4d03571461035f5780630fce4ef114610372575b600080fd5b61032461031f366004612c00565b61064b565b005b61032e61069c565b60405161033b919061310d565b60405180910390f35b61032e6106a2565b61032461035a366004612c38565b6106a8565b61032461036d366004612c38565b6106e2565b61032e610737565b61038d610388366004612c38565b61073d565b60405161033b9a999897969594939291906131bf565b61032e6107ae565b6103be6103b9366004612bac565b6107b4565b60405161033b93929190613186565b6103d56107d4565b60405161033b9190612d5b565b61032e6107e3565b6103fd6103f8366004612bac565b6107e9565b60405161033b9190612e02565b61032e6107fe565b61032e610804565b61032e61080e565b610435610430366004612bac565b610814565b60405161033b9190612dcd565b61032e610927565b610324610458366004612c38565b61092d565b6103d561046b366004612c38565b610967565b6103d561098e565b6103fd61099d565b61032e61048e366004612bac565b6109a6565b61032e6104a1366004612c68565b610a74565b6103246104b4366004612bc8565b610a91565b6103d5610af1565b6103d5610b00565b610324610b0f565b6103fd6104df366004612c38565b610b8e565b6103246104f2366004612c38565b610ba3565b6103d5610c2a565b6103d5610c39565b61051a610515366004612bac565b610c48565b60405161033b91906130d4565b610324610535366004612c38565b610ce6565b61032e610d84565b61032e610550366004612c68565b610d8a565b610324610563366004612c8c565b610ee0565b610570610f4f565b60405161033b919061307a565b61032e610ff3565b610435610593366004612bac565b610ff9565b6103246105a6366004612c38565b6110bd565b6105b3611505565b60405161033b929190612de0565b6103d56115ba565b6103d56115c9565b61032e6115d8565b6105e16115de565b60405161033b95949392919061319c565b61032e6115f0565b610324610608366004612bac565b6115f6565b61032461061b366004612c38565b6116ac565b61032e611856565b6103d5611e78565b61032461063e366004612cb0565b611e87565b61032e612095565b61065361209b565b6000546001600160a01b039081169116146106895760405162461bcd60e51b815260040161068090612f4a565b60405180910390fd5b6021805460ff1916911515919091179055565b60035490565b60155481565b6106b061209b565b6000546001600160a01b039081169116146106dd5760405162461bcd60e51b815260040161068090612f4a565b601955565b6106ea61209b565b6000546001600160a01b039081169116146107175760405162461bcd60e51b815260040161068090612f4a565b6000908152600460205260409020805460ff19811660ff90911615179055565b601c5481565b6003818154811061074a57fe5b6000918252602090912060099091020180546001820154600283015460038401546004850154600586015460068701546007880154600890980154969850949693959294919390926001600160a01b0392831692811690600160a01b900460ff168a565b601e5481565b600260208190526000918252604090912080546001820154919092015483565b600e546001600160a01b031681565b60165481565b60226020526000908152604090205460ff1681565b601a5481565b6007546006540390565b60175481565b60608060026000846001600160a01b03166001600160a01b0316815260200190815260200160002060030180548060200260200160405190810160405280929190818152602001828054801561088957602002820191906000526020600020905b815481526020019060010190808311610875575b505050505090506060815167ffffffffffffffff811180156108aa57600080fd5b506040519080825280602002602001820160405280156108d4578160200160208202803683370190505b50905060005b825181101561091f576109008382815181106108f257fe5b602002602001015186610d8a565b82828151811061090c57fe5b60209081029190910101526001016108da565b509392505050565b601d5481565b61093561209b565b6000546001600160a01b039081169116146109625760405162461bcd60e51b815260040161068090612f4a565b601c55565b6006818154811061097457fe5b6000918252602090912001546001600160a01b0316905081565b6014546001600160a01b031681565b60215460ff1681565b6001600160a01b0381166000908152600260205260408120600c54600d54421180156109d3575060165415155b15610a3257600d546000906109e990429061209f565b600a549091506000906109fd9083906120e8565b9050610a2d610a26601654610a2064e8d4a51000856120e890919063ffffffff16565b90612122565b8490612164565b925050505b610a6c670de0b6b3a7640000610a208460010154610a6664e8d4a51000610a208789600001546120e890919063ffffffff16565b9061209f565b949350505050565b600560209081526000928352604080842090915290825290205481565b610a9961209b565b6000546001600160a01b03908116911614610ac65760405162461bcd60e51b815260040161068090612f4a565b6001600160a01b03919091166000908152602260205260409020805460ff1916911515919091179055565b601f546001600160a01b031681565b6011546001600160a01b031681565b610b1761209b565b6000546001600160a01b03908116911614610b445760405162461bcd60e51b815260040161068090612f4a565b600080546040516001600160a01b03909116907f8be0079c531659141344cd1fd0a4f28419497f9722a3daafe3b4186f6b6457e0908390a3600080546001600160a01b0319169055565b60046020526000908152604090205460ff1681565b600e546001600160a01b0316331480610bd45750610bbf610c39565b6001600160a01b0316336001600160a01b0316145b610bdd57600080fd5b6000610bfa612710610a20601e54856120e890919063ffffffff16565b601d54909150610c0a9082612164565b601d55610c23610c1a838361209f565b60175490612164565b6017555050565b600f546001600160a01b031681565b6000546001600160a01b031690565b610c50612ae7565b6001600160a01b0382166000908152600260208181526040928390208351608081018552815481526001820154818401529281015483850152600381018054855181850281018501909652808652939491936060860193830182828015610cd657602002820191906000526020600020905b815481526020019060010190808311610cc2575b5050505050815250509050919050565b610cee61209b565b6000546001600160a01b03908116911614610d1b5760405162461bcd60e51b815260040161068090612f4a565b6021805460ff191690556019819055610d344282612164565b601a556017546018819055601954610d5e91600490910290610a2090670de0b6b3a76400006120e8565b600a81905560098054600090610d7057fe5b600091825260208220019190915560175550565b60205481565b6001600160a01b03811660009081526002602052604081206003805483919086908110610db357fe5b60009182526020808320888452600580835260408086206001600160a01b038b16875290935291909320600990920290920191820154600283015492935090914211610e06576000945050505050610eda565b826007015442118015610e1c5750600183015415155b15610e9f5760008360030154421115610e495760078401546003850154610e429161209f565b9050610e5c565b6007840154610e5990429061209f565b90505b6000610e758560040154836120e890919063ffffffff16565b9050610e9a610a268660010154610a2064e8d4a51000856120e890919063ffffffff16565b925050505b610ed3670de0b6b3a7640000610a208460000154610a6664e8d4a51000610a20878b600001546120e890919063ffffffff16565b9450505050505b92915050565b610ee861209b565b6000546001600160a01b03908116911614610f155760405162461bcd60e51b815260040161068090612f4a565b8060038381548110610f2357fe5b906000526020600020906009020160080160146101000a81548160ff0219169083151502179055505050565b610f57612b0f565b60086040518060c00160405290816000820154815260200160018201805480602002602001604051908101604052809291908181526020018280548015610fbd57602002820191906000526020600020905b815481526020019060010190808311610fa9575b50505050508152602001600282015481526020016003820154815260200160048201548152602001600582015481525050905090565b60075481565b60075460065460609182910367ffffffffffffffff8111801561101b57600080fd5b50604051908082528060200260200182016040528015611045578160200160208202803683370190505b506007549091506000905b6006548110156110b457846001600160a01b03166006828154811061107157fe5b6000918252602090912001546001600160a01b031614156110ac578083838060010194508151811061109f57fe5b6020026020010181815250505b600101611050565b50909392505050565b323314806110da57503360009081526022602052604090205460ff165b6110f65760405162461bcd60e51b815260040161068090612f7f565b60215460ff16156111195760405162461bcd60e51b815260040161068090613037565b336000908152600260205260409020611130612189565b60005b600382015481101561123b57600082600301828154811061115057fe5b6000918252602080832090910154808352600490915260409091205490915060ff161561117d5750611233565b61118681612204565b6000818152600560209081526040808320338452909152812054600380546111de9291610a669164e8d4a5100091610a2091889081106111c257fe5b60009182526020909120600560099092020101548954906120e8565b90506111f281670de0b6b3a7640000612122565b905080156112305761123033826003858154811061120c57fe5b60009182526020909120600660099092020101546001600160a01b03169190612319565b50505b600101611133565b5080541561129a5760006112728260010154610a6664e8d4a51000610a2060086004015487600001546120e890919063ffffffff16565b905061128681670de0b6b3a7640000612122565b90508015611298576112983382612374565b505b811561140857600e546040516370a0823160e01b81526000916001600160a01b0316906370a08231906112d1903090600401612d5b565b60206040518083038186803b1580156112e957600080fd5b505afa1580156112fd573d6000803e3d6000fd5b505050506040513d601f19601f820116820180604052508101906113219190612c50565b600e5490915061133c906001600160a01b0316333086612457565b601f54600e546040516370a0823160e01b81526113e0926001600160a01b03908116926113cd928692909116906370a082319061137d903090600401612d5b565b60206040518083038186803b15801561139557600080fd5b505afa1580156113a9573d6000803e3d6000fd5b505050506040513d601f19601f82011682018060405250810190610a669190612c50565b600e546001600160a01b03169190612319565b81546113ec9084612164565b825560208054840190556016546114039084612164565b601655505b60005b60038201548110156114da57600082600301828154811061142857fe5b6000918252602080832090910154808352600490915260409091205490915060ff161561145557506114d2565b836003828154811061146357fe5b9060005260206000209060090201600101600082825401925050819055506114b664e8d4a51000610a206003848154811061149a57fe5b60009182526020909120600560099092020101548654906120e8565b6000918252600560209081526040808420338552909152909120555b60010161140b565b50600c5481546114f49164e8d4a5100091610a20916120e8565b6001820155611501612478565b5050565b60606000606060038054905067ffffffffffffffff8111801561152757600080fd5b50604051908082528060200260200182016040528015611551578160200160208202803683370190505b5090506000805b6003548110156115b057426003828154811061157057fe5b90600052602060002090600902016003015411156115a8578083838060010194508151811061159b57fe5b6020026020010181815250505b600101611558565b5090925090509091565b6012546001600160a01b031681565b6013546001600160a01b031681565b60185481565b600854600a54600b54600c54600d5485565b60195481565b6115fe61209b565b6000546001600160a01b0390811691161461162b5760405162461bcd60e51b815260040161068090612f4a565b6001600160a01b0381166116515760405162461bcd60e51b815260040161068090612e40565b600080546040516001600160a01b03808516939216917f8be0079c531659141344cd1fd0a4f28419497f9722a3daafe3b4186f6b6457e091a3600080546001600160a01b0319166001600160a01b0392909216919091179055565b323314806116c957503360009081526022602052604090205460ff165b6116e55760405162461bcd60e51b815260040161068090612f7f565b60035481108015611713575042600382815481106116ff57fe5b906000526020600020906009020160030154115b61172f5760405162461bcd60e51b815260040161068090613057565b60008181526004602052604090205460ff161561174b57600080fd5b336000908152600260205260408120905b60038201548110156117a9578282600301828154811061177857fe5b906000526020600020015414156117a15760405162461bcd60e51b815260040161068090612ee1565b60010161175c565b506117b382612204565b6000600383815481106117c257fe5b600091825260208083208554600993909302016001818101805490940190935560038087018054948501815585529190932090910185905580549192506118349164e8d4a5100091610a20918790811061181857fe5b60009182526020909120600560099092020101548554906120e8565b6000938452600560209081526040808620338752909152909320929092555050565b60003233148061187557503360009081526022602052604090205460ff165b6118915760405162461bcd60e51b815260040161068090612f7f565b33600090815260026020526040902080546118ab57600080fd5b6118b3612189565b6010546040516370a0823160e01b81526000916001600160a01b0316906370a08231906118e4903090600401612d5b565b60206040518083038186803b1580156118fc57600080fd5b505afa158015611910573d6000803e3d6000fd5b505050506040513d601f19601f820116820180604052508101906119349190612c50565b905060005b6003830154811015611adb57600083600301828154811061195657fe5b6000918252602080832090910154808352600490915260409091205490915060ff16156119835750611ad3565b61198c81612204565b611994612b45565b600382815481106119a157fe5b60009182526020808320604080516101408101825260099490940290910180548452600181015484840152600281015484830152600381015460608501526004810154608085015260058082015460a0860190815260068301546001600160a01b0390811660c0880152600784015460e0880152600890930154928316610100870152600160a01b90920460ff161515610120860152878652835281852033865290925283205490518854929450611a6792610a669164e8d4a5100091610a20916120e8565b9050611a7b81670de0b6b3a7640000612122565b905081610120015115611aac578015611aa75760c0820151611aa7906001600160a01b03163383612319565b611acf565b61010082015160c0830151601054611acf929184916001600160a01b0316612638565b5050505b600101611939565b50600e546040516370a0823160e01b81526000916001600160a01b0316906370a0823190611b0d903090600401612d5b565b60206040518083038186803b158015611b2557600080fd5b505afa158015611b39573d6000803e3d6000fd5b505050506040513d601f19601f82011682018060405250810190611b5d9190612c50565b6011546010546040516370a0823160e01b8152929350611bb8926001600160a01b0392831692611ba09287929116906370a082319061137d903090600401612d5b565b601054600e546001600160a01b039182169116612638565b6000611be78460010154610a6664e8d4a51000610a2060086004015489600001546120e890919063ffffffff16565b9050611bfb81670de0b6b3a7640000612122565b601154600f54600e54929350611c22926001600160a01b0392831692859281169116612638565b600e546040516370a0823160e01b8152600091611c599185916001600160a01b0316906370a082319061137d903090600401612d5b565b9050611c6b6064610a208360696120e8565b855401808655600c54611c899164e8d4a5100091610a2091906120e8565b600186015560005b6003860154811015611d6f576000866003018281548110611cae57fe5b6000918252602080832090910154808352600490915260409091205490915060ff1615611cdb5750611d67565b611ceb6064610a208560696120e8565b60038281548110611cf857fe5b906000526020600020906009020160010160008282540192505081905550611d4b64e8d4a51000610a2060038481548110611d2f57fe5b60009182526020909120600560099092020101548a54906120e8565b6000918252600560209081526040808420338552909152909120555b600101611c91565b50600e54601f5460405163a9059cbb60e01b81526001600160a01b039283169263a9059cbb92611da6929116908590600401612db4565b602060405180830381600087803b158015611dc057600080fd5b505af1158015611dd4573d6000803e3d6000fd5b505050506040513d601f19601f82011682018060405250810190611df89190612c1c565b506020805482019055611e116064610a208360696120e8565b601680549091019055601c54811115611e6757600680546001810182556000919091527ff652222313e28459528d920b65115c16c04f3efc82aaedc97be59f3f377c0d3f0180546001600160a01b031916331790555b611e6f612478565b94505050505090565b6010546001600160a01b031681565b611e8f61209b565b6000546001600160a01b03908116911614611ebc5760405162461bcd60e51b815260040161068090612f4a565b4284118015611eca57508383115b611ee65760405162461bcd60e51b815260040161068090612ebd565b600360405180610140016040528087815260200160008152602001868152602001858152602001611f2e878703610a20670de0b6b3a76400008b6120e890919063ffffffff16565b8152600060208083018290526001600160a01b03808816604080860182905260608087018d905289841660808089019190915260a0978801879052895460018181018c559a885296869020895160099098020196875594880151988601989098558681015160028601559686015160038501559185015160048085019190915593850151600584015560c08501516006840180549183166001600160a01b031992831617905560e0860151600785015561010086015160089094018054610120909701511515600160a01b0260ff60a01b199590931696909116959095179290921691909117909255915163095ea7b360e01b8152909163095ea7b39161203b9185916000199101612db4565b602060405180830381600087803b15801561205557600080fd5b505af1158015612069573d6000803e3d6000fd5b505050506040513d601f19601f8201168201806040525081019061208d9190612c1c565b505050505050565b601b5481565b3390565b60006120e183836040518060400160405280601e81526020017f536166654d6174683a207375627472616374696f6e206f766572666c6f7700008152506127ae565b9392505050565b6000826120f757506000610eda565b8282028284828161210457fe5b04146120e15760405162461bcd60e51b815260040161068090612f09565b60006120e183836040518060400160405280601a81526020017f536166654d6174683a206469766973696f6e206279207a65726f0000000000008152506127da565b6000828201838110156120e15760405162461bcd60e51b815260040161068090612e86565b600d54421161219757612202565b6016546121a75742600d55612202565b600d546000906121b890429061209f565b600a549091506000906121cc9083906120e8565b90506121f86121ef601654610a2064e8d4a51000856120e890919063ffffffff16565b600c5490612164565b600c55505042600d555b565b60006003828154811061221357fe5b906000526020600020906009020190508060030154816007015410158061223e575080600701544211155b156122495750612316565b601654158061225a57506001810154155b1561226b5742600790910155612316565b60008160030154421115612293576007820154600383015461228c9161209f565b90506122a6565b60078201546122a390429061209f565b90505b60006122bf8360040154836120e890919063ffffffff16565b90506122ef6122e48460010154610a2064e8d4a51000856120e890919063ffffffff16565b600585015490612164565b600584015542600784018190556003840154101561231257600383015460078401555b5050505b50565b61236f8363a9059cbb60e01b8484604051602401612338929190612db4565b60408051601f198184030181529190526020810180516001600160e01b03166001600160e01b031990931692909217909152612811565b505050565b600f546040516370a0823160e01b81526000916001600160a01b0316906370a08231906123a5903090600401612d5b565b60206040518083038186803b1580156123bd57600080fd5b505afa1580156123d1573d6000803e3d6000fd5b505050506040513d601f19601f820116820180604052508101906123f59190612c50565b90508082111561242b57600f54612416906001600160a01b03168483612319565b601b546124239082612164565b601b5561236f565b600f54612442906001600160a01b03168484612319565b601b5461244f9083612164565b601b55505050565b612312846323b872dd60e01b85858560405160240161233893929190612d90565b6124806128a0565b42601a541161220257601954612497904290612164565b601a556017546298968010156124c8576124b43362989680612374565b6017546124c4906298968061209f565b6017555b601380546001600160a01b031916331790556017546124f1906103e890610a20906103e76120e8565b60185560006017556008546003141561258f576009805460009061251157fe5b6000918252602082200154600a80549190910390556008556019546018546125499160040290610a2090670de0b6b3a76400006120e8565b6009805460009061255657fe5b9060005260206000200181905550600860010160008154811061257557fe5b600091825260209091200154600a80549091019055612630565b600854600980546125bd9190600184019081106125a857fe5b600091825260209091200154600a549061209f565b600a556008805460010190556019546018546125e99160040290610a2090670de0b6b3a76400006120e8565b6008546009805490919081106125fb57fe5b60009182526020909120015560085460098054909190811061261957fe5b600091825260209091200154600a80549091019055505b61220261296d565b821561231257604080516002808252606080830184529260208301908036833750506040516370a0823160e01b81529192506000916001600160a01b03861691506370a082319061268d903090600401612d5b565b60206040518083038186803b1580156126a557600080fd5b505afa1580156126b9573d6000803e3d6000fd5b505050506040513d601f19601f820116820180604052508101906126dd9190612c50565b9050808510156126ea5750835b83826000815181106126f857fe5b60200260200101906001600160a01b031690816001600160a01b031681525050828260018151811061272657fe5b6001600160a01b0392831660209182029290920101528616635c11d795826000853061275442610258612164565b6040518663ffffffff1660e01b8152600401612774959493929190613116565b600060405180830381600087803b15801561278e57600080fd5b505af11580156127a2573d6000803e3d6000fd5b50505050505050505050565b600081848411156127d25760405162461bcd60e51b81526004016106809190612e0d565b505050900390565b600081836127fb5760405162461bcd60e51b81526004016106809190612e0d565b50600083858161280757fe5b0495945050505050565b6060612866826040518060400160405280602081526020017f5361666545524332303a206c6f772d6c6576656c2063616c6c206661696c6564815250856001600160a01b0316612a139092919063ffffffff16565b80519091501561236f57808060200190518101906128849190612c1c565b61236f5760405162461bcd60e51b815260040161068090612fed565b336000908152600260205260408120905b6003820154811015611501574260038360030183815481106128cf57fe5b9060005260206000200154815481106128e457fe5b9060005260206000209060090201600301541161296557600382018054600019810190811061290f57fe5b906000526020600020015482600301828154811061292957fe5b6000918252602090912001556003820180548061294257fe5b600190038181906000526020600020016000905590556129606128a0565b611501565b6001016128b1565b6007546006540360008033445a60405160200161298c93929190612d6f565b60408051601f198184030181529190528051602090910120600754848206908101601581905560068054939550919350909181106129c657fe5b600091825260209091200154601480546001600160a01b0319166001600160a01b039283161790819055601d54612a01929190911690612374565b50506000601d55600780549091019055565b6060610a6c84846000856060612a2885612ae1565b612a445760405162461bcd60e51b815260040161068090612fb6565b60006060866001600160a01b03168587604051612a619190612d3f565b60006040518083038185875af1925050503d8060008114612a9e576040519150601f19603f3d011682016040523d82523d6000602084013e612aa3565b606091505b50915091508115612ab7579150610a6c9050565b805115612ac75780518082602001fd5b8360405162461bcd60e51b81526004016106809190612e0d565b3b151590565b6040518060800160405280600081526020016000815260200160008152602001606081525090565b6040518060c001604052806000815260200160608152602001600081526020016000815260200160008152602001600081525090565b60405180610140016040528060008152602001600081526020016000815260200160008152602001600081526020016000815260200160006001600160a01b031681526020016000815260200160006001600160a01b031681526020016000151581525090565b600060208284031215612bbd578081fd5b81356120e181613241565b60008060408385031215612bda578081fd5b8235612be581613241565b91506020830135612bf581613256565b809150509250929050565b600060208284031215612c11578081fd5b81356120e181613256565b600060208284031215612c2d578081fd5b81516120e181613256565b600060208284031215612c49578081fd5b5035919050565b600060208284031215612c61578081fd5b5051919050565b60008060408385031215612c7a578182fd5b823591506020830135612bf581613241565b60008060408385031215612c9e578182fd5b823591506020830135612bf581613256565b600080600080600060a08688031215612cc7578081fd5b8535945060208601359350604086013592506060860135612ce781613241565b91506080860135612cf781613241565b809150509295509295909350565b6000815180845260208085019450808401835b83811015612d3457815187529582019590820190600101612d18565b509495945050505050565b60008251612d51818460208701613215565b9190910192915050565b6001600160a01b0391909116815260200190565b6001600160a01b039390931683526020830191909152604082015260600190565b6001600160a01b039384168152919092166020820152604081019190915260600190565b6001600160a01b03929092168252602082015260400190565b6000602082526120e16020830184612d05565b600060408252612df36040830185612d05565b90508260208301529392505050565b901515815260200190565b6000602082528251806020840152612e2c816040850160208701613215565b601f01601f19169190910160400192915050565b60208082526026908201527f4f776e61626c653a206e6577206f776e657220697320746865207a65726f206160408201526564647265737360d01b606082015260800190565b6020808252601b908201527f536166654d6174683a206164646974696f6e206f766572666c6f770000000000604082015260600190565b6020808252600a908201526977726f6e672074696d6560b01b604082015260600190565b6020808252600e908201526d191d5c1b1a58d85d1959081c1a5960921b604082015260600190565b60208082526021908201527f536166654d6174683a206d756c7469706c69636174696f6e206f766572666c6f6040820152607760f81b606082015260800190565b6020808252818101527f4f776e61626c653a2063616c6c6572206973206e6f7420746865206f776e6572604082015260600190565b60208082526019908201527f6f6e6c79417070726f766564436f6e74726163744f72454f4100000000000000604082015260600190565b6020808252601d908201527f416464726573733a2063616c6c20746f206e6f6e2d636f6e7472616374000000604082015260600190565b6020808252602a908201527f5361666545524332303a204552433230206f7065726174696f6e20646964206e6040820152691bdd081cdd58d8d9595960b21b606082015260800190565b6020808252600690820152651c185d5cd95960d21b604082015260600190565b6020808252600990820152681ddc9bdb99c81c1a5960ba1b604082015260600190565b60006020825282516020830152602083015160c060408401526130a060e0840182612d05565b90506040840151606084015260608401516080840152608084015160a084015260a084015160c08401528091505092915050565b6000602082528251602083015260208301516040830152604083015160608301526060830151608080840152610a6c60a0840182612d05565b90815260200190565b600060a082018783526020878185015260a0604085015281875180845260c0860191508289019350845b818110156131655784516001600160a01b031683529383019391830191600101613140565b50506001600160a01b03969096166060850152505050608001529392505050565b9283526020830191909152604082015260600190565b948552602085019390935260408401919091526060830152608082015260a00190565b998a5260208a019890985260408901969096526060880194909452608087019290925260a08601526001600160a01b0390811660c086015260e08501919091521661010083015215156101208201526101400190565b60005b83811015613230578181015183820152602001613218565b838111156123125750506000910152565b6001600160a01b038116811461231657600080fd5b801515811461231657600080fdfea26469706673582212205eda339c235e5ce095798add5e973b78c519542ab38f00ea404de9759e54167564736f6c634300060c0033",
  "immutableReferences": {},
  "source": "// SPDX-License-Identifier: UNLICENSED\r\npragma solidity 0.6.12;\r\n\r\nimport \"./libs/SafeMath.sol\";\r\nimport \"./libs/IERC20.sol\";\r\nimport \"./libs/SafeERC20.sol\";\r\nimport \"./interfaces/IUniswapV2Router02.sol\";\r\nimport \"./libs/Ownable.sol\";\r\nimport \"./libs/ReentrancyGuard.sol\";\r\npragma solidity ^0.6.12;\r\npragma experimental ABIEncoderV2;\r\n\r\ncontract Bank2 is Ownable, ReentrancyGuard {\r\n    using SafeMath for uint256;\r\n    using SafeERC20 for IERC20;\r\n    struct UserInfo {\r\n        uint amount;\r\n        uint rewardDebt;//usdc debt\r\n        uint lastwithdraw;\r\n        uint[] pids;\r\n    }\r\n\r\n    struct PoolInfo {\r\n        uint initamt;\r\n        uint amount;\r\n        uint startTime;\r\n        uint endTime;\r\n        uint tokenPerSec;//X10^18\r\n        uint accPerShare;\r\n        IERC20 token;\r\n        uint lastRewardTime;\r\n        address router;\r\n        bool disableCompound;//in case of error\r\n    }\r\n\r\n    struct UserPInfo {\r\n        uint rewardDebt;\r\n    }\r\n\r\n    struct UsdcPool {\r\n        //usdcPerSec everyweek\r\n        uint idx;\r\n        uint[] wkUnit; //weekly usdcPerSec. 4week cycle\r\n        uint usdcPerTime;//*1e18\r\n        uint startTime;\r\n        uint accUsdcPerShare;\r\n        uint lastRewardTime;\r\n    }\r\n\r\n    /**Variables */\r\n\r\n    mapping(address => UserInfo) public userInfo;\r\n    PoolInfo[] public poolInfo;\r\n    mapping(uint => bool) public skipPool;//in case of stuck in one token.\r\n    mapping(uint => mapping(address => UserPInfo)) public userPInfo;\r\n    address[] public lotlist;\r\n    uint public lotstart = 1;\r\n    UsdcPool public usdcPool;\r\n    IERC20 public APOLLO;\r\n    IERC20 public USDC = IERC20(0x2791Bca1f2de4661ED88A30C99A7a9449Aa84174);\r\n    IERC20 public wmatic = IERC20(0x0d500B1d8E8eF31E21C99d1Db9A6444d3ADf1270);\r\n    address public apollorouter = 0xa5E0829CaCEd8fFDD4De3c43696c57F7D7A678ff;//quickswap\r\n    address public devaddr;\r\n    address public winner;\r\n    address public lotwinner;\r\n    uint public winnum;\r\n    uint public totalAmount;\r\n    uint public newRepo;\r\n    uint public currentRepo;\r\n    uint public period;\r\n    uint public endtime;\r\n    uint public totalpayout;\r\n    uint public entryMin = 5 ether; //min APOLLO to enroll lotterypot\r\n    uint public lotsize;\r\n    uint public lotrate = 200;//bp of total prize.\r\n    address public burnAddress = 0x000000000000000000000000000000000000dEaD;\r\n    uint public totalBurnt;\r\n    bool public paused;\r\n    mapping(address => bool) public approvedContracts;\r\n    modifier onlyApprovedContractOrEOA() {\r\n        require(\r\n            tx.origin == msg.sender || approvedContracts[msg.sender],\r\n            \"onlyApprovedContractOrEOA\"\r\n        );\r\n        _;\r\n    }\r\n    constructor(IERC20 _lp) public {\r\n        APOLLO = IERC20(_lp);\r\n        paused = true;\r\n        usdcPool.wkUnit = [0, 0, 0, 0];\r\n        devaddr = address(msg.sender);\r\n        wmatic.approve(apollorouter, uint(- 1));\r\n        USDC.approve(apollorouter, uint(- 1));\r\n        lotlist.push(burnAddress);\r\n    }\r\n    modifier ispaused(){\r\n        require(paused == false, \"paused\");\r\n        _;\r\n    }\r\n\r\n    /**View functions  */\r\n    function userinfo(address _user) public view returns (UserInfo memory){\r\n        return userInfo[_user];\r\n    }\r\n\r\n    function usdcinfo() public view returns (UsdcPool memory){\r\n        return usdcPool;\r\n    }\r\n\r\n    function poolLength() public view returns (uint){\r\n        return poolInfo.length;\r\n    }\r\n\r\n    function livepoolIndex() public view returns (uint[] memory, uint){\r\n        uint[] memory index = new uint[](poolInfo.length);\r\n        uint cnt;\r\n        for (uint i = 0; i < poolInfo.length; i++) {\r\n            if (poolInfo[i].endTime > block.timestamp) {\r\n                index[cnt++] = i;\r\n            }\r\n        }\r\n        return (index, cnt);\r\n    }\r\n\r\n    function pendingReward(uint _pid, address _user) public view returns (uint256) {\r\n        UserInfo storage user = userInfo[_user];\r\n        PoolInfo storage pool = poolInfo[_pid];\r\n        UserPInfo storage userP = userPInfo[_pid][_user];\r\n        uint256 _accUsdcPerShare = pool.accPerShare;\r\n        if (block.timestamp <= pool.startTime) {\r\n            return 0;\r\n        }\r\n        if (block.timestamp > pool.lastRewardTime && pool.amount != 0) {\r\n            uint multiplier;\r\n            if (block.timestamp > pool.endTime) {\r\n                multiplier = pool.endTime.sub(pool.lastRewardTime);\r\n            } else {\r\n                multiplier = block.timestamp.sub(pool.lastRewardTime);\r\n            }\r\n            uint256 Reward = multiplier.mul(pool.tokenPerSec);\r\n            _accUsdcPerShare = _accUsdcPerShare.add(Reward.mul(1e12).div(pool.amount));\r\n        }\r\n        return user.amount.mul(_accUsdcPerShare).div(1e12).sub(userP.rewardDebt).div(1e18);\r\n    }\r\n\r\n    function pendingrewards(address _user) public view returns (uint[] memory){\r\n        uint[] memory pids = userInfo[_user].pids;\r\n        uint[] memory rewards = new uint[](pids.length);\r\n        for (uint i = 0; i < pids.length; i++) {\r\n            rewards[i] = pendingReward(pids[i], _user);\r\n        }\r\n        return rewards;\r\n    }\r\n\r\n    function mytickets(address _user) public view returns (uint[] memory){\r\n        uint[] memory my = new uint[](lotlist.length - lotstart);\r\n        uint count;\r\n        for (uint i = lotstart; i < lotlist.length; i++) {\r\n            if (lotlist[i] == _user) {\r\n                my[count++] = i;\r\n            }\r\n        }\r\n        return my;\r\n    }\r\n\r\n    function totalticket() public view returns (uint){\r\n        return lotlist.length - lotstart;\r\n    }\r\n\r\n    function pendingUsdc(address _user) public view returns (uint256){\r\n        UserInfo storage user = userInfo[_user];\r\n        uint256 _accUsdcPerShare = usdcPool.accUsdcPerShare;\r\n        if (block.timestamp > usdcPool.lastRewardTime && totalAmount != 0) {\r\n            uint256 multiplier = block.timestamp.sub(usdcPool.lastRewardTime);\r\n            uint256 UsdcReward = multiplier.mul(usdcPool.usdcPerTime);\r\n            _accUsdcPerShare = _accUsdcPerShare.add(UsdcReward.mul(1e12).div(totalAmount));\r\n        }\r\n        return user.amount.mul(_accUsdcPerShare).div(1e12).sub(user.rewardDebt).div(1e18);\r\n    }\r\n\r\n    /**Public functions */\r\n\r\n    function updateUsdcPool() internal {\r\n        if (block.timestamp <= usdcPool.lastRewardTime) {\r\n            return;\r\n        }\r\n        if (totalAmount == 0) {\r\n            usdcPool.lastRewardTime = block.timestamp;\r\n            return;\r\n        }\r\n        uint256 multiplier = block.timestamp.sub(usdcPool.lastRewardTime);\r\n        uint256 usdcReward = multiplier.mul(usdcPool.usdcPerTime);\r\n        usdcPool.accUsdcPerShare = usdcPool.accUsdcPerShare.add(usdcReward.mul(1e12).div(totalAmount));\r\n        usdcPool.lastRewardTime = block.timestamp;\r\n    }\r\n\r\n    function updatePool(uint _pid) internal {\r\n        PoolInfo storage pool = poolInfo[_pid];\r\n        if (pool.lastRewardTime >= pool.endTime || block.timestamp <= pool.lastRewardTime) {\r\n            return;\r\n        }\r\n        if (totalAmount == 0 || pool.amount == 0) {\r\n            pool.lastRewardTime = block.timestamp;\r\n            return;\r\n        }\r\n        uint multiplier;\r\n        if (block.timestamp > pool.endTime) {\r\n            multiplier = pool.endTime.sub(pool.lastRewardTime);\r\n        } else {\r\n            multiplier = block.timestamp.sub(pool.lastRewardTime);\r\n        }\r\n        uint256 Reward = multiplier.mul(pool.tokenPerSec);\r\n        pool.accPerShare = pool.accPerShare.add(Reward.mul(1e12).div(pool.amount));\r\n\r\n        pool.lastRewardTime = block.timestamp;\r\n        if (block.timestamp > pool.endTime) {\r\n            pool.lastRewardTime = pool.endTime;\r\n        }\r\n    }\r\n\r\n    function deposit(uint256 _amount) public onlyApprovedContractOrEOA ispaused {\r\n        UserInfo storage user = userInfo[msg.sender];\r\n        updateUsdcPool();\r\n        for (uint i = 0; i < user.pids.length; i++) {\r\n            uint _pid = user.pids[i];\r\n            if (skipPool[_pid]) {continue;}\r\n            updatePool(_pid);\r\n            uint pendingR = user.amount.mul(poolInfo[_pid].accPerShare).div(1e12).sub(userPInfo[_pid][msg.sender].rewardDebt);\r\n            pendingR = pendingR.div(1e18);\r\n            if (pendingR > 0) {\r\n                poolInfo[_pid].token.safeTransfer(msg.sender, pendingR);\r\n            }\r\n        }\r\n        if (user.amount > 0) {\r\n            uint256 pending = user.amount.mul(usdcPool.accUsdcPerShare).div(1e12).sub(user.rewardDebt);\r\n            pending = pending.div(1e18);\r\n            if (pending > 0) {\r\n                safeUsdcTransfer(msg.sender, pending);\r\n            }\r\n        }\r\n        if (_amount > 0) {\r\n            uint before = APOLLO.balanceOf(address(this));\r\n            APOLLO.safeTransferFrom(address(msg.sender), address(this), _amount);\r\n            APOLLO.safeTransfer(burnAddress, APOLLO.balanceOf(address(this)).sub(before));\r\n            user.amount = user.amount.add(_amount);\r\n            totalBurnt += _amount;\r\n            totalAmount = totalAmount.add(_amount);\r\n        }\r\n\r\n        for (uint i = 0; i < user.pids.length; i++) {\r\n            uint _pid = user.pids[i];\r\n            if (skipPool[_pid]) {continue;}\r\n            poolInfo[_pid].amount += _amount;\r\n            userPInfo[_pid][msg.sender].rewardDebt = user.amount.mul(poolInfo[_pid].accPerShare).div(1e12);\r\n        }\r\n        user.rewardDebt = user.amount.mul(usdcPool.accUsdcPerShare).div(1e12);\r\n        checkend();\r\n    }\r\n\r\n    function enroll(uint _pid) public onlyApprovedContractOrEOA {\r\n        require(_pid < poolInfo.length && poolInfo[_pid].endTime > block.timestamp, \"wrong pid\");\r\n        require(skipPool[_pid] == false);\r\n        UserInfo storage user = userInfo[msg.sender];\r\n        for (uint i = 0; i < user.pids.length; i++) {\r\n            require(user.pids[i] != _pid, \"duplicated pid\");\r\n        }\r\n        updatePool(_pid);\r\n        PoolInfo storage pool = poolInfo[_pid];\r\n        pool.amount += user.amount;\r\n        user.pids.push(_pid);\r\n        userPInfo[_pid][msg.sender].rewardDebt = user.amount.mul(poolInfo[_pid].accPerShare).div(1e12);\r\n    }\r\n\r\n    function compound() public onlyApprovedContractOrEOA returns (uint){\r\n        UserInfo storage user = userInfo[msg.sender];\r\n        require(user.amount > 0);\r\n        updateUsdcPool();\r\n        uint before = wmatic.balanceOf(address(this));\r\n        for (uint i = 0; i < user.pids.length; i++) {\r\n            uint _pid = user.pids[i];\r\n            if (skipPool[_pid]) {continue;}\r\n            updatePool(_pid);\r\n            PoolInfo memory pool = poolInfo[_pid];\r\n            uint pendingR = user.amount.mul(pool.accPerShare).div(1e12).sub(userPInfo[_pid][msg.sender].rewardDebt);\r\n            pendingR = pendingR.div(1e18);\r\n            if (pool.disableCompound) {\r\n                if (pendingR > 0) {\r\n                    pool.token.safeTransfer(msg.sender, pendingR);\r\n                }\r\n            } else {\r\n                _safeSwap(pool.router, pendingR, address(pool.token), address(wmatic));\r\n            }\r\n        }\r\n\r\n        uint beforeSing = APOLLO.balanceOf(address(this));\r\n        //wmatic=>APOLLO\r\n        _safeSwap(apollorouter, wmatic.balanceOf(address(this)).sub(before), address(wmatic), address(APOLLO));\r\n\r\n        //USDC=>APOLLO\r\n        uint256 pending = user.amount.mul(usdcPool.accUsdcPerShare).div(1e12).sub(user.rewardDebt);\r\n        pending = pending.div(1e18);\r\n        _safeSwap(apollorouter, pending, address(USDC), address(APOLLO));\r\n        uint burningSing = APOLLO.balanceOf(address(this)).sub(beforeSing);\r\n        user.amount += burningSing.mul(105).div(100);\r\n        user.rewardDebt = user.amount.mul(usdcPool.accUsdcPerShare).div(1e12);\r\n        for (uint i = 0; i < user.pids.length; i++) {\r\n            uint _pid = user.pids[i];\r\n            if (skipPool[_pid]) {continue;}\r\n            poolInfo[_pid].amount += burningSing.mul(105).div(100);\r\n            userPInfo[_pid][msg.sender].rewardDebt = user.amount.mul(poolInfo[_pid].accPerShare).div(1e12);\r\n        }\r\n        APOLLO.transfer(burnAddress, burningSing);\r\n        totalBurnt += burningSing;\r\n        totalAmount += burningSing.mul(105).div(100);\r\n\r\n        if (burningSing > entryMin) {//enroll for lottery\r\n            lotlist.push(msg.sender);\r\n        }\r\n        checkend();\r\n        return burningSing;\r\n    }\r\n\r\n\r\n    function addRepo(uint _amount) public {\r\n        require(msg.sender == address(APOLLO) || msg.sender == owner());\r\n        uint _lotadd = _amount.mul(lotrate).div(10000);\r\n        lotsize = lotsize.add(_lotadd);\r\n        newRepo = newRepo.add(_amount.sub(_lotadd));\r\n    }\r\n\r\n    /**Internal functions */\r\n\r\n    function checkend() internal {//already updated pool above.\r\n        deletepids();\r\n        if (endtime <= block.timestamp) {\r\n            endtime = block.timestamp.add(period);\r\n            if (newRepo > 10 ** 7) {//USDC decimal 6 in polygon. should change on other chains.\r\n                safeUsdcTransfer(msg.sender, 10 ** 7);\r\n                //reward for the first resetter\r\n                newRepo = newRepo.sub(10 ** 7);\r\n            }\r\n            winner = address(msg.sender);\r\n            currentRepo = newRepo.mul(999).div(1000);\r\n            //in case of error by over-paying\r\n            newRepo = 0;\r\n            if (usdcPool.idx == 3) {\r\n                usdcPool.usdcPerTime -= usdcPool.wkUnit[0];\r\n                usdcPool.idx = 0;\r\n                usdcPool.wkUnit[0] = currentRepo.mul(1e18).div(period * 4);\r\n                usdcPool.usdcPerTime += usdcPool.wkUnit[0];\r\n            } else {\r\n                uint idx = usdcPool.idx;\r\n                usdcPool.usdcPerTime = usdcPool.usdcPerTime.sub(usdcPool.wkUnit[idx + 1]);\r\n                usdcPool.idx++;\r\n                usdcPool.wkUnit[usdcPool.idx] = currentRepo.mul(1e18).div(period * 4);\r\n                usdcPool.usdcPerTime += usdcPool.wkUnit[usdcPool.idx];\r\n            }\r\n            pickwin();\r\n        }\r\n    }\r\n\r\n    function deletepids() internal {\r\n        UserInfo storage user = userInfo[msg.sender];\r\n        for (uint i = 0; i < user.pids.length; i++) {\r\n            if (poolInfo[user.pids[i]].endTime <= block.timestamp) {\r\n                user.pids[i] = user.pids[user.pids.length - 1];\r\n                user.pids.pop();\r\n                deletepids();\r\n                break;\r\n            }\r\n        }\r\n    }\r\n\r\n    function pickwin() internal {\r\n        uint _mod = lotlist.length - lotstart;\r\n        bytes32 _structHash;\r\n        uint256 _randomNumber;\r\n        _structHash = keccak256(\r\n            abi.encode(\r\n                msg.sender,\r\n                block.difficulty,\r\n                gasleft()\r\n            )\r\n        );\r\n        _randomNumber = uint256(_structHash);\r\n        assembly {_randomNumber := mod(_randomNumber, _mod)}\r\n        winnum = lotstart + _randomNumber;\r\n        lotwinner = lotlist[winnum];\r\n        safeUsdcTransfer(lotwinner, lotsize);\r\n        lotsize = 0;\r\n        lotstart += _mod;\r\n    }\r\n\r\n    function _safeSwap(\r\n        address _router,\r\n        uint256 _amountIn,\r\n        address token0, address token1\r\n    ) internal {\r\n        if (_amountIn > 0) {\r\n            address[] memory _path = new address[](2);\r\n            uint bal = IERC20(token0).balanceOf(address(this));\r\n            if (_amountIn < bal) {\r\n                bal = _amountIn;\r\n            }\r\n            _path[0] = token0;\r\n            _path[1] = token1;\r\n            IUniswapV2Router02(_router).swapExactTokensForTokensSupportingFeeOnTransferTokens(\r\n                bal,\r\n                0,\r\n                _path,\r\n                address(this),\r\n                now.add(600)\r\n            );\r\n        }\r\n    }\r\n\r\n    function safeUsdcTransfer(address _to, uint256 _amount) internal {\r\n        uint256 balance = USDC.balanceOf(address(this));\r\n        if (_amount > balance) {\r\n            USDC.safeTransfer(_to, balance);\r\n            totalpayout = totalpayout.add(balance);\r\n        } else {\r\n            USDC.safeTransfer(_to, _amount);\r\n            totalpayout = totalpayout.add(_amount);\r\n        }\r\n    }\r\n\r\n    /*governance functions*/\r\n\r\n    function addpool(uint _amount, uint _startTime, uint _endTime, IERC20 _token, address _router) public onlyOwner {\r\n        require(_startTime > block.timestamp && _endTime > _startTime, \"wrong time\");\r\n        poolInfo.push(PoolInfo({\r\n        initamt : _amount,\r\n        amount : 0,\r\n        startTime : _startTime,\r\n        endTime : _endTime,\r\n        tokenPerSec : _amount.mul(1e18).div(_endTime - _startTime), //X10^18\r\n        accPerShare : 0,\r\n        token : _token,\r\n        lastRewardTime : _startTime,\r\n        router : _router,\r\n        disableCompound : false//in case of error\r\n        }));\r\n        _token.approve(_router, uint(- 1));\r\n    }\r\n\r\n    function start(uint _period) public onlyOwner {\r\n        paused = false;\r\n        period = _period;\r\n        endtime = block.timestamp.add(period);\r\n        currentRepo = newRepo;\r\n        usdcPool.usdcPerTime = currentRepo.mul(1e18).div(period * 4);\r\n        usdcPool.wkUnit[0] = usdcPool.usdcPerTime;\r\n        newRepo = 0;\r\n    }\r\n\r\n    function stopPool(uint _pid) public onlyOwner {\r\n        skipPool[_pid] = !skipPool[_pid];\r\n        //toggle\r\n    }\r\n\r\n    function pause(bool _paused) public onlyOwner {\r\n        paused = _paused;\r\n    }\r\n\r\n    function setPeriod(uint _period) public onlyOwner {\r\n        period = _period;\r\n    }\r\n\r\n    function setMin(uint _entryMin) public onlyOwner {\r\n        entryMin = _entryMin;\r\n    }\r\n\r\n    function disableCompound(uint _pid, bool _disable) public onlyOwner {\r\n        poolInfo[_pid].disableCompound = _disable;\r\n    }\r\n\r\n    function setApprovedContract(address _contract, bool _status)\r\n    external\r\n    onlyOwner\r\n    {\r\n        approvedContracts[_contract] = _status;\r\n    }\r\n\r\n}\r\n",
  "sourcePath": "C:\\defi\\bitdeep\\hermesdefi\\contracts\\contracts\\Bank.sol",
  "compiler": {
    "name": "solc",
    "version": "0.6.12+commit.27d51765.Emscripten.clang"
  },
  "schemaVersion": "3.4.2",
  "updatedAt": "2021-10-13T00:36:24.473Z",
  "devdoc": {
    "kind": "dev",
    "methods": {
      "owner()": {
        "details": "Returns the address of the current owner."
      },
      "renounceOwnership()": {
        "details": "Leaves the contract without owner. It will not be possible to call `onlyOwner` functions anymore. Can only be called by the current owner. NOTE: Renouncing ownership will leave the contract without an owner, thereby removing any functionality that is only available to the owner."
      },
      "transferOwnership(address)": {
        "details": "Transfers ownership of the contract to a new account (`newOwner`). Can only be called by the current owner."
      }
    },
    "version": 1
  },
  "userdoc": {
    "kind": "user",
    "methods": {
      "userInfo(address)": {
        "notice": "Variables "
      },
      "userinfo(address)": {
        "notice": "View functions  "
      }
    },
    "version": 1
  }
}