{
  "contractName": "Bank2",
  "abi": [
    {
      "inputs": [
        {
          "internalType": "address",
          "name": "_lp",
          "type": "address"
        },
        {
          "internalType": "address",
          "name": "_busd",
          "type": "address"
        },
        {
          "internalType": "address",
          "name": "_wbnb",
          "type": "address"
        },
        {
          "internalType": "address",
          "name": "_router",
          "type": "address"
        }
      ],
      "stateMutability": "nonpayable",
      "type": "constructor"
    },
    {
      "anonymous": false,
      "inputs": [
        {
          "indexed": true,
          "internalType": "address",
          "name": "previousOwner",
          "type": "address"
        },
        {
          "indexed": true,
          "internalType": "address",
          "name": "newOwner",
          "type": "address"
        }
      ],
      "name": "OwnershipTransferred",
      "type": "event"
    },
    {
      "inputs": [],
      "name": "APOLLO",
      "outputs": [
        {
          "internalType": "contract IBEP20",
          "name": "",
          "type": "address"
        }
      ],
      "stateMutability": "view",
      "type": "function"
    },
    {
      "inputs": [],
      "name": "IRON",
      "outputs": [
        {
          "internalType": "contract IBEP20",
          "name": "",
          "type": "address"
        }
      ],
      "stateMutability": "view",
      "type": "function"
    },
    {
      "inputs": [
        {
          "internalType": "address",
          "name": "",
          "type": "address"
        }
      ],
      "name": "approvedContracts",
      "outputs": [
        {
          "internalType": "bool",
          "name": "",
          "type": "bool"
        }
      ],
      "stateMutability": "view",
      "type": "function"
    },
    {
      "inputs": [],
      "name": "burnAddress",
      "outputs": [
        {
          "internalType": "address",
          "name": "",
          "type": "address"
        }
      ],
      "stateMutability": "view",
      "type": "function"
    },
    {
      "inputs": [],
      "name": "currentRepo",
      "outputs": [
        {
          "internalType": "uint256",
          "name": "",
          "type": "uint256"
        }
      ],
      "stateMutability": "view",
      "type": "function"
    },
    {
      "inputs": [],
      "name": "devaddr",
      "outputs": [
        {
          "internalType": "address",
          "name": "",
          "type": "address"
        }
      ],
      "stateMutability": "view",
      "type": "function"
    },
    {
      "inputs": [],
      "name": "dfynRouter",
      "outputs": [
        {
          "internalType": "address",
          "name": "",
          "type": "address"
        }
      ],
      "stateMutability": "view",
      "type": "function"
    },
    {
      "inputs": [],
      "name": "endtime",
      "outputs": [
        {
          "internalType": "uint256",
          "name": "",
          "type": "uint256"
        }
      ],
      "stateMutability": "view",
      "type": "function"
    },
    {
      "inputs": [],
      "name": "entryMin",
      "outputs": [
        {
          "internalType": "uint256",
          "name": "",
          "type": "uint256"
        }
      ],
      "stateMutability": "view",
      "type": "function"
    },
    {
      "inputs": [
        {
          "internalType": "uint256",
          "name": "",
          "type": "uint256"
        }
      ],
      "name": "lotlist",
      "outputs": [
        {
          "internalType": "address",
          "name": "",
          "type": "address"
        }
      ],
      "stateMutability": "view",
      "type": "function"
    },
    {
      "inputs": [],
      "name": "lotrate",
      "outputs": [
        {
          "internalType": "uint256",
          "name": "",
          "type": "uint256"
        }
      ],
      "stateMutability": "view",
      "type": "function"
    },
    {
      "inputs": [],
      "name": "lotsize",
      "outputs": [
        {
          "internalType": "uint256",
          "name": "",
          "type": "uint256"
        }
      ],
      "stateMutability": "view",
      "type": "function"
    },
    {
      "inputs": [],
      "name": "lotstart",
      "outputs": [
        {
          "internalType": "uint256",
          "name": "",
          "type": "uint256"
        }
      ],
      "stateMutability": "view",
      "type": "function"
    },
    {
      "inputs": [],
      "name": "lotwinner",
      "outputs": [
        {
          "internalType": "address",
          "name": "",
          "type": "address"
        }
      ],
      "stateMutability": "view",
      "type": "function"
    },
    {
      "inputs": [],
      "name": "newRepo",
      "outputs": [
        {
          "internalType": "uint256",
          "name": "",
          "type": "uint256"
        }
      ],
      "stateMutability": "view",
      "type": "function"
    },
    {
      "inputs": [],
      "name": "owner",
      "outputs": [
        {
          "internalType": "address",
          "name": "",
          "type": "address"
        }
      ],
      "stateMutability": "view",
      "type": "function"
    },
    {
      "inputs": [],
      "name": "paused",
      "outputs": [
        {
          "internalType": "bool",
          "name": "",
          "type": "bool"
        }
      ],
      "stateMutability": "view",
      "type": "function"
    },
    {
      "inputs": [],
      "name": "period",
      "outputs": [
        {
          "internalType": "uint256",
          "name": "",
          "type": "uint256"
        }
      ],
      "stateMutability": "view",
      "type": "function"
    },
    {
      "inputs": [
        {
          "internalType": "uint256",
          "name": "",
          "type": "uint256"
        }
      ],
      "name": "poolInfo",
      "outputs": [
        {
          "internalType": "uint256",
          "name": "initamt",
          "type": "uint256"
        },
        {
          "internalType": "uint256",
          "name": "amount",
          "type": "uint256"
        },
        {
          "internalType": "uint256",
          "name": "startTime",
          "type": "uint256"
        },
        {
          "internalType": "uint256",
          "name": "endTime",
          "type": "uint256"
        },
        {
          "internalType": "uint256",
          "name": "tokenPerSec",
          "type": "uint256"
        },
        {
          "internalType": "uint256",
          "name": "accPerShare",
          "type": "uint256"
        },
        {
          "internalType": "contract IBEP20",
          "name": "token",
          "type": "address"
        },
        {
          "internalType": "uint256",
          "name": "lastRewardTime",
          "type": "uint256"
        },
        {
          "internalType": "address",
          "name": "router",
          "type": "address"
        },
        {
          "internalType": "bool",
          "name": "disableCompound",
          "type": "bool"
        }
      ],
      "stateMutability": "view",
      "type": "function"
    },
    {
      "inputs": [],
      "name": "renounceOwnership",
      "outputs": [],
      "stateMutability": "nonpayable",
      "type": "function"
    },
    {
      "inputs": [
        {
          "internalType": "uint256",
          "name": "",
          "type": "uint256"
        }
      ],
      "name": "skipPool",
      "outputs": [
        {
          "internalType": "bool",
          "name": "",
          "type": "bool"
        }
      ],
      "stateMutability": "view",
      "type": "function"
    },
    {
      "inputs": [],
      "name": "totalAmount",
      "outputs": [
        {
          "internalType": "uint256",
          "name": "",
          "type": "uint256"
        }
      ],
      "stateMutability": "view",
      "type": "function"
    },
    {
      "inputs": [],
      "name": "totalBurnt",
      "outputs": [
        {
          "internalType": "uint256",
          "name": "",
          "type": "uint256"
        }
      ],
      "stateMutability": "view",
      "type": "function"
    },
    {
      "inputs": [],
      "name": "totalpayout",
      "outputs": [
        {
          "internalType": "uint256",
          "name": "",
          "type": "uint256"
        }
      ],
      "stateMutability": "view",
      "type": "function"
    },
    {
      "inputs": [
        {
          "internalType": "address",
          "name": "newOwner",
          "type": "address"
        }
      ],
      "name": "transferOwnership",
      "outputs": [],
      "stateMutability": "nonpayable",
      "type": "function"
    },
    {
      "inputs": [],
      "name": "usdcPool",
      "outputs": [
        {
          "internalType": "uint256",
          "name": "idx",
          "type": "uint256"
        },
        {
          "internalType": "uint256",
          "name": "usdcPerTime",
          "type": "uint256"
        },
        {
          "internalType": "uint256",
          "name": "startTime",
          "type": "uint256"
        },
        {
          "internalType": "uint256",
          "name": "accIronPerShare",
          "type": "uint256"
        },
        {
          "internalType": "uint256",
          "name": "lastRewardTime",
          "type": "uint256"
        }
      ],
      "stateMutability": "view",
      "type": "function"
    },
    {
      "inputs": [
        {
          "internalType": "address",
          "name": "",
          "type": "address"
        }
      ],
      "name": "userInfo",
      "outputs": [
        {
          "internalType": "uint256",
          "name": "amount",
          "type": "uint256"
        },
        {
          "internalType": "uint256",
          "name": "rewardDebt",
          "type": "uint256"
        },
        {
          "internalType": "uint256",
          "name": "lastwithdraw",
          "type": "uint256"
        }
      ],
      "stateMutability": "view",
      "type": "function"
    },
    {
      "inputs": [
        {
          "internalType": "uint256",
          "name": "",
          "type": "uint256"
        },
        {
          "internalType": "address",
          "name": "",
          "type": "address"
        }
      ],
      "name": "userPInfo",
      "outputs": [
        {
          "internalType": "uint256",
          "name": "rewardDebt",
          "type": "uint256"
        }
      ],
      "stateMutability": "view",
      "type": "function"
    },
    {
      "inputs": [],
      "name": "wbnb",
      "outputs": [
        {
          "internalType": "contract IBEP20",
          "name": "",
          "type": "address"
        }
      ],
      "stateMutability": "view",
      "type": "function"
    },
    {
      "inputs": [],
      "name": "winner",
      "outputs": [
        {
          "internalType": "address",
          "name": "",
          "type": "address"
        }
      ],
      "stateMutability": "view",
      "type": "function"
    },
    {
      "inputs": [],
      "name": "winnum",
      "outputs": [
        {
          "internalType": "uint256",
          "name": "",
          "type": "uint256"
        }
      ],
      "stateMutability": "view",
      "type": "function"
    },
    {
      "inputs": [
        {
          "internalType": "address",
          "name": "_user",
          "type": "address"
        }
      ],
      "name": "userinfo",
      "outputs": [
        {
          "components": [
            {
              "internalType": "uint256",
              "name": "amount",
              "type": "uint256"
            },
            {
              "internalType": "uint256",
              "name": "rewardDebt",
              "type": "uint256"
            },
            {
              "internalType": "uint256",
              "name": "lastwithdraw",
              "type": "uint256"
            },
            {
              "internalType": "uint256[]",
              "name": "pids",
              "type": "uint256[]"
            }
          ],
          "internalType": "struct Bank2.UserInfo",
          "name": "",
          "type": "tuple"
        }
      ],
      "stateMutability": "view",
      "type": "function"
    },
    {
      "inputs": [],
      "name": "usdcinfo",
      "outputs": [
        {
          "components": [
            {
              "internalType": "uint256",
              "name": "idx",
              "type": "uint256"
            },
            {
              "internalType": "uint256[]",
              "name": "wkUnit",
              "type": "uint256[]"
            },
            {
              "internalType": "uint256",
              "name": "usdcPerTime",
              "type": "uint256"
            },
            {
              "internalType": "uint256",
              "name": "startTime",
              "type": "uint256"
            },
            {
              "internalType": "uint256",
              "name": "accIronPerShare",
              "type": "uint256"
            },
            {
              "internalType": "uint256",
              "name": "lastRewardTime",
              "type": "uint256"
            }
          ],
          "internalType": "struct Bank2.IronPool",
          "name": "",
          "type": "tuple"
        }
      ],
      "stateMutability": "view",
      "type": "function"
    },
    {
      "inputs": [],
      "name": "poolLength",
      "outputs": [
        {
          "internalType": "uint256",
          "name": "",
          "type": "uint256"
        }
      ],
      "stateMutability": "view",
      "type": "function"
    },
    {
      "inputs": [],
      "name": "getTime",
      "outputs": [
        {
          "internalType": "uint256",
          "name": "",
          "type": "uint256"
        }
      ],
      "stateMutability": "view",
      "type": "function"
    },
    {
      "inputs": [],
      "name": "livepoolIndex",
      "outputs": [
        {
          "internalType": "uint256[]",
          "name": "",
          "type": "uint256[]"
        },
        {
          "internalType": "uint256",
          "name": "",
          "type": "uint256"
        }
      ],
      "stateMutability": "view",
      "type": "function"
    },
    {
      "inputs": [
        {
          "internalType": "uint256",
          "name": "_pid",
          "type": "uint256"
        },
        {
          "internalType": "address",
          "name": "_user",
          "type": "address"
        }
      ],
      "name": "pendingReward",
      "outputs": [
        {
          "internalType": "uint256",
          "name": "",
          "type": "uint256"
        }
      ],
      "stateMutability": "view",
      "type": "function"
    },
    {
      "inputs": [
        {
          "internalType": "address",
          "name": "_user",
          "type": "address"
        }
      ],
      "name": "pendingrewards",
      "outputs": [
        {
          "internalType": "uint256[]",
          "name": "",
          "type": "uint256[]"
        }
      ],
      "stateMutability": "view",
      "type": "function"
    },
    {
      "inputs": [
        {
          "internalType": "address",
          "name": "_user",
          "type": "address"
        }
      ],
      "name": "mytickets",
      "outputs": [
        {
          "internalType": "uint256[]",
          "name": "",
          "type": "uint256[]"
        }
      ],
      "stateMutability": "view",
      "type": "function"
    },
    {
      "inputs": [],
      "name": "totalticket",
      "outputs": [
        {
          "internalType": "uint256",
          "name": "",
          "type": "uint256"
        }
      ],
      "stateMutability": "view",
      "type": "function"
    },
    {
      "inputs": [
        {
          "internalType": "address",
          "name": "_user",
          "type": "address"
        }
      ],
      "name": "pendingIRON",
      "outputs": [
        {
          "internalType": "uint256",
          "name": "",
          "type": "uint256"
        }
      ],
      "stateMutability": "view",
      "type": "function"
    },
    {
      "inputs": [
        {
          "internalType": "uint256",
          "name": "_amount",
          "type": "uint256"
        }
      ],
      "name": "deposit",
      "outputs": [],
      "stateMutability": "nonpayable",
      "type": "function"
    },
    {
      "inputs": [
        {
          "internalType": "uint256",
          "name": "_pid",
          "type": "uint256"
        }
      ],
      "name": "enroll",
      "outputs": [],
      "stateMutability": "nonpayable",
      "type": "function"
    },
    {
      "inputs": [],
      "name": "compound",
      "outputs": [
        {
          "internalType": "uint256",
          "name": "",
          "type": "uint256"
        }
      ],
      "stateMutability": "nonpayable",
      "type": "function"
    },
    {
      "inputs": [
        {
          "internalType": "uint256",
          "name": "_amount",
          "type": "uint256"
        }
      ],
      "name": "addManualRepo",
      "outputs": [],
      "stateMutability": "nonpayable",
      "type": "function"
    },
    {
      "inputs": [
        {
          "internalType": "uint256",
          "name": "_amount",
          "type": "uint256"
        }
      ],
      "name": "addRepo",
      "outputs": [],
      "stateMutability": "nonpayable",
      "type": "function"
    },
    {
      "inputs": [
        {
          "internalType": "uint256",
          "name": "_amount",
          "type": "uint256"
        },
        {
          "internalType": "uint256",
          "name": "_startTime",
          "type": "uint256"
        },
        {
          "internalType": "uint256",
          "name": "_endTime",
          "type": "uint256"
        },
        {
          "internalType": "contract IBEP20",
          "name": "_token",
          "type": "address"
        },
        {
          "internalType": "address",
          "name": "_router",
          "type": "address"
        }
      ],
      "name": "addpool",
      "outputs": [],
      "stateMutability": "nonpayable",
      "type": "function"
    },
    {
      "inputs": [
        {
          "internalType": "uint256",
          "name": "_period",
          "type": "uint256"
        }
      ],
      "name": "start",
      "outputs": [],
      "stateMutability": "nonpayable",
      "type": "function"
    },
    {
      "inputs": [
        {
          "internalType": "uint256",
          "name": "_pid",
          "type": "uint256"
        }
      ],
      "name": "stopPool",
      "outputs": [],
      "stateMutability": "nonpayable",
      "type": "function"
    },
    {
      "inputs": [
        {
          "internalType": "bool",
          "name": "_paused",
          "type": "bool"
        }
      ],
      "name": "pause",
      "outputs": [],
      "stateMutability": "nonpayable",
      "type": "function"
    },
    {
      "inputs": [
        {
          "internalType": "uint256",
          "name": "_period",
          "type": "uint256"
        }
      ],
      "name": "setPeriod",
      "outputs": [],
      "stateMutability": "nonpayable",
      "type": "function"
    },
    {
      "inputs": [
        {
          "internalType": "uint256",
          "name": "_entryMin",
          "type": "uint256"
        }
      ],
      "name": "setMin",
      "outputs": [],
      "stateMutability": "nonpayable",
      "type": "function"
    },
    {
      "inputs": [
        {
          "internalType": "uint256",
          "name": "_pid",
          "type": "uint256"
        },
        {
          "internalType": "bool",
          "name": "_disable",
          "type": "bool"
        }
      ],
      "name": "disableCompound",
      "outputs": [],
      "stateMutability": "nonpayable",
      "type": "function"
    },
    {
      "inputs": [
        {
          "internalType": "address",
          "name": "_contract",
          "type": "address"
        },
        {
          "internalType": "bool",
          "name": "_status",
          "type": "bool"
        }
      ],
      "name": "setApprovedContract",
      "outputs": [],
      "stateMutability": "nonpayable",
      "type": "function"
    }
  ],
  "bytecode": "0x60806040526001600755600e80546001600160a01b03199081167387cf37b07a5f879c1af35532862e6229e90c72af17909155600f8054821673d86b5923f3ad7b585ed81b448170ae026c65ae9a179055601080548216730d500b1d8e8ef31e21c99d1db9a6444d3adf127017905560118054821673a102072a4c07f06ec3b4900fdc4c7b80b6c57429179055674563918244f40000601c5560c8601e55601f805490911661dead179055348015620000b757600080fd5b506040516200386738038062003867833981016040819052620000da91620003dc565b6000620000e66200034e565b600080546001600160a01b0319166001600160a01b0383169081178255604051929350917f8be0079c531659141344cd1fd0a4f28419497f9722a3daafe3b4186f6b6457e0908290a35060018055600e80546001600160a01b038087166001600160a01b03199283161790925560118054848416908316179055600f805486841690831617905560108054928516929091169190911790556021805460ff19169055604080516080810182526000808252602082018190529181018290526060810191909152620001bc90600990600462000352565b50601280546001600160a01b0319163317905560105460115460405163095ea7b360e01b81526001600160a01b039283169263095ea7b39262000209929116906000199060040162000465565b602060405180830381600087803b1580156200022457600080fd5b505af115801562000239573d6000803e3d6000fd5b505050506040513d601f19601f820116820180604052508101906200025f91906200043c565b50600f5460115460405163095ea7b360e01b81526001600160a01b039283169263095ea7b3926200029a929116906000199060040162000465565b602060405180830381600087803b158015620002b557600080fd5b505af1158015620002ca573d6000803e3d6000fd5b505050506040513d601f19601f82011682018060405250810190620002f091906200043c565b5050601f54600680546001810182556000919091527ff652222313e28459528d920b65115c16c04f3efc82aaedc97be59f3f377c0d3f0180546001600160a01b0319166001600160a01b03909216919091179055506200047e915050565b3390565b82805482825590600052602060002090810192821562000395579160200282015b8281111562000395578251829060ff1690559160200191906001019062000373565b50620003a3929150620003a7565b5090565b5b80821115620003a35760008155600101620003a8565b80516001600160a01b0381168114620003d657600080fd5b92915050565b60008060008060808587031215620003f2578384fd5b620003fe8686620003be565b93506200040f8660208701620003be565b9250620004208660408701620003be565b9150620004318660608701620003be565b905092959194509250565b6000602082840312156200044e578081fd5b815180151581146200045e578182fd5b9392505050565b6001600160a01b03929092168252602082015260400190565b6133d9806200048e6000396000f3fe608060405234801561001057600080fd5b50600436106103425760003560e01c8063715018a6116101b8578063a95cad6811610104578063e49bd61e116100a2578063f57d585b1161007c578063f57d585b14610666578063f69e204614610679578063fc91f64214610681578063ff4648061461069457610342565b8063e49bd61e14610632578063ef78d4fd1461064b578063f2fde38b1461065357610342565b8063ccd5db2f116100de578063ccd5db2f14610604578063d49e77cd1461061a578063dfbf53ae14610622578063e37ac5d71461062a57610342565b8063a95cad68146105d6578063b5dbfb25146105de578063b6b55f25146105f157610342565b80638da5cb5b11610171578063966ff6501161014b578063966ff6501461059357806398969e821461059b578063a1ff5e0a146105ae578063a75e5107146105c157610342565b80638da5cb5b146105585780639446ec9f1461056057806395805dad1461058057610342565b8063715018a614610507578063782c27a91461050f5780637fe851d2146105225780638089cef81461052a578063896d59a01461053d5780638d72647e1461055057610342565b80632ca126f811610292578063557ed1ba116102305780635fc93c2d1161020a5780635fc93c2d146104c65780635ffd993b146104d957806366bc2122146104ec57806370d5ae05146104ff57610342565b8063557ed1ba146104ae5780635c8c2083146104b65780635c975abb146104be57610342565b80633606ef0b1161026c5780633606ef0b14610460578063390710bc1461048057806345dc3dd81461048857806353f298e61461049b57610342565b80632ca126f814610448578063331f7d9d146104505780633380e42a1461045857610342565b80631526fe27116102ff578063195b6cd4116102d9578063195b6cd4146104035780631a39d8ef146104185780631fd81bcd1461042057806326749ad71461042857610342565b80631526fe27146103b057806316ba8cb9146103d95780631959a002146103e157610342565b806302329a2914610347578063081e3eda1461035c5780630ba236811461037a5780630f3a9f65146103825780630f4d0357146103955780630fce4ef1146103a8575b600080fd5b61035a610355366004612ca1565b61069c565b005b6103646106f7565b604051610371919061324c565b60405180910390f35b6103646106fd565b61035a610390366004612cd9565b610703565b61035a6103a3366004612cd9565b610747565b6103646107a6565b6103c36103be366004612cd9565b6107ac565b6040516103719a999897969594939291906132fe565b61036461081d565b6103f46103ef366004612c4d565b610823565b604051610371939291906132c5565b61040b610843565b6040516103719190612dfc565b610364610852565b61040b610858565b61043b610436366004612c4d565b610867565b6040516103719190612ea3565b61036461087c565b610364610882565b61036461088c565b61047361046e366004612c4d565b610892565b6040516103719190612e6e565b6103646109a5565b61035a610496366004612cd9565b6109ab565b61040b6104a9366004612cd9565b6109ef565b610364610a16565b61040b610a1a565b61043b610a29565b6103646104d4366004612d09565b610a32565b61035a6104e7366004612c69565b610a4f565b61035a6104fa366004612cd9565b610ab9565b61040b610add565b61035a610aec565b61043b61051d366004612cd9565b610b75565b61040b610b8a565b610364610538366004612c4d565b610b99565b61035a61054b366004612cd9565b610c67565b61040b610d16565b61040b610d25565b61057361056e366004612c4d565b610d34565b6040516103719190613213565b61035a61058e366004612cd9565b610dd2565b610364610e7a565b6103646105a9366004612d09565b610e80565b61035a6105bc366004612d2d565b610fd6565b6105c961104f565b60405161037191906131b9565b6103646110f3565b6104736105ec366004612c4d565b6110f9565b61035a6105ff366004612cd9565b6111bd565b61060c611605565b604051610371929190612e81565b61040b6116ba565b61040b6116c9565b6103646116d8565b61063a6116de565b6040516103719594939291906132db565b6103646116f0565b61035a610661366004612c4d565b6116f6565b61035a610674366004612cd9565b6117b6565b610364611960565b61035a61068f366004612d51565b611f82565b61036461219a565b6106a46121a0565b6001600160a01b03166106b5610d25565b6001600160a01b0316146106e45760405162461bcd60e51b81526004016106db906130d3565b60405180910390fd5b6021805460ff1916911515919091179055565b60035490565b60155481565b61070b6121a0565b6001600160a01b031661071c610d25565b6001600160a01b0316146107425760405162461bcd60e51b81526004016106db906130d3565b601955565b61074f6121a0565b6001600160a01b0316610760610d25565b6001600160a01b0316146107865760405162461bcd60e51b81526004016106db906130d3565b6000908152600460205260409020805460ff19811660ff90911615179055565b601c5481565b600381815481106107b957fe5b6000918252602090912060099091020180546001820154600283015460038401546004850154600586015460068701546007880154600890980154969850949693959294919390926001600160a01b0392831692811690600160a01b900460ff168a565b601e5481565b600260208190526000918252604090912080546001820154919092015483565b600e546001600160a01b031681565b60165481565b600f546001600160a01b031681565b60226020526000908152604090205460ff1681565b601a5481565b6007546006540390565b60175481565b60608060026000846001600160a01b03166001600160a01b0316815260200190815260200160002060030180548060200260200160405190810160405280929190818152602001828054801561090757602002820191906000526020600020905b8154815260200190600101908083116108f3575b505050505090506060815167ffffffffffffffff8111801561092857600080fd5b50604051908082528060200260200182016040528015610952578160200160208202803683370190505b50905060005b825181101561099d5761097e83828151811061097057fe5b602002602001015186610e80565b82828151811061098a57fe5b6020908102919091010152600101610958565b509392505050565b601d5481565b6109b36121a0565b6001600160a01b03166109c4610d25565b6001600160a01b0316146109ea5760405162461bcd60e51b81526004016106db906130d3565b601c55565b600681815481106109fc57fe5b6000918252602090912001546001600160a01b0316905081565b4290565b6014546001600160a01b031681565b60215460ff1681565b600560209081526000928352604080842090915290825290205481565b610a576121a0565b6001600160a01b0316610a68610d25565b6001600160a01b031614610a8e5760405162461bcd60e51b81526004016106db906130d3565b6001600160a01b03919091166000908152602260205260409020805460ff1916911515919091179055565b600f54610ad1906001600160a01b03163330846121a4565b610ada81610c67565b50565b601f546001600160a01b031681565b610af46121a0565b6001600160a01b0316610b05610d25565b6001600160a01b031614610b2b5760405162461bcd60e51b81526004016106db906130d3565b600080546040516001600160a01b03909116907f8be0079c531659141344cd1fd0a4f28419497f9722a3daafe3b4186f6b6457e0908390a3600080546001600160a01b0319169055565b60046020526000908152604090205460ff1681565b6011546001600160a01b031681565b6001600160a01b0381166000908152600260205260408120600c54600d5442118015610bc6575060165415155b15610c2557600d54600090610bdc904290612202565b600a54909150600090610bf090839061222a565b9050610c20610c19601654610c1364e8d4a510008561222a90919063ffffffff16565b9061226b565b849061229d565b925050505b610c5f670de0b6b3a7640000610c138460010154610c5964e8d4a51000610c1387896000015461222a90919063ffffffff16565b90612202565b949350505050565b600e546001600160a01b0316331480610c985750610c83610d25565b6001600160a01b0316336001600160a01b0316145b80610cad57506012546001600160a01b031633145b610cc95760405162461bcd60e51b81526004016106db90612ee1565b6000610ce6612710610c13601e548561222a90919063ffffffff16565b601d54909150610cf6908261229d565b601d55610d0f610d068383612202565b6017549061229d565b6017555050565b6010546001600160a01b031681565b6000546001600160a01b031690565b610d3c612b88565b6001600160a01b0382166000908152600260208181526040928390208351608081018552815481526001820154818401529281015483850152600381018054855181850281018501909652808652939491936060860193830182828015610dc257602002820191906000526020600020905b815481526020019060010190808311610dae575b5050505050815250509050919050565b610dda6121a0565b6001600160a01b0316610deb610d25565b6001600160a01b031614610e115760405162461bcd60e51b81526004016106db906130d3565b6021805460ff191690556019819055610e2a428261229d565b601a556017546018819055601954610e5491600490910290610c1390670de0b6b3a764000061222a565b600a81905560098054600090610e6657fe5b600091825260208220019190915560175550565b60205481565b6001600160a01b03811660009081526002602052604081206003805483919086908110610ea957fe5b60009182526020808320888452600580835260408086206001600160a01b038b16875290935291909320600990920290920191820154600283015492935090914211610efc576000945050505050610fd0565b826007015442118015610f125750600183015415155b15610f955760008360030154421115610f3f5760078401546003850154610f3891612202565b9050610f52565b6007840154610f4f904290612202565b90505b6000610f6b85600401548361222a90919063ffffffff16565b9050610f90610c198660010154610c1364e8d4a510008561222a90919063ffffffff16565b925050505b610fc9670de0b6b3a7640000610c138460000154610c5964e8d4a51000610c13878b6000015461222a90919063ffffffff16565b9450505050505b92915050565b610fde6121a0565b6001600160a01b0316610fef610d25565b6001600160a01b0316146110155760405162461bcd60e51b81526004016106db906130d3565b806003838154811061102357fe5b906000526020600020906009020160080160146101000a81548160ff0219169083151502179055505050565b611057612bb0565b60086040518060c001604052908160008201548152602001600182018054806020026020016040519081016040528092919081815260200182805480156110bd57602002820191906000526020600020905b8154815260200190600101908083116110a9575b50505050508152602001600282015481526020016003820154815260200160048201548152602001600582015481525050905090565b60075481565b60075460065460609182910367ffffffffffffffff8111801561111b57600080fd5b50604051908082528060200260200182016040528015611145578160200160208202803683370190505b506007549091506000905b6006548110156111b457846001600160a01b03166006828154811061117157fe5b6000918252602090912001546001600160a01b031614156111ac578083838060010194508151811061119f57fe5b6020026020010181815250505b600101611150565b50909392505050565b323314806111da57503360009081526022602052604090205460ff165b6111f65760405162461bcd60e51b81526004016106db90613108565b60215460ff16156112195760405162461bcd60e51b81526004016106db90613176565b3360009081526002602052604090206112306122c2565b60005b600382015481101561133b57600082600301828154811061125057fe5b6000918252602080832090910154808352600490915260409091205490915060ff161561127d5750611333565b6112868161233d565b6000818152600560209081526040808320338452909152812054600380546112de9291610c599164e8d4a5100091610c1391889081106112c257fe5b600091825260209091206005600990920201015489549061222a565b90506112f281670de0b6b3a764000061226b565b905080156113305761133033826003858154811061130c57fe5b60009182526020909120600660099092020101546001600160a01b03169190612450565b50505b600101611233565b5080541561139a5760006113728260010154610c5964e8d4a51000610c13600860040154876000015461222a90919063ffffffff16565b905061138681670de0b6b3a764000061226b565b90508015611398576113983382612474565b505b811561150857600e546040516370a0823160e01b81526000916001600160a01b0316906370a08231906113d1903090600401612dfc565b60206040518083038186803b1580156113e957600080fd5b505afa1580156113fd573d6000803e3d6000fd5b505050506040513d601f19601f820116820180604052508101906114219190612cf1565b600e5490915061143c906001600160a01b03163330866121a4565b601f54600e546040516370a0823160e01b81526114e0926001600160a01b03908116926114cd928692909116906370a082319061147d903090600401612dfc565b60206040518083038186803b15801561149557600080fd5b505afa1580156114a9573d6000803e3d6000fd5b505050506040513d601f19601f82011682018060405250810190610c599190612cf1565b600e546001600160a01b03169190612450565b81546114ec908461229d565b82556020805484019055601654611503908461229d565b601655505b60005b60038201548110156115da57600082600301828154811061152857fe5b6000918252602080832090910154808352600490915260409091205490915060ff161561155557506115d2565b836003828154811061156357fe5b9060005260206000209060090201600101600082825401925050819055506115b664e8d4a51000610c136003848154811061159a57fe5b600091825260209091206005600990920201015486549061222a565b6000918252600560209081526040808420338552909152909120555b60010161150b565b50600c5481546115f49164e8d4a5100091610c139161222a565b6001820155611601612557565b5050565b60606000606060038054905067ffffffffffffffff8111801561162757600080fd5b50604051908082528060200260200182016040528015611651578160200160208202803683370190505b5090506000805b6003548110156116b057426003828154811061167057fe5b90600052602060002090600902016003015411156116a8578083838060010194508151811061169b57fe5b6020026020010181815250505b600101611658565b5090925090509091565b6012546001600160a01b031681565b6013546001600160a01b031681565b60185481565b600854600a54600b54600c54600d5485565b60195481565b6116fe6121a0565b6001600160a01b031661170f610d25565b6001600160a01b0316146117355760405162461bcd60e51b81526004016106db906130d3565b6001600160a01b03811661175b5760405162461bcd60e51b81526004016106db90612f5b565b600080546040516001600160a01b03808516939216917f8be0079c531659141344cd1fd0a4f28419497f9722a3daafe3b4186f6b6457e091a3600080546001600160a01b0319166001600160a01b0392909216919091179055565b323314806117d357503360009081526022602052604090205460ff165b6117ef5760405162461bcd60e51b81526004016106db90613108565b6003548110801561181d5750426003828154811061180957fe5b906000526020600020906009020160030154115b6118395760405162461bcd60e51b81526004016106db90613196565b60008181526004602052604090205460ff161561185557600080fd5b336000908152600260205260408120905b60038201548110156118b3578282600301828154811061188257fe5b906000526020600020015414156118ab5760405162461bcd60e51b81526004016106db9061306a565b600101611866565b506118bd8261233d565b6000600383815481106118cc57fe5b6000918252602080832085546009939093020160018181018054909401909355600380870180549485018155855291909320909101859055805491925061193e9164e8d4a5100091610c13918790811061192257fe5b600091825260209091206005600990920201015485549061222a565b6000938452600560209081526040808620338752909152909320929092555050565b60003233148061197f57503360009081526022602052604090205460ff165b61199b5760405162461bcd60e51b81526004016106db90613108565b33600090815260026020526040902080546119b557600080fd5b6119bd6122c2565b6010546040516370a0823160e01b81526000916001600160a01b0316906370a08231906119ee903090600401612dfc565b60206040518083038186803b158015611a0657600080fd5b505afa158015611a1a573d6000803e3d6000fd5b505050506040513d601f19601f82011682018060405250810190611a3e9190612cf1565b905060005b6003830154811015611be5576000836003018281548110611a6057fe5b6000918252602080832090910154808352600490915260409091205490915060ff1615611a8d5750611bdd565b611a968161233d565b611a9e612be6565b60038281548110611aab57fe5b60009182526020808320604080516101408101825260099490940290910180548452600181015484840152600281015484830152600381015460608501526004810154608085015260058082015460a0860190815260068301546001600160a01b0390811660c0880152600784015460e0880152600890930154928316610100870152600160a01b90920460ff161515610120860152878652835281852033865290925283205490518854929450611b7192610c599164e8d4a5100091610c139161222a565b9050611b8581670de0b6b3a764000061226b565b905081610120015115611bb6578015611bb15760c0820151611bb1906001600160a01b03163383612450565b611bd9565b61010082015160c0830151601054611bd9929184916001600160a01b0316612726565b5050505b600101611a43565b50600e546040516370a0823160e01b81526000916001600160a01b0316906370a0823190611c17903090600401612dfc565b60206040518083038186803b158015611c2f57600080fd5b505afa158015611c43573d6000803e3d6000fd5b505050506040513d601f19601f82011682018060405250810190611c679190612cf1565b6011546010546040516370a0823160e01b8152929350611cc2926001600160a01b0392831692611caa9287929116906370a082319061147d903090600401612dfc565b601054600e546001600160a01b039182169116612726565b6000611cf18460010154610c5964e8d4a51000610c13600860040154896000015461222a90919063ffffffff16565b9050611d0581670de0b6b3a764000061226b565b601154600f54600e54929350611d2c926001600160a01b0392831692859281169116612726565b600e546040516370a0823160e01b8152600091611d639185916001600160a01b0316906370a082319061147d903090600401612dfc565b9050611d756064610c1383606961222a565b855401808655600c54611d939164e8d4a5100091610c13919061222a565b600186015560005b6003860154811015611e79576000866003018281548110611db857fe5b6000918252602080832090910154808352600490915260409091205490915060ff1615611de55750611e71565b611df56064610c1385606961222a565b60038281548110611e0257fe5b906000526020600020906009020160010160008282540192505081905550611e5564e8d4a51000610c1360038481548110611e3957fe5b60009182526020909120600560099092020101548a549061222a565b6000918252600560209081526040808420338552909152909120555b600101611d9b565b50600e54601f5460405163a9059cbb60e01b81526001600160a01b039283169263a9059cbb92611eb0929116908590600401612e55565b602060405180830381600087803b158015611eca57600080fd5b505af1158015611ede573d6000803e3d6000fd5b505050506040513d601f19601f82011682018060405250810190611f029190612cbd565b506020805482019055611f1b6064610c1383606961222a565b601680549091019055601c54811115611f7157600680546001810182556000919091527ff652222313e28459528d920b65115c16c04f3efc82aaedc97be59f3f377c0d3f0180546001600160a01b031916331790555b611f79612557565b94505050505090565b611f8a6121a0565b6001600160a01b0316611f9b610d25565b6001600160a01b031614611fc15760405162461bcd60e51b81526004016106db906130d3565b4284118015611fcf57508383115b611feb5760405162461bcd60e51b81526004016106db9061300f565b600360405180610140016040528087815260200160008152602001868152602001858152602001612033878703610c13670de0b6b3a76400008b61222a90919063ffffffff16565b8152600060208083018290526001600160a01b03808816604080860182905260608087018d905289841660808089019190915260a0978801879052895460018181018c559a885296869020895160099098020196875594880151988601989098558681015160028601559686015160038501559185015160048085019190915593850151600584015560c08501516006840180549183166001600160a01b031992831617905560e0860151600785015561010086015160089094018054610120909701511515600160a01b0260ff60a01b199590931696909116959095179290921691909117909255915163095ea7b360e01b8152909163095ea7b3916121409185916000199101612e55565b602060405180830381600087803b15801561215a57600080fd5b505af115801561216e573d6000803e3d6000fd5b505050506040513d601f19601f820116820180604052508101906121929190612cbd565b505050505050565b601b5481565b3390565b6121fc846323b872dd60e01b8585856040516024016121c593929190612e31565b60408051601f198184030181529190526020810180516001600160e01b03166001600160e01b03199093169290921790915261289d565b50505050565b6000828211156122245760405162461bcd60e51b81526004016106db90612fd8565b50900390565b60008261223957506000610fd0565b8282028284828161224657fe5b04146122645760405162461bcd60e51b81526004016106db90613092565b9392505050565b600080821161228c5760405162461bcd60e51b81526004016106db90613033565b81838161229557fe5b049392505050565b6000828201838110156122645760405162461bcd60e51b81526004016106db90612fa1565b600d5442116122d05761233b565b6016546122e05742600d5561233b565b600d546000906122f1904290612202565b600a5490915060009061230590839061222a565b9050612331612328601654610c1364e8d4a510008561222a90919063ffffffff16565b600c549061229d565b600c55505042600d555b565b60006003828154811061234c57fe5b9060005260206000209060090201905080600301548160070154101580612377575080600701544211155b156123825750610ada565b601654158061239357506001810154155b156123a45742600790910155610ada565b600081600301544211156123cc57600782015460038301546123c591612202565b90506123df565b60078201546123dc904290612202565b90505b60006123f883600401548361222a90919063ffffffff16565b905061242861241d8460010154610c1364e8d4a510008561222a90919063ffffffff16565b60058501549061229d565b60058401554260078401819055600384015410156121fc576003830154600784015550505050565b61246f8363a9059cbb60e01b84846040516024016121c5929190612e55565b505050565b600f546040516370a0823160e01b81526000916001600160a01b0316906370a08231906124a5903090600401612dfc565b60206040518083038186803b1580156124bd57600080fd5b505afa1580156124d1573d6000803e3d6000fd5b505050506040513d601f19601f820116820180604052508101906124f59190612cf1565b90508082111561252b57600f54612516906001600160a01b03168483612450565b601b54612523908261229d565b601b5561246f565b600f54612542906001600160a01b03168484612450565b601b5461254f908361229d565b601b55505050565b61255f61292c565b42601a541161233b5760195461257690429061229d565b601a55601754678ac7230489e8000010156125b65761259d33678ac7230489e80000612474565b6017546125b290678ac7230489e80000612202565b6017555b601380546001600160a01b031916331790556017546125df906103e890610c13906103e761222a565b60185560006017556008546003141561267d57600980546000906125ff57fe5b6000918252602082200154600a80549190910390556008556019546018546126379160040290610c1390670de0b6b3a764000061222a565b6009805460009061264457fe5b9060005260206000200181905550600860010160008154811061266357fe5b600091825260209091200154600a8054909101905561271e565b600854600980546126ab91906001840190811061269657fe5b600091825260209091200154600a5490612202565b600a556008805460010190556019546018546126d79160040290610c1390670de0b6b3a764000061222a565b6008546009805490919081106126e957fe5b60009182526020909120015560085460098054909190811061270757fe5b600091825260209091200154600a80549091019055505b61233b6129f9565b6040516370a0823160e01b81526000906001600160a01b038416906370a0823190612755903090600401612dfc565b60206040518083038186803b15801561276d57600080fd5b505afa158015612781573d6000803e3d6000fd5b505050506040513d601f19601f820116820180604052508101906127a59190612cf1565b9050808410156127b25750825b801561289657604080516002808252606080830184529260208301908036833701905050905083816000815181106127e657fe5b60200260200101906001600160a01b031690816001600160a01b031681525050828160018151811061281457fe5b6001600160a01b0392831660209182029290920101528616635c11d79583600084306128424261025861229d565b6040518663ffffffff1660e01b8152600401612862959493929190613255565b600060405180830381600087803b15801561287c57600080fd5b505af1158015612890573d6000803e3d6000fd5b50505050505b5050505050565b60606128f2826040518060400160405280602081526020017f5361666542455032303a206c6f772d6c6576656c2063616c6c206661696c6564815250856001600160a01b0316612a9f9092919063ffffffff16565b80519091501561246f57808060200190518101906129109190612cbd565b61246f5760405162461bcd60e51b81526004016106db90612f11565b336000908152600260205260408120905b60038201548110156116015742600383600301838154811061295b57fe5b90600052602060002001548154811061297057fe5b906000526020600020906009020160030154116129f157600382018054600019810190811061299b57fe5b90600052602060002001548260030182815481106129b557fe5b600091825260209091200155600382018054806129ce57fe5b600190038181906000526020600020016000905590556129ec61292c565b611601565b60010161293d565b6007546006540360008033445a604051602001612a1893929190612e10565b60408051601f19818403018152919052805160209091012060075484820690810160158190556006805493955091935090918110612a5257fe5b600091825260209091200154601480546001600160a01b0319166001600160a01b039283161790819055601d54612a8d929190911690612474565b50506000601d55600780549091019055565b6060610c5f848460008585612ab385612b49565b612acf5760405162461bcd60e51b81526004016106db9061313f565b60006060866001600160a01b03168587604051612aec9190612de0565b60006040518083038185875af1925050503d8060008114612b29576040519150601f19603f3d011682016040523d82523d6000602084013e612b2e565b606091505b5091509150612b3e828286612b4f565b979650505050505050565b3b151590565b60608315612b5e575081612264565b825115612b6e5782518084602001fd5b8160405162461bcd60e51b81526004016106db9190612eae565b6040518060800160405280600081526020016000815260200160008152602001606081525090565b6040518060c001604052806000815260200160608152602001600081526020016000815260200160008152602001600081525090565b60405180610140016040528060008152602001600081526020016000815260200160008152602001600081526020016000815260200160006001600160a01b031681526020016000815260200160006001600160a01b031681526020016000151581525090565b600060208284031215612c5e578081fd5b813561226481613380565b60008060408385031215612c7b578081fd5b8235612c8681613380565b91506020830135612c9681613395565b809150509250929050565b600060208284031215612cb2578081fd5b813561226481613395565b600060208284031215612cce578081fd5b815161226481613395565b600060208284031215612cea578081fd5b5035919050565b600060208284031215612d02578081fd5b5051919050565b60008060408385031215612d1b578182fd5b823591506020830135612c9681613380565b60008060408385031215612d3f578182fd5b823591506020830135612c9681613395565b600080600080600060a08688031215612d68578081fd5b8535945060208601359350604086013592506060860135612d8881613380565b91506080860135612d9881613380565b809150509295509295909350565b6000815180845260208085019450808401835b83811015612dd557815187529582019590820190600101612db9565b509495945050505050565b60008251612df2818460208701613354565b9190910192915050565b6001600160a01b0391909116815260200190565b6001600160a01b039390931683526020830191909152604082015260600190565b6001600160a01b039384168152919092166020820152604081019190915260600190565b6001600160a01b03929092168252602082015260400190565b6000602082526122646020830184612da6565b600060408252612e946040830185612da6565b90508260208301529392505050565b901515815260200190565b6000602082528251806020840152612ecd816040850160208701613354565b601f01601f19169190910160400192915050565b6020808252601690820152756e6f7420617574686f72697a656420746f207265706f60501b604082015260600190565b6020808252602a908201527f5361666542455032303a204245503230206f7065726174696f6e20646964206e6040820152691bdd081cdd58d8d9595960b21b606082015260800190565b60208082526026908201527f4f776e61626c653a206e6577206f776e657220697320746865207a65726f206160408201526564647265737360d01b606082015260800190565b6020808252601b908201527f536166654d6174683a206164646974696f6e206f766572666c6f770000000000604082015260600190565b6020808252601e908201527f536166654d6174683a207375627472616374696f6e206f766572666c6f770000604082015260600190565b6020808252600a908201526977726f6e672074696d6560b01b604082015260600190565b6020808252601a908201527f536166654d6174683a206469766973696f6e206279207a65726f000000000000604082015260600190565b6020808252600e908201526d191d5c1b1a58d85d1959081c1a5960921b604082015260600190565b60208082526021908201527f536166654d6174683a206d756c7469706c69636174696f6e206f766572666c6f6040820152607760f81b606082015260800190565b6020808252818101527f4f776e61626c653a2063616c6c6572206973206e6f7420746865206f776e6572604082015260600190565b60208082526019908201527f6f6e6c79417070726f766564436f6e74726163744f72454f4100000000000000604082015260600190565b6020808252601d908201527f416464726573733a2063616c6c20746f206e6f6e2d636f6e7472616374000000604082015260600190565b6020808252600690820152651c185d5cd95960d21b604082015260600190565b6020808252600990820152681ddc9bdb99c81c1a5960ba1b604082015260600190565b60006020825282516020830152602083015160c060408401526131df60e0840182612da6565b90506040840151606084015260608401516080840152608084015160a084015260a084015160c08401528091505092915050565b6000602082528251602083015260208301516040830152604083015160608301526060830151608080840152610c5f60a0840182612da6565b90815260200190565b600060a082018783526020878185015260a0604085015281875180845260c0860191508289019350845b818110156132a45784516001600160a01b03168352938301939183019160010161327f565b50506001600160a01b03969096166060850152505050608001529392505050565b9283526020830191909152604082015260600190565b948552602085019390935260408401919091526060830152608082015260a00190565b998a5260208a019890985260408901969096526060880194909452608087019290925260a08601526001600160a01b0390811660c086015260e08501919091521661010083015215156101208201526101400190565b60005b8381101561336f578181015183820152602001613357565b838111156121fc5750506000910152565b6001600160a01b0381168114610ada57600080fd5b8015158114610ada57600080fdfea2646970667358221220ba4aa0207972643b6d79c4f4ca68708350e53e81d4a83802ad9a8426aa33204864736f6c634300060c0033",
  "immutableReferences": {},
  "source": "// SPDX-License-Identifier: UNLICENSED\r\nimport \"@openzeppelin/contracts/math/SafeMath.sol\";\r\nimport \"./libs/IBEP20.sol\";\r\nimport \"./libs/SafeBEP20.sol\";\r\nimport \"./interfaces/IUniswapV2Router02.sol\";\r\nimport \"@openzeppelin/contracts/access/Ownable.sol\";\r\nimport \"@openzeppelin/contracts/utils/ReentrancyGuard.sol\";\r\npragma solidity ^0.6.12;\r\npragma experimental ABIEncoderV2;\r\n\r\ncontract Bank2 is Ownable, ReentrancyGuard {\r\n    using SafeMath for uint256;\r\n    using SafeBEP20 for IBEP20;\r\n    struct UserInfo {\r\n        uint amount;\r\n        uint rewardDebt;//usdc debt\r\n        uint lastwithdraw;\r\n        uint[] pids;\r\n    }\r\n\r\n    struct PoolInfo {\r\n        uint initamt;\r\n        uint amount;\r\n        uint startTime;\r\n        uint endTime;\r\n        uint tokenPerSec;//X10^18\r\n        uint accPerShare;\r\n        IBEP20 token;\r\n        uint lastRewardTime;\r\n        address router;\r\n        bool disableCompound;//in case of error\r\n    }\r\n\r\n    struct UserPInfo {\r\n        uint rewardDebt;\r\n    }\r\n\r\n    struct IronPool {\r\n        //usdcPerSec everyweek\r\n        uint idx;\r\n        uint[] wkUnit; //weekly usdcPerSec. 4week cycle\r\n        uint usdcPerTime;//*1e18\r\n        uint startTime;\r\n        uint accIronPerShare;\r\n        uint lastRewardTime;\r\n    }\r\n\r\n    /**Variables */\r\n\r\n    mapping(address => UserInfo) public userInfo;\r\n    PoolInfo[] public poolInfo;\r\n    mapping(uint => bool) public skipPool;//in case of stuck in one token.\r\n    mapping(uint => mapping(address => UserPInfo)) public userPInfo;\r\n    address[] public lotlist;\r\n    uint public lotstart = 1;\r\n    IronPool public usdcPool;\r\n    IBEP20 public APOLLO = IBEP20(0x87cf37B07a5f879c1af35532862e6229E90C72AF);\r\n    IBEP20 public IRON = IBEP20(0xD86b5923F3AD7b585eD81B448170ae026c65ae9a); // IRON\r\n    IBEP20 public wbnb = IBEP20(0x0d500B1d8E8eF31E21C99d1Db9A6444d3ADf1270); // WMATIC\r\n    address public dfynRouter = 0xA102072A4C07F06EC3B4900FDC4C7B80b6c57429;  // DFYN RT\r\n    address public devaddr;\r\n    address public winner;\r\n    address public lotwinner;\r\n    uint public winnum;\r\n    uint public totalAmount;\r\n    uint public newRepo;\r\n    uint public currentRepo;\r\n    uint public period;\r\n    uint public endtime;\r\n    uint public totalpayout;\r\n    uint public entryMin = 5 ether; //min APOLLO to enroll lotterypot\r\n    uint public lotsize;\r\n    uint public lotrate = 200;//bp of total prize.\r\n    address public burnAddress = 0x000000000000000000000000000000000000dEaD;\r\n    uint public totalBurnt;\r\n    bool public paused;\r\n    mapping(address => bool) public approvedContracts;\r\n    modifier onlyApprovedContractOrEOA() {\r\n        require(\r\n            tx.origin == msg.sender || approvedContracts[msg.sender],\r\n            \"onlyApprovedContractOrEOA\"\r\n        );\r\n        _;\r\n    }\r\n\r\n    // use for testing only\r\n\r\n    constructor(address _lp, address _busd, address _wbnb, address _router) public {\r\n        APOLLO = IBEP20(_lp);\r\n        dfynRouter = _router;\r\n        IRON = IBEP20(_busd);\r\n        wbnb = IBEP20(_wbnb);\r\n        paused = false;\r\n        usdcPool.wkUnit = [0, 0, 0, 0];\r\n        devaddr = address(msg.sender);\r\n        wbnb.approve(dfynRouter, uint(- 1));\r\n        IRON.approve(dfynRouter, uint(- 1));\r\n        lotlist.push(burnAddress);\r\n    }\r\n\r\n\r\n    // mainnet\r\n    /*\r\n    constructor() public {\r\n        paused = false;\r\n        usdcPool.wkUnit = [0, 0, 0, 0];\r\n        devaddr = address(0x7cef2432A2690168Fb8eb7118A74d5f8EfF9Ef55);\r\n        wbnb.approve(dfynRouter, uint(- 1));\r\n        IRON.approve(dfynRouter, uint(- 1));\r\n        lotlist.push(burnAddress);\r\n    }\r\n*/\r\n    modifier ispaused(){\r\n        require(paused == false, \"paused\");\r\n        _;\r\n    }\r\n\r\n    /**View functions  */\r\n    function userinfo(address _user) public view returns (UserInfo memory){\r\n        return userInfo[_user];\r\n    }\r\n\r\n    function usdcinfo() public view returns (IronPool memory){\r\n        return usdcPool;\r\n    }\r\n\r\n    function poolLength() public view returns (uint){\r\n        return poolInfo.length;\r\n    }\r\n\r\n    function getTime() public view returns (uint256){\r\n        return block.timestamp;\r\n    }\r\n\r\n    function livepoolIndex() public view returns (uint[] memory, uint){\r\n        uint[] memory index = new uint[](poolInfo.length);\r\n        uint cnt;\r\n        for (uint i = 0; i < poolInfo.length; i++) {\r\n            if (poolInfo[i].endTime > block.timestamp) {\r\n                index[cnt++] = i;\r\n            }\r\n        }\r\n        return (index, cnt);\r\n    }\r\n\r\n    function pendingReward(uint _pid, address _user) public view returns (uint256) {\r\n        UserInfo storage user = userInfo[_user];\r\n        PoolInfo storage pool = poolInfo[_pid];\r\n        UserPInfo storage userP = userPInfo[_pid][_user];\r\n        uint256 _accIronPerShare = pool.accPerShare;\r\n        if (block.timestamp <= pool.startTime) {\r\n            return 0;\r\n        }\r\n        if (block.timestamp > pool.lastRewardTime && pool.amount != 0) {\r\n            uint multiplier;\r\n            if (block.timestamp > pool.endTime) {\r\n                multiplier = pool.endTime.sub(pool.lastRewardTime);\r\n            } else {\r\n                multiplier = block.timestamp.sub(pool.lastRewardTime);\r\n            }\r\n            uint256 Reward = multiplier.mul(pool.tokenPerSec);\r\n            _accIronPerShare = _accIronPerShare.add(Reward.mul(1e12).div(pool.amount));\r\n        }\r\n        return user.amount.mul(_accIronPerShare).div(1e12).sub(userP.rewardDebt).div(1e18);\r\n    }\r\n\r\n    function pendingrewards(address _user) public view returns (uint[] memory){\r\n        uint[] memory pids = userInfo[_user].pids;\r\n        uint[] memory rewards = new uint[](pids.length);\r\n        for (uint i = 0; i < pids.length; i++) {\r\n            rewards[i] = pendingReward(pids[i], _user);\r\n        }\r\n        return rewards;\r\n    }\r\n\r\n    function mytickets(address _user) public view returns (uint[] memory){\r\n        uint[] memory my = new uint[](lotlist.length - lotstart);\r\n        uint count;\r\n        for (uint i = lotstart; i < lotlist.length; i++) {\r\n            if (lotlist[i] == _user) {\r\n                my[count++] = i;\r\n            }\r\n        }\r\n        return my;\r\n    }\r\n\r\n    function totalticket() public view returns (uint){\r\n        return lotlist.length - lotstart;\r\n    }\r\n\r\n    function pendingIRON(address _user) public view returns (uint256){\r\n        UserInfo storage user = userInfo[_user];\r\n        uint256 _accIronPerShare = usdcPool.accIronPerShare;\r\n        if (block.timestamp > usdcPool.lastRewardTime && totalAmount != 0) {\r\n            uint256 multiplier = block.timestamp.sub(usdcPool.lastRewardTime);\r\n            uint256 IronReward = multiplier.mul(usdcPool.usdcPerTime);\r\n            _accIronPerShare = _accIronPerShare.add(IronReward.mul(1e12).div(totalAmount));\r\n        }\r\n        return user.amount.mul(_accIronPerShare).div(1e12).sub(user.rewardDebt).div(1e18);\r\n    }\r\n\r\n    /**Public functions */\r\n\r\n    function updateIronPool() internal {\r\n        if (block.timestamp <= usdcPool.lastRewardTime) {\r\n            return;\r\n        }\r\n        if (totalAmount == 0) {\r\n            usdcPool.lastRewardTime = block.timestamp;\r\n            return;\r\n        }\r\n        uint256 multiplier = block.timestamp.sub(usdcPool.lastRewardTime);\r\n        uint256 usdcReward = multiplier.mul(usdcPool.usdcPerTime);\r\n        usdcPool.accIronPerShare = usdcPool.accIronPerShare.add(usdcReward.mul(1e12).div(totalAmount));\r\n        usdcPool.lastRewardTime = block.timestamp;\r\n    }\r\n\r\n    function updatePool(uint _pid) internal {\r\n        PoolInfo storage pool = poolInfo[_pid];\r\n        if (pool.lastRewardTime >= pool.endTime || block.timestamp <= pool.lastRewardTime) {\r\n            return;\r\n        }\r\n        if (totalAmount == 0 || pool.amount == 0) {\r\n            pool.lastRewardTime = block.timestamp;\r\n            return;\r\n        }\r\n        uint multiplier;\r\n        if (block.timestamp > pool.endTime) {\r\n            multiplier = pool.endTime.sub(pool.lastRewardTime);\r\n        } else {\r\n            multiplier = block.timestamp.sub(pool.lastRewardTime);\r\n        }\r\n        uint256 Reward = multiplier.mul(pool.tokenPerSec);\r\n        pool.accPerShare = pool.accPerShare.add(Reward.mul(1e12).div(pool.amount));\r\n\r\n        pool.lastRewardTime = block.timestamp;\r\n        if (block.timestamp > pool.endTime) {\r\n            pool.lastRewardTime = pool.endTime;\r\n        }\r\n    }\r\n\r\n    function deposit(uint256 _amount) public onlyApprovedContractOrEOA ispaused {\r\n        UserInfo storage user = userInfo[msg.sender];\r\n        updateIronPool();\r\n        for (uint i = 0; i < user.pids.length; i++) {\r\n            uint _pid = user.pids[i];\r\n            if (skipPool[_pid]) {continue;}\r\n            updatePool(_pid);\r\n            uint pendingR = user.amount.mul(poolInfo[_pid].accPerShare).div(1e12).sub(userPInfo[_pid][msg.sender].rewardDebt);\r\n            pendingR = pendingR.div(1e18);\r\n            if (pendingR > 0) {\r\n                poolInfo[_pid].token.safeTransfer(msg.sender, pendingR);\r\n            }\r\n        }\r\n        if (user.amount > 0) {\r\n            uint256 pending = user.amount.mul(usdcPool.accIronPerShare).div(1e12).sub(user.rewardDebt);\r\n            pending = pending.div(1e18);\r\n            if (pending > 0) {\r\n                safeIronTransfer(msg.sender, pending);\r\n            }\r\n        }\r\n        if (_amount > 0) {\r\n            uint before = APOLLO.balanceOf(address(this));\r\n            APOLLO.safeTransferFrom(address(msg.sender), address(this), _amount);\r\n            APOLLO.safeTransfer(burnAddress, APOLLO.balanceOf(address(this)).sub(before));\r\n            user.amount = user.amount.add(_amount);\r\n            totalBurnt += _amount;\r\n            totalAmount = totalAmount.add(_amount);\r\n        }\r\n\r\n        for (uint i = 0; i < user.pids.length; i++) {\r\n            uint _pid = user.pids[i];\r\n            if (skipPool[_pid]) {continue;}\r\n            poolInfo[_pid].amount += _amount;\r\n            userPInfo[_pid][msg.sender].rewardDebt = user.amount.mul(poolInfo[_pid].accPerShare).div(1e12);\r\n        }\r\n        user.rewardDebt = user.amount.mul(usdcPool.accIronPerShare).div(1e12);\r\n        checkend();\r\n    }\r\n\r\n    function enroll(uint _pid) public onlyApprovedContractOrEOA {\r\n        require(_pid < poolInfo.length && poolInfo[_pid].endTime > block.timestamp, \"wrong pid\");\r\n        require(skipPool[_pid] == false);\r\n        UserInfo storage user = userInfo[msg.sender];\r\n        for (uint i = 0; i < user.pids.length; i++) {\r\n            require(user.pids[i] != _pid, \"duplicated pid\");\r\n        }\r\n        updatePool(_pid);\r\n        PoolInfo storage pool = poolInfo[_pid];\r\n        pool.amount += user.amount;\r\n        user.pids.push(_pid);\r\n        userPInfo[_pid][msg.sender].rewardDebt = user.amount.mul(poolInfo[_pid].accPerShare).div(1e12);\r\n    }\r\n\r\n    function compound() public onlyApprovedContractOrEOA returns (uint){\r\n        UserInfo storage user = userInfo[msg.sender];\r\n        require(user.amount > 0);\r\n        updateIronPool();\r\n        uint before = wbnb.balanceOf(address(this));\r\n        for (uint i = 0; i < user.pids.length; i++) {\r\n            uint _pid = user.pids[i];\r\n            if (skipPool[_pid]) {continue;}\r\n            updatePool(_pid);\r\n            PoolInfo memory pool = poolInfo[_pid];\r\n            uint pendingR = user.amount.mul(pool.accPerShare).div(1e12).sub(userPInfo[_pid][msg.sender].rewardDebt);\r\n            pendingR = pendingR.div(1e18);\r\n            if (pool.disableCompound) {\r\n                if (pendingR > 0) {\r\n                    pool.token.safeTransfer(msg.sender, pendingR);\r\n                }\r\n            } else {\r\n                _safeSwap(pool.router, pendingR, address(pool.token), address(wbnb));\r\n            }\r\n        }\r\n\r\n        uint beforeSing = APOLLO.balanceOf(address(this));\r\n        //wbnb=>APOLLO\r\n        _safeSwap(dfynRouter, wbnb.balanceOf(address(this)).sub(before), address(wbnb), address(APOLLO));\r\n\r\n        //IRON=>APOLLO\r\n        uint256 pending = user.amount.mul(usdcPool.accIronPerShare).div(1e12).sub(user.rewardDebt);\r\n        pending = pending.div(1e18);\r\n        _safeSwap(dfynRouter, pending, address(IRON), address(APOLLO));\r\n        uint burningSing = APOLLO.balanceOf(address(this)).sub(beforeSing);\r\n        user.amount += burningSing.mul(105).div(100);\r\n        user.rewardDebt = user.amount.mul(usdcPool.accIronPerShare).div(1e12);\r\n        for (uint i = 0; i < user.pids.length; i++) {\r\n            uint _pid = user.pids[i];\r\n            if (skipPool[_pid]) {continue;}\r\n            poolInfo[_pid].amount += burningSing.mul(105).div(100);\r\n            userPInfo[_pid][msg.sender].rewardDebt = user.amount.mul(poolInfo[_pid].accPerShare).div(1e12);\r\n        }\r\n        APOLLO.transfer(burnAddress, burningSing);\r\n        totalBurnt += burningSing;\r\n        totalAmount += burningSing.mul(105).div(100);\r\n\r\n        if (burningSing > entryMin) {//enroll for lottery\r\n            lotlist.push(msg.sender);\r\n        }\r\n        checkend();\r\n        return burningSing;\r\n    }\r\n\r\n\r\n    function addManualRepo(uint _amount) public {\r\n        IRON.safeTransferFrom(msg.sender, address(this), _amount);\r\n        addRepo(_amount);\r\n    }\r\n    function addRepo(uint _amount) public {\r\n        require(msg.sender == address(APOLLO) || msg.sender == owner() || msg.sender == devaddr, \"not authorized to repo\");\r\n        uint _lotadd = _amount.mul(lotrate).div(10000);\r\n        lotsize = lotsize.add(_lotadd);\r\n        newRepo = newRepo.add(_amount.sub(_lotadd));\r\n    }\r\n\r\n    /**Internal functions */\r\n\r\n    function checkend() internal {//already updated pool above.\r\n        deletepids();\r\n        if (endtime <= block.timestamp) {\r\n            endtime = block.timestamp.add(period);\r\n            if (newRepo > 10 ** 19) {//BUSD decimal 18 in bsc. should change on other chains.\r\n                safeIronTransfer(msg.sender, 10 ** 19);\r\n                //reward for the first resetter\r\n                newRepo = newRepo.sub(10 ** 19);\r\n            }\r\n            winner = address(msg.sender);\r\n            currentRepo = newRepo.mul(999).div(1000);\r\n            //in case of error by over-paying\r\n            newRepo = 0;\r\n            if (usdcPool.idx == 3) {\r\n                usdcPool.usdcPerTime -= usdcPool.wkUnit[0];\r\n                usdcPool.idx = 0;\r\n                usdcPool.wkUnit[0] = currentRepo.mul(1e18).div(period * 4);\r\n                usdcPool.usdcPerTime += usdcPool.wkUnit[0];\r\n            } else {\r\n                uint idx = usdcPool.idx;\r\n                usdcPool.usdcPerTime = usdcPool.usdcPerTime.sub(usdcPool.wkUnit[idx + 1]);\r\n                usdcPool.idx++;\r\n                usdcPool.wkUnit[usdcPool.idx] = currentRepo.mul(1e18).div(period * 4);\r\n                usdcPool.usdcPerTime += usdcPool.wkUnit[usdcPool.idx];\r\n            }\r\n            pickwin();\r\n        }\r\n    }\r\n\r\n    function deletepids() internal {\r\n        UserInfo storage user = userInfo[msg.sender];\r\n        for (uint i = 0; i < user.pids.length; i++) {\r\n            if (poolInfo[user.pids[i]].endTime <= block.timestamp) {\r\n                user.pids[i] = user.pids[user.pids.length - 1];\r\n                user.pids.pop();\r\n                deletepids();\r\n                break;\r\n            }\r\n        }\r\n    }\r\n\r\n    function pickwin() internal {\r\n        uint _mod = lotlist.length - lotstart;\r\n        bytes32 _structHash;\r\n        uint256 _randomNumber;\r\n        _structHash = keccak256(\r\n            abi.encode(\r\n                msg.sender,\r\n                block.difficulty,\r\n                gasleft()\r\n            )\r\n        );\r\n        _randomNumber = uint256(_structHash);\r\n        assembly {_randomNumber := mod(_randomNumber, _mod)}\r\n        winnum = lotstart + _randomNumber;\r\n        lotwinner = lotlist[winnum];\r\n        safeIronTransfer(lotwinner, lotsize);\r\n        lotsize = 0;\r\n        lotstart += _mod;\r\n    }\r\n\r\n    function _safeSwap(\r\n        address _router,\r\n        uint256 _amountIn,\r\n        address token0, address token1\r\n    ) internal {\r\n        uint bal = IBEP20(token0).balanceOf(address(this));\r\n        if (_amountIn < bal) {\r\n            bal = _amountIn;\r\n        }\r\n        if (bal > 0) {\r\n            address[] memory _path = new address[](2);\r\n            _path[0] = token0;\r\n            _path[1] = token1;\r\n            IUniswapV2Router02(_router).swapExactTokensForTokensSupportingFeeOnTransferTokens(\r\n                bal,\r\n                0,\r\n                _path,\r\n                address(this),\r\n                now.add(600)\r\n            );\r\n        }\r\n    }\r\n\r\n    function safeIronTransfer(address _to, uint256 _amount) internal {\r\n        uint256 balance = IRON.balanceOf(address(this));\r\n        if (_amount > balance) {\r\n            IRON.safeTransfer(_to, balance);\r\n            totalpayout = totalpayout.add(balance);\r\n        } else {\r\n            IRON.safeTransfer(_to, _amount);\r\n            totalpayout = totalpayout.add(_amount);\r\n        }\r\n    }\r\n\r\n    /*governance functions*/\r\n\r\n    function addpool(uint _amount, uint _startTime, uint _endTime, IBEP20 _token, address _router) public onlyOwner {\r\n        require(_startTime > block.timestamp && _endTime > _startTime, \"wrong time\");\r\n        poolInfo.push(PoolInfo({\r\n        initamt : _amount,\r\n        amount : 0,\r\n        startTime : _startTime,\r\n        endTime : _endTime,\r\n        tokenPerSec : _amount.mul(1e18).div(_endTime - _startTime), //X10^18\r\n        accPerShare : 0,\r\n        token : _token,\r\n        lastRewardTime : _startTime,\r\n        router : _router,\r\n        disableCompound : false//in case of error\r\n        }));\r\n        _token.approve(_router, uint(- 1));\r\n    }\r\n\r\n    function start(uint _period) public onlyOwner {\r\n        paused = false;\r\n        period = _period;\r\n        endtime = block.timestamp.add(period);\r\n        currentRepo = newRepo;\r\n        usdcPool.usdcPerTime = currentRepo.mul(1e18).div(period * 4);\r\n        usdcPool.wkUnit[0] = usdcPool.usdcPerTime;\r\n        newRepo = 0;\r\n    }\r\n\r\n    function stopPool(uint _pid) public onlyOwner {\r\n        skipPool[_pid] = !skipPool[_pid];\r\n        //toggle\r\n    }\r\n\r\n    function pause(bool _paused) public onlyOwner {\r\n        paused = _paused;\r\n    }\r\n\r\n    function setPeriod(uint _period) public onlyOwner {\r\n        period = _period;\r\n    }\r\n\r\n    function setMin(uint _entryMin) public onlyOwner {\r\n        entryMin = _entryMin;\r\n    }\r\n\r\n    function disableCompound(uint _pid, bool _disable) public onlyOwner {\r\n        poolInfo[_pid].disableCompound = _disable;\r\n    }\r\n\r\n    function setApprovedContract(address _contract, bool _status)\r\n    external\r\n    onlyOwner\r\n    {\r\n        approvedContracts[_contract] = _status;\r\n    }\r\n\r\n}\r\n",
  "sourcePath": "C:\\defi\\bitdeep\\hermesdefi\\masterchef-bank\\contracts\\Bank.sol",
  "compiler": {
    "name": "solc",
    "version": "0.6.12+commit.27d51765.Emscripten.clang"
  },
  "schemaVersion": "3.4.3",
  "updatedAt": "2021-10-20T23:01:06.481Z",
  "devdoc": {
    "kind": "dev",
    "methods": {
      "owner()": {
        "details": "Returns the address of the current owner."
      },
      "renounceOwnership()": {
        "details": "Leaves the contract without owner. It will not be possible to call `onlyOwner` functions anymore. Can only be called by the current owner. NOTE: Renouncing ownership will leave the contract without an owner, thereby removing any functionality that is only available to the owner."
      },
      "transferOwnership(address)": {
        "details": "Transfers ownership of the contract to a new account (`newOwner`). Can only be called by the current owner."
      }
    },
    "version": 1
  },
  "userdoc": {
    "kind": "user",
    "methods": {
      "userInfo(address)": {
        "notice": "Variables "
      },
      "userinfo(address)": {
        "notice": "View functions  "
      }
    },
    "version": 1
  }
}