{
  "contractName": "MasterChef",
  "abi": [
    {
      "inputs": [
        {
          "internalType": "contract ApolloToken",
          "name": "_apollo",
          "type": "address"
        },
        {
          "internalType": "uint256",
          "name": "_startBlock",
          "type": "uint256"
        },
        {
          "internalType": "address",
          "name": "_devAddress",
          "type": "address"
        },
        {
          "internalType": "address",
          "name": "_feeAddress",
          "type": "address"
        }
      ],
      "stateMutability": "nonpayable",
      "type": "constructor"
    },
    {
      "anonymous": false,
      "inputs": [
        {
          "indexed": true,
          "internalType": "address",
          "name": "user",
          "type": "address"
        },
        {
          "indexed": true,
          "internalType": "uint256",
          "name": "pid",
          "type": "uint256"
        },
        {
          "indexed": false,
          "internalType": "uint256",
          "name": "amount",
          "type": "uint256"
        }
      ],
      "name": "Deposit",
      "type": "event"
    },
    {
      "anonymous": false,
      "inputs": [
        {
          "indexed": true,
          "internalType": "address",
          "name": "user",
          "type": "address"
        },
        {
          "indexed": true,
          "internalType": "uint256",
          "name": "pid",
          "type": "uint256"
        },
        {
          "indexed": false,
          "internalType": "uint256",
          "name": "amount",
          "type": "uint256"
        }
      ],
      "name": "EmergencyWithdraw",
      "type": "event"
    },
    {
      "anonymous": false,
      "inputs": [
        {
          "indexed": true,
          "internalType": "address",
          "name": "previousOwner",
          "type": "address"
        },
        {
          "indexed": true,
          "internalType": "address",
          "name": "newOwner",
          "type": "address"
        }
      ],
      "name": "OwnershipTransferred",
      "type": "event"
    },
    {
      "anonymous": false,
      "inputs": [
        {
          "indexed": true,
          "internalType": "address",
          "name": "user",
          "type": "address"
        },
        {
          "indexed": false,
          "internalType": "contract IERC20",
          "name": "lpToken",
          "type": "address"
        },
        {
          "indexed": false,
          "internalType": "uint256",
          "name": "allocPoint",
          "type": "uint256"
        },
        {
          "indexed": false,
          "internalType": "uint256",
          "name": "lastRewardBlock",
          "type": "uint256"
        },
        {
          "indexed": false,
          "internalType": "uint16",
          "name": "depositFeeBP",
          "type": "uint16"
        }
      ],
      "name": "PoolAdd",
      "type": "event"
    },
    {
      "anonymous": false,
      "inputs": [
        {
          "indexed": true,
          "internalType": "address",
          "name": "user",
          "type": "address"
        },
        {
          "indexed": false,
          "internalType": "contract IERC20",
          "name": "lpToken",
          "type": "address"
        },
        {
          "indexed": false,
          "internalType": "uint256",
          "name": "allocPoint",
          "type": "uint256"
        },
        {
          "indexed": false,
          "internalType": "uint256",
          "name": "lastRewardBlock",
          "type": "uint256"
        },
        {
          "indexed": false,
          "internalType": "uint16",
          "name": "depositFeeBP",
          "type": "uint16"
        }
      ],
      "name": "PoolSet",
      "type": "event"
    },
    {
      "anonymous": false,
      "inputs": [
        {
          "indexed": true,
          "internalType": "address",
          "name": "user",
          "type": "address"
        },
        {
          "indexed": true,
          "internalType": "address",
          "name": "referrer",
          "type": "address"
        },
        {
          "indexed": false,
          "internalType": "uint256",
          "name": "commissionAmount",
          "type": "uint256"
        }
      ],
      "name": "ReferralCommissionPaid",
      "type": "event"
    },
    {
      "anonymous": false,
      "inputs": [
        {
          "indexed": true,
          "internalType": "address",
          "name": "user",
          "type": "address"
        },
        {
          "indexed": true,
          "internalType": "address",
          "name": "newAddress",
          "type": "address"
        }
      ],
      "name": "SetDevAddress",
      "type": "event"
    },
    {
      "anonymous": false,
      "inputs": [
        {
          "indexed": true,
          "internalType": "address",
          "name": "user",
          "type": "address"
        },
        {
          "indexed": true,
          "internalType": "address",
          "name": "newAddress",
          "type": "address"
        }
      ],
      "name": "SetFeeAddress",
      "type": "event"
    },
    {
      "anonymous": false,
      "inputs": [
        {
          "indexed": true,
          "internalType": "address",
          "name": "user",
          "type": "address"
        },
        {
          "indexed": true,
          "internalType": "contract IReferral",
          "name": "newAddress",
          "type": "address"
        }
      ],
      "name": "SetReferralAddress",
      "type": "event"
    },
    {
      "anonymous": false,
      "inputs": [
        {
          "indexed": true,
          "internalType": "address",
          "name": "user",
          "type": "address"
        },
        {
          "indexed": false,
          "internalType": "uint16",
          "name": "referralCommmissionRate",
          "type": "uint16"
        }
      ],
      "name": "SetReferralCommissionRate",
      "type": "event"
    },
    {
      "anonymous": false,
      "inputs": [
        {
          "indexed": true,
          "internalType": "address",
          "name": "user",
          "type": "address"
        },
        {
          "indexed": false,
          "internalType": "uint256",
          "name": "apolloPerBlock",
          "type": "uint256"
        }
      ],
      "name": "UpdateEmissionRate",
      "type": "event"
    },
    {
      "anonymous": false,
      "inputs": [
        {
          "indexed": true,
          "internalType": "address",
          "name": "user",
          "type": "address"
        },
        {
          "indexed": false,
          "internalType": "uint256",
          "name": "startBlock",
          "type": "uint256"
        }
      ],
      "name": "UpdateStartBlock",
      "type": "event"
    },
    {
      "anonymous": false,
      "inputs": [
        {
          "indexed": true,
          "internalType": "address",
          "name": "user",
          "type": "address"
        },
        {
          "indexed": true,
          "internalType": "uint256",
          "name": "pid",
          "type": "uint256"
        },
        {
          "indexed": false,
          "internalType": "uint256",
          "name": "amount",
          "type": "uint256"
        }
      ],
      "name": "Withdraw",
      "type": "event"
    },
    {
      "inputs": [],
      "name": "MAXIMUM_EMISSION_RATE",
      "outputs": [
        {
          "internalType": "uint256",
          "name": "",
          "type": "uint256"
        }
      ],
      "stateMutability": "view",
      "type": "function"
    },
    {
      "inputs": [],
      "name": "MAXIMUM_REFERRAL_COMMISSION_RATE",
      "outputs": [
        {
          "internalType": "uint16",
          "name": "",
          "type": "uint16"
        }
      ],
      "stateMutability": "view",
      "type": "function"
    },
    {
      "inputs": [],
      "name": "apollo",
      "outputs": [
        {
          "internalType": "contract ApolloToken",
          "name": "",
          "type": "address"
        }
      ],
      "stateMutability": "view",
      "type": "function"
    },
    {
      "inputs": [],
      "name": "apolloPerBlock",
      "outputs": [
        {
          "internalType": "uint256",
          "name": "",
          "type": "uint256"
        }
      ],
      "stateMutability": "view",
      "type": "function"
    },
    {
      "inputs": [],
      "name": "devAddress",
      "outputs": [
        {
          "internalType": "address",
          "name": "",
          "type": "address"
        }
      ],
      "stateMutability": "view",
      "type": "function"
    },
    {
      "inputs": [],
      "name": "feeAddress",
      "outputs": [
        {
          "internalType": "address",
          "name": "",
          "type": "address"
        }
      ],
      "stateMutability": "view",
      "type": "function"
    },
    {
      "inputs": [],
      "name": "owner",
      "outputs": [
        {
          "internalType": "address",
          "name": "",
          "type": "address"
        }
      ],
      "stateMutability": "view",
      "type": "function"
    },
    {
      "inputs": [
        {
          "internalType": "contract IERC20",
          "name": "",
          "type": "address"
        }
      ],
      "name": "poolExistence",
      "outputs": [
        {
          "internalType": "bool",
          "name": "",
          "type": "bool"
        }
      ],
      "stateMutability": "view",
      "type": "function"
    },
    {
      "inputs": [
        {
          "internalType": "uint256",
          "name": "",
          "type": "uint256"
        }
      ],
      "name": "poolInfo",
      "outputs": [
        {
          "internalType": "contract IERC20",
          "name": "lpToken",
          "type": "address"
        },
        {
          "internalType": "uint256",
          "name": "allocPoint",
          "type": "uint256"
        },
        {
          "internalType": "uint256",
          "name": "lastRewardBlock",
          "type": "uint256"
        },
        {
          "internalType": "uint256",
          "name": "accApolloPerShare",
          "type": "uint256"
        },
        {
          "internalType": "uint16",
          "name": "depositFeeBP",
          "type": "uint16"
        },
        {
          "internalType": "uint256",
          "name": "lpSupply",
          "type": "uint256"
        }
      ],
      "stateMutability": "view",
      "type": "function"
    },
    {
      "inputs": [],
      "name": "referral",
      "outputs": [
        {
          "internalType": "contract IReferral",
          "name": "",
          "type": "address"
        }
      ],
      "stateMutability": "view",
      "type": "function"
    },
    {
      "inputs": [],
      "name": "referralCommissionRate",
      "outputs": [
        {
          "internalType": "uint16",
          "name": "",
          "type": "uint16"
        }
      ],
      "stateMutability": "view",
      "type": "function"
    },
    {
      "inputs": [],
      "name": "renounceOwnership",
      "outputs": [],
      "stateMutability": "nonpayable",
      "type": "function"
    },
    {
      "inputs": [],
      "name": "startBlock",
      "outputs": [
        {
          "internalType": "uint256",
          "name": "",
          "type": "uint256"
        }
      ],
      "stateMutability": "view",
      "type": "function"
    },
    {
      "inputs": [],
      "name": "totalAllocPoint",
      "outputs": [
        {
          "internalType": "uint256",
          "name": "",
          "type": "uint256"
        }
      ],
      "stateMutability": "view",
      "type": "function"
    },
    {
      "inputs": [
        {
          "internalType": "address",
          "name": "newOwner",
          "type": "address"
        }
      ],
      "name": "transferOwnership",
      "outputs": [],
      "stateMutability": "nonpayable",
      "type": "function"
    },
    {
      "inputs": [
        {
          "internalType": "uint256",
          "name": "",
          "type": "uint256"
        },
        {
          "internalType": "address",
          "name": "",
          "type": "address"
        }
      ],
      "name": "userInfo",
      "outputs": [
        {
          "internalType": "uint256",
          "name": "amount",
          "type": "uint256"
        },
        {
          "internalType": "uint256",
          "name": "rewardDebt",
          "type": "uint256"
        }
      ],
      "stateMutability": "view",
      "type": "function"
    },
    {
      "inputs": [],
      "name": "poolLength",
      "outputs": [
        {
          "internalType": "uint256",
          "name": "",
          "type": "uint256"
        }
      ],
      "stateMutability": "view",
      "type": "function"
    },
    {
      "inputs": [
        {
          "internalType": "uint256",
          "name": "_allocPoint",
          "type": "uint256"
        },
        {
          "internalType": "contract IERC20",
          "name": "_lpToken",
          "type": "address"
        },
        {
          "internalType": "uint16",
          "name": "_depositFeeBP",
          "type": "uint16"
        }
      ],
      "name": "add",
      "outputs": [],
      "stateMutability": "nonpayable",
      "type": "function"
    },
    {
      "inputs": [
        {
          "internalType": "uint256",
          "name": "_pid",
          "type": "uint256"
        },
        {
          "internalType": "uint256",
          "name": "_allocPoint",
          "type": "uint256"
        },
        {
          "internalType": "uint16",
          "name": "_depositFeeBP",
          "type": "uint16"
        }
      ],
      "name": "set",
      "outputs": [],
      "stateMutability": "nonpayable",
      "type": "function"
    },
    {
      "inputs": [
        {
          "internalType": "uint256",
          "name": "_from",
          "type": "uint256"
        },
        {
          "internalType": "uint256",
          "name": "_to",
          "type": "uint256"
        }
      ],
      "name": "getMultiplier",
      "outputs": [
        {
          "internalType": "uint256",
          "name": "",
          "type": "uint256"
        }
      ],
      "stateMutability": "view",
      "type": "function"
    },
    {
      "inputs": [
        {
          "internalType": "uint256",
          "name": "_pid",
          "type": "uint256"
        },
        {
          "internalType": "address",
          "name": "_user",
          "type": "address"
        }
      ],
      "name": "pendingApollo",
      "outputs": [
        {
          "internalType": "uint256",
          "name": "",
          "type": "uint256"
        }
      ],
      "stateMutability": "view",
      "type": "function"
    },
    {
      "inputs": [],
      "name": "massUpdatePools",
      "outputs": [],
      "stateMutability": "nonpayable",
      "type": "function"
    },
    {
      "inputs": [
        {
          "internalType": "uint256",
          "name": "_pid",
          "type": "uint256"
        }
      ],
      "name": "updatePool",
      "outputs": [],
      "stateMutability": "nonpayable",
      "type": "function"
    },
    {
      "inputs": [
        {
          "internalType": "uint256",
          "name": "_pid",
          "type": "uint256"
        },
        {
          "internalType": "uint256",
          "name": "_amount",
          "type": "uint256"
        },
        {
          "internalType": "address",
          "name": "_referrer",
          "type": "address"
        }
      ],
      "name": "deposit",
      "outputs": [],
      "stateMutability": "nonpayable",
      "type": "function"
    },
    {
      "inputs": [
        {
          "internalType": "uint256",
          "name": "_pid",
          "type": "uint256"
        },
        {
          "internalType": "uint256",
          "name": "_amount",
          "type": "uint256"
        }
      ],
      "name": "withdraw",
      "outputs": [],
      "stateMutability": "nonpayable",
      "type": "function"
    },
    {
      "inputs": [
        {
          "internalType": "uint256",
          "name": "_pid",
          "type": "uint256"
        }
      ],
      "name": "emergencyWithdraw",
      "outputs": [],
      "stateMutability": "nonpayable",
      "type": "function"
    },
    {
      "inputs": [
        {
          "internalType": "address",
          "name": "_devAddress",
          "type": "address"
        }
      ],
      "name": "setDevAddress",
      "outputs": [],
      "stateMutability": "nonpayable",
      "type": "function"
    },
    {
      "inputs": [
        {
          "internalType": "address",
          "name": "_feeAddress",
          "type": "address"
        }
      ],
      "name": "setFeeAddress",
      "outputs": [],
      "stateMutability": "nonpayable",
      "type": "function"
    },
    {
      "inputs": [
        {
          "internalType": "uint256",
          "name": "_apolloPerBlock",
          "type": "uint256"
        }
      ],
      "name": "updateEmissionRate",
      "outputs": [],
      "stateMutability": "nonpayable",
      "type": "function"
    },
    {
      "inputs": [
        {
          "internalType": "contract IReferral",
          "name": "_referral",
          "type": "address"
        }
      ],
      "name": "setReferralAddress",
      "outputs": [],
      "stateMutability": "nonpayable",
      "type": "function"
    },
    {
      "inputs": [
        {
          "internalType": "uint16",
          "name": "_referralCommissionRate",
          "type": "uint16"
        }
      ],
      "name": "setReferralCommissionRate",
      "outputs": [],
      "stateMutability": "nonpayable",
      "type": "function"
    },
    {
      "inputs": [
        {
          "internalType": "uint256",
          "name": "_startBlock",
          "type": "uint256"
        }
      ],
      "name": "updateStartBlock",
      "outputs": [],
      "stateMutability": "nonpayable",
      "type": "function"
    }
  ],
  "bytecode": "0x608060405267058d15e1762800006005556000600855600a805461ffff60a01b1916601960a31b1760ff60b01b191690553480156200003d57600080fd5b5060405162002e5538038062002e55833981810160405260808110156200006357600080fd5b50805160208201516040830151606090930151919290916000620000866200018f565b600080546001600160a01b0319166001600160a01b0383169081178255604051929350917f8be0079c531659141344cd1fd0a4f28419497f9722a3daafe3b4186f6b6457e0908290a35060018055600280546001600160a01b038087166001600160a01b03199283161792839055600986905560038054868316908416179055600480548583169316929092178255604080516370a0823160e01b81523093810193909352519216916370a0823191602480820192602092909190829003018186803b1580156200015657600080fd5b505afa1580156200016b573d6000803e3d6000fd5b505050506040513d60208110156200018257600080fd5b5062000193945050505050565b3390565b612cb280620001a36000396000f3fe608060405234801561001057600080fd5b50600436106101f05760003560e01c8063630b5ba11161010f578063aeb4eb04116100a2578063d30ef61b11610071578063d30ef61b1461056a578063da7b65b814610572578063f2fde38b1461057a578063fac2b9ba146105a0576101f0565b8063aeb4eb04146104dc578063b3caba5a146104e4578063cbd258b51461050a578063d0d41fe114610544576101f0565b80638da5cb5b116100de5780638da5cb5b1461043a5780638dbb1e3a146104425780638dbdbe6d1461046557806393f1a40b14610497576101f0565b8063630b5ba1146103fc5780636eed6a2c14610404578063715018a61461040c5780638705fcd414610414576101f0565b8063412753581161018757806348cd4cb11161015657806348cd4cb11461039957806351eb05a6146103a15780635312ea8e146103be57806355dbc826146103db576101f0565b80634127535814610323578063441a3e701461032b5780634613fa611461034e57806348b22bfb1461037a576101f0565b80631526fe27116101c35780631526fe271461028857806317caf6f1146102e657806324bcb38c146102ee5780633ad10ef61461031b576101f0565b806306539275146101f5578063081e3eda1461022d5780630ba84cd2146102475780631441a5a914610264575b600080fd5b61022b6004803603606081101561020b57600080fd5b5080359060208101356001600160a01b0316906040013561ffff166105bd565b005b610235610999565b60408051918252519081900360200190f35b61022b6004803603602081101561025d57600080fd5b503561099f565b61026c610a85565b604080516001600160a01b039092168252519081900360200190f35b6102a56004803603602081101561029e57600080fd5b5035610a94565b604080516001600160a01b039097168752602087019590955285850193909352606085019190915261ffff16608084015260a0830152519081900360c00190f35b610235610ae8565b61022b6004803603606081101561030457600080fd5b508035906020810135906040013561ffff16610aee565b61026c610cdc565b61026c610ceb565b61022b6004803603604081101561034157600080fd5b5080359060200135610cfa565b6102356004803603604081101561036457600080fd5b50803590602001356001600160a01b0316610ee2565b610382610ffc565b6040805161ffff9092168252519081900360200190f35b610235611002565b61022b600480360360208110156103b757600080fd5b5035611008565b61022b600480360360208110156103d457600080fd5b50356113d5565b61022b600480360360208110156103f157600080fd5b503561ffff166114e5565b61022b6115db565b6102356115fe565b61022b61160a565b61022b6004803603602081101561042a57600080fd5b50356001600160a01b03166116ac565b61026c611796565b6102356004803603604081101561045857600080fd5b50803590602001356117a5565b61022b6004803603606081101561047b57600080fd5b50803590602081013590604001356001600160a01b031661184a565b6104c3600480360360408110156104ad57600080fd5b50803590602001356001600160a01b0316611c6e565b6040805192835260208301919091528051918290030190f35b610235611c92565b61022b600480360360208110156104fa57600080fd5b50356001600160a01b0316611c98565b6105306004803603602081101561052057600080fd5b50356001600160a01b0316611d93565b604080519115158252519081900360200190f35b61022b6004803603602081101561055a57600080fd5b50356001600160a01b0316611da8565b610382611e92565b61026c611ea3565b61022b6004803603602081101561059057600080fd5b50356001600160a01b0316611eb2565b61022b600480360360208110156105b657600080fd5b5035611faa565b6105c56120cb565b6000546001600160a01b03908116911614610615576040805162461bcd60e51b81526020600482018190526024820152600080516020612c03833981519152604482015290519081900360640190fd5b6001600160a01b0382166000908152600b6020526040902054829060ff1615610685576040805162461bcd60e51b815260206004820152601960248201527f6e6f6e4475706c6963617465643a206475706c69636174656400000000000000604482015290519081900360640190fd5b604080516370a0823160e01b815230600482015290516001600160a01b038516916370a08231916024808301926020929190829003018186803b1580156106cb57600080fd5b505afa1580156106df573d6000803e3d6000fd5b505050506040513d60208110156106f557600080fd5b50506101f461ffff8316111561073c5760405162461bcd60e51b8152600401808060200182810382526025815260200180612b076025913960400191505060405180910390fd5b604080516370a0823160e01b815230600482015290516001600160a01b038516916370a08231916024808301926020929190829003018186803b15801561078257600080fd5b505afa158015610796573d6000803e3d6000fd5b505050506040513d60208110156107ac57600080fd5b505060095460009043116107c2576009546107c4565b435b6008549091506107d490866120cf565b6008556001600160a01b038481166000818152600b602090815260408083208054600160ff199091168117909155815160c0810183528581528084018c8152818401898152606080840188815261ffff8e8116608080880182815260a089018d8152600680549b8c0181559d8e905298517ff652222313e28459528d920b65115c16c04f3efc82aaedc97be59f3f377c0d3f9a909d02998a0180546001600160a01b0319169d909f169c909c17909d5594517ff652222313e28459528d920b65115c16c04f3efc82aaedc97be59f3f377c0d4088015592517ff652222313e28459528d920b65115c16c04f3efc82aaedc97be59f3f377c0d41870155517ff652222313e28459528d920b65115c16c04f3efc82aaedc97be59f3f377c0d4286015596517ff652222313e28459528d920b65115c16c04f3efc82aaedc97be59f3f377c0d438501805461ffff19169190921617905590517ff652222313e28459528d920b65115c16c04f3efc82aaedc97be59f3f377c0d449092019190915581519485529184018a9052838101869052918301525133927fa2c51573880fb2ac3b22bb2584e1c8972b7baf3928d9abbf230c500de25e84fa928290030190a25050505050565b60065490565b6109a76120cb565b6000546001600160a01b039081169116146109f7576040805162461bcd60e51b81526020600482018190526024820152600080516020612c03833981519152604482015290519081900360640190fd5b670de0b6b3a7640000811115610a3f576040805162461bcd60e51b81526020600482015260086024820152670a8dede4090d2ced60c31b604482015290519081900360640190fd5b610a476115db565b600581905560408051828152905133917fe2492e003bbe8afa53088b406f0c1cb5d9e280370fc72a74cf116ffd343c4053919081900360200190a250565b600a546001600160a01b031681565b60068181548110610aa157fe5b60009182526020909120600690910201805460018201546002830154600384015460048501546005909501546001600160a01b0390941695509193909261ffff9091169086565b60085481565b610af66120cb565b6000546001600160a01b03908116911614610b46576040805162461bcd60e51b81526020600482018190526024820152600080516020612c03833981519152604482015290519081900360640190fd5b6101f48161ffff161115610b8b5760405162461bcd60e51b8152600401808060200182810382526025815260200180612bde6025913960400191505060405180910390fd5b610bc882610bc260068681548110610b9f57fe5b90600052602060002090600602016001015460085461212990919063ffffffff16565b906120cf565b6008819055508160068481548110610bdc57fe5b9060005260206000209060060201600101819055508060068481548110610bff57fe5b906000526020600020906006020160040160006101000a81548161ffff021916908361ffff160217905550336001600160a01b03167f6b15d9ccfec36c187bb7ca9613a8be7a7367d3fc401d1efdea721d6c4567395e60068581548110610c6257fe5b600091825260209091206006918202015481546001600160a01b0390911691869188908110610c8d57fe5b9060005260206000209060060201600201548560405180856001600160a01b031681526020018481526020018381526020018261ffff16815260200194505050505060405180910390a2505050565b6003546001600160a01b031681565b6004546001600160a01b031681565b60026001541415610d52576040805162461bcd60e51b815260206004820152601f60248201527f5265656e7472616e637947756172643a207265656e7472616e742063616c6c00604482015290519081900360640190fd5b6002600181905550600060068381548110610d6957fe5b600091825260208083208684526007825260408085203386529092529220805460069092029092019250831115610ddc576040805162461bcd60e51b81526020600482015260126024820152711dda5d1a191c985dce881b9bdd0819dbdbd960721b604482015290519081900360640190fd5b610de584611008565b6000610e228260010154610e1c670de0b6b3a7640000610e168760030154876000015461216b90919063ffffffff16565b906121c4565b90612129565b90508015610e3e57610e343382612206565b610e3e33826123d9565b8315610e7d578154610e509085612129565b82558254610e68906001600160a01b0316338661271e565b6005830154610e779085612129565b60058401555b60038301548254610e9b91670de0b6b3a764000091610e169161216b565b6001830155604080518581529051869133917ff279e6a1f5e320cca91135676d9cb6e44ca8a08c0b88342bcdb1144f6511b5689181900360200190a3505060018055505050565b60008060068481548110610ef257fe5b600091825260208083208784526007825260408085206001600160a01b03891686529092529220600360069092029092019081015460028201549193509043118015610f415750600583015415155b8015610f4f57506000600854115b15610fc5576000610f648460020154436117a5565b90506000610f91600854610e168760010154610f8b6005548761216b90919063ffffffff16565b9061216b565b9050610fc0610fb98660050154610e16670de0b6b3a76400008561216b90919063ffffffff16565b84906120cf565b925050505b610ff08260010154610e1c670de0b6b3a7640000610e1685876000015461216b90919063ffffffff16565b93505050505b92915050565b6101f481565b60095481565b60006006828154811061101757fe5b906000526020600020906006020190508060020154431161103857506113d2565b6005810154158061104b57506001810154155b1561105c57436002909101556113d2565b600061106c8260020154436117a5565b90506000611093600854610e168560010154610f8b6005548761216b90919063ffffffff16565b905069d3c21bcecceda10000006111336110b36064610e1685606961216b565b600260009054906101000a90046001600160a01b03166001600160a01b03166318160ddd6040518163ffffffff1660e01b815260040160206040518083038186803b15801561110157600080fd5b505afa158015611115573d6000803e3d6000fd5b505050506040513d602081101561112b57600080fd5b5051906120cf565b1161122a576002546003546001600160a01b03918216916340c10f19911661115c8460146121c4565b6040518363ffffffff1660e01b815260040180836001600160a01b0316815260200182815260200192505050600060405180830381600087803b1580156111a257600080fd5b505af11580156111b6573d6000803e3d6000fd5b5050600254604080516340c10f1960e01b81523060048201526024810186905290516001600160a01b0390921693506340c10f19925060448082019260009290919082900301818387803b15801561120d57600080fd5b505af1158015611221573d6000803e3d6000fd5b50505050611399565b600254604080516318160ddd60e01b8152905169d3c21bcecceda1000000926001600160a01b0316916318160ddd916004808301926020929190829003018186803b15801561127857600080fd5b505afa15801561128c573d6000803e3d6000fd5b505050506040513d60208110156112a257600080fd5b5051101561139957600254604080516318160ddd60e01b815290516001600160a01b03909216916340c10f1991309161133a9185916318160ddd91600480820192602092909190829003018186803b1580156112fd57600080fd5b505afa158015611311573d6000803e3d6000fd5b505050506040513d602081101561132757600080fd5b505169d3c21bcecceda100000090612129565b6040518363ffffffff1660e01b815260040180836001600160a01b0316815260200182815260200192505050600060405180830381600087803b15801561138057600080fd5b505af1158015611394573d6000803e3d6000fd5b505050505b60058301546113c3906113b890610e1684670de0b6b3a764000061216b565b6003850154906120cf565b60038401555050436002909101555b50565b6002600154141561142d576040805162461bcd60e51b815260206004820152601f60248201527f5265656e7472616e637947756172643a207265656e7472616e742063616c6c00604482015290519081900360640190fd5b600260018190555060006006828154811061144457fe5b6000918252602080832085845260078252604080852033865290925292208054600692909202909201600581015490935061147f9082612129565b60058401556000808355600183015582546114a4906001600160a01b0316338361271e565b604080518281529051859133917fbb757047c2b5f3974fe26b7c10f732e7bce710b0952a71082702781e62ae05959181900360200190a35050600180555050565b6114ed6120cb565b6000546001600160a01b0390811691161461153d576040805162461bcd60e51b81526020600482018190526024820152600080516020612c03833981519152604482015290519081900360640190fd5b6101f461ffff821611156115825760405162461bcd60e51b8152600401808060200182810382526048815260200180612b2c6048913960600191505060405180910390fd5b600a805461ffff8316600160a01b810261ffff60a01b1990921691909117909155604080519182525133917f59918637b45c88e8896129fc8b400ddc6729ae5c8f2590514684dde0f7877ebc919081900360200190a250565b60065460005b818110156115fa576115f281611008565b6001016115e1565b5050565b670de0b6b3a764000081565b6116126120cb565b6000546001600160a01b03908116911614611662576040805162461bcd60e51b81526020600482018190526024820152600080516020612c03833981519152604482015290519081900360640190fd5b600080546040516001600160a01b03909116907f8be0079c531659141344cd1fd0a4f28419497f9722a3daafe3b4186f6b6457e0908390a3600080546001600160a01b0319169055565b6116b46120cb565b6000546001600160a01b03908116911614611704576040805162461bcd60e51b81526020600482018190526024820152600080516020612c03833981519152604482015290519081900360640190fd5b6001600160a01b03811661174a576040805162461bcd60e51b8152602060048201526008602482015267216e6f6e7a65726f60c01b604482015290519081900360640190fd5b600480546001600160a01b0319166001600160a01b03831690811790915560405133907fd44190acf9d04bdb5d3a1aafff7e6dee8b40b93dfb8c5d3f0eea4b9f4539c3f790600090a350565b6000546001600160a01b031690565b600069d3c21bcecceda1000000600260009054906101000a90046001600160a01b03166001600160a01b03166318160ddd6040518163ffffffff1660e01b815260040160206040518083038186803b15801561180057600080fd5b505afa158015611814573d6000803e3d6000fd5b505050506040513d602081101561182a57600080fd5b50511061183957506000610ff6565b6118438284612129565b9392505050565b600260015414156118a2576040805162461bcd60e51b815260206004820152601f60248201527f5265656e7472616e637947756172643a207265656e7472616e742063616c6c00604482015290519081900360640190fd5b60026001819055506000600684815481106118b957fe5b600091825260208083208784526007825260408085203386529092529220600690910290910191506118ea85611008565b6000841180156119045750600a546001600160a01b031615155b801561191857506001600160a01b03831615155b801561192d57506001600160a01b0383163314155b1561199f57600a5460408051630c7f7b6b60e01b81523360048201526001600160a01b03868116602483015291519190921691630c7f7b6b91604480830192600092919082900301818387803b15801561198657600080fd5b505af115801561199a573d6000803e3d6000fd5b505050505b8054156119f55760006119d78260010154610e1c670de0b6b3a7640000610e168760030154876000015461216b90919063ffffffff16565b905080156119f3576119e93382612206565b6119f333826123d9565b505b8315611c09578154604080516370a0823160e01b815230600482015290516000926001600160a01b0316916370a08231916024808301926020929190829003018186803b158015611a4557600080fd5b505afa158015611a59573d6000803e3d6000fd5b505050506040513d6020811015611a6f57600080fd5b50518354909150611a8b906001600160a01b0316333088612775565b8254604080516370a0823160e01b81523060048201529051611b0d9284926001600160a01b03909116916370a0823191602480820192602092909190829003018186803b158015611adb57600080fd5b505afa158015611aef573d6000803e3d6000fd5b505050506040513d6020811015611b0557600080fd5b505190612129565b945060008511611b64576040805162461bcd60e51b815260206004820152601c60248201527f776520646f6e7420616363657074206465706f73697473206f66203000000000604482015290519081900360640190fd5b600483015461ffff1615611be4576004830154600090611b919061271090610e1690899061ffff1661216b565b6004548554919250611bb0916001600160a01b0390811691168361271e565b8254611bc2908290610e1c90896120cf565b83556005840154611bd9908290610e1c90896120cf565b600585015550611c07565b8154611bf090866120cf565b82556005830154611c0190866120cf565b60058401555b505b60038201548154611c2791670de0b6b3a764000091610e169161216b565b6001820155604080518581529051869133917f90890809c654f11d6e72a28fa60149770a0d11ec6c92319d6ceb2bb0a4ea1a159181900360200190a3505060018055505050565b60076020908152600092835260408084209091529082529020805460019091015482565b60055481565b611ca06120cb565b6000546001600160a01b03908116911614611cf0576040805162461bcd60e51b81526020600482018190526024820152600080516020612c03833981519152604482015290519081900360640190fd5b600a54600160b01b900460ff1615611d395760405162461bcd60e51b8152600401808060200182810382526030815260200180612c236030913960400191505060405180910390fd5b600a805460ff60b01b196001600160a01b0384166001600160a01b0319909216821716600160b01b1790915560405133907fee63201fedda9e28e92efef9abb99bd9d2f90208a4fd0d0186c14daf364a273190600090a350565b600b6020526000908152604090205460ff1681565b611db06120cb565b6000546001600160a01b03908116911614611e00576040805162461bcd60e51b81526020600482018190526024820152600080516020612c03833981519152604482015290519081900360640190fd5b6001600160a01b038116611e46576040805162461bcd60e51b8152602060048201526008602482015267216e6f6e7a65726f60c01b604482015290519081900360640190fd5b600380546001600160a01b0319166001600160a01b03831690811790915560405133907f618c54559e94f1499a808aad71ee8729f8e74e8c48e979616328ce493a1a52e790600090a350565b600a54600160a01b900461ffff1681565b6002546001600160a01b031681565b611eba6120cb565b6000546001600160a01b03908116911614611f0a576040805162461bcd60e51b81526020600482018190526024820152600080516020612c03833981519152604482015290519081900360640190fd5b6001600160a01b038116611f4f5760405162461bcd60e51b8152600401808060200182810382526026815260200180612b746026913960400191505060405180910390fd5b600080546040516001600160a01b03808516939216917f8be0079c531659141344cd1fd0a4f28419497f9722a3daafe3b4186f6b6457e091a3600080546001600160a01b0319166001600160a01b0392909216919091179055565b611fb26120cb565b6000546001600160a01b03908116911614612002576040805162461bcd60e51b81526020600482018190526024820152600080516020612c03833981519152604482015290519081900360640190fd5b436009541161204f576040805162461bcd60e51b815260206004820152601460248201527311985c9b48185b1c9958591e481cdd185c9d195960621b604482015290519081900360640190fd5b60065460005b8181101561208b5760006006828154811061206c57fe5b6000918252602090912060026006909202010184905550600101612055565b50600982905560408051838152905133917f3eb4ecd5fe1c1fb419227f1ed2015b7c67d3867f237683c50a2192b6ceabe016919081900360200190a25050565b3390565b600082820183811015611843576040805162461bcd60e51b815260206004820152601b60248201527f536166654d6174683a206164646974696f6e206f766572666c6f770000000000604482015290519081900360640190fd5b600061184383836040518060400160405280601e81526020017f536166654d6174683a207375627472616374696f6e206f766572666c6f7700008152506127cf565b60008261217a57506000610ff6565b8282028284828161218757fe5b04146118435760405162461bcd60e51b8152600401808060200182810382526021815260200180612bbd6021913960400191505060405180910390fd5b600061184383836040518060400160405280601a81526020017f536166654d6174683a206469766973696f6e206279207a65726f000000000000815250612866565b600254604080516370a0823160e01b815230600482015290516000926001600160a01b0316916370a08231916024808301926020929190829003018186803b15801561225157600080fd5b505afa158015612265573d6000803e3d6000fd5b505050506040513d602081101561227b57600080fd5b50519050600081831115612312576002546040805163a9059cbb60e01b81526001600160a01b038781166004830152602482018690529151919092169163a9059cbb9160448083019260209291908290030181600087803b1580156122df57600080fd5b505af11580156122f3573d6000803e3d6000fd5b505050506040513d602081101561230957600080fd5b50519050612397565b6002546040805163a9059cbb60e01b81526001600160a01b038781166004830152602482018790529151919092169163a9059cbb9160448083019260209291908290030181600087803b15801561236857600080fd5b505af115801561237c573d6000803e3d6000fd5b505050506040513d602081101561239257600080fd5b505190505b806123d35760405162461bcd60e51b8152600401808060200182810382526023815260200180612b9a6023913960400191505060405180910390fd5b50505050565b600a546001600160a01b0316158015906123ff5750600a54600160a01b900461ffff1615155b156115fa57600a5460408051634a9fefc760e01b81526001600160a01b03858116600483015291516000939290921691634a9fefc791602480820192602092909190829003018186803b15801561245557600080fd5b505afa158015612469573d6000803e3d6000fd5b505050506040513d602081101561247f57600080fd5b5051600a549091506000906124a89061271090610e16908690600160a01b900461ffff1661216b565b90506001600160a01b038216158015906124c25750600081115b156123d35769d3c21bcecceda100000061252482600260009054906101000a90046001600160a01b03166001600160a01b03166318160ddd6040518163ffffffff1660e01b815260040160206040518083038186803b15801561110157600080fd5b1161259b57600254604080516340c10f1960e01b81526001600160a01b03858116600483015260248201859052915191909216916340c10f1991604480830192600092919082900301818387803b15801561257e57600080fd5b505af1158015612592573d6000803e3d6000fd5b505050506126cd565b600254604080516318160ddd60e01b8152905169d3c21bcecceda1000000926001600160a01b0316916318160ddd916004808301926020929190829003018186803b1580156125e957600080fd5b505afa1580156125fd573d6000803e3d6000fd5b505050506040513d602081101561261357600080fd5b505110156126cd57600254604080516318160ddd60e01b815290516001600160a01b03909216916340c10f1991309161266e9185916318160ddd91600480820192602092909190829003018186803b1580156112fd57600080fd5b6040518363ffffffff1660e01b815260040180836001600160a01b0316815260200182815260200192505050600060405180830381600087803b1580156126b457600080fd5b505af11580156126c8573d6000803e3d6000fd5b505050505b816001600160a01b0316846001600160a01b03167f86ddab457291316e0f5496737e5ca67c4037234c32c3be04c48ae96186893a7b836040518082815260200191505060405180910390a350505050565b604080516001600160a01b038416602482015260448082018490528251808303909101815260649091019091526020810180516001600160e01b031663a9059cbb60e01b1790526127709084906128cb565b505050565b604080516001600160a01b0380861660248301528416604482015260648082018490528251808303909101815260849091019091526020810180516001600160e01b03166323b872dd60e01b1790526123d39085906128cb565b6000818484111561285e5760405162461bcd60e51b81526004018080602001828103825283818151815260200191508051906020019080838360005b8381101561282357818101518382015260200161280b565b50505050905090810190601f1680156128505780820380516001836020036101000a031916815260200191505b509250505060405180910390fd5b505050900390565b600081836128b55760405162461bcd60e51b815260206004820181815283516024840152835190928392604490910191908501908083836000831561282357818101518382015260200161280b565b5060008385816128c157fe5b0495945050505050565b6060612920826040518060400160405280602081526020017f5361666545524332303a206c6f772d6c6576656c2063616c6c206661696c6564815250856001600160a01b031661297c9092919063ffffffff16565b8051909150156127705780806020019051602081101561293f57600080fd5b50516127705760405162461bcd60e51b815260040180806020018281038252602a815260200180612c53602a913960400191505060405180910390fd5b606061298b8484600085612993565b949350505050565b606061299e85612b00565b6129ef576040805162461bcd60e51b815260206004820152601d60248201527f416464726573733a2063616c6c20746f206e6f6e2d636f6e7472616374000000604482015290519081900360640190fd5b60006060866001600160a01b031685876040518082805190602001908083835b60208310612a2e5780518252601f199092019160209182019101612a0f565b6001836020036101000a03801982511681845116808217855250505050505090500191505060006040518083038185875af1925050503d8060008114612a90576040519150601f19603f3d011682016040523d82523d6000602084013e612a95565b606091505b50915091508115612aa957915061298b9050565b805115612ab95780518082602001fd5b60405162461bcd60e51b815260206004820181815286516024840152865187939192839260440191908501908083836000831561282357818101518382015260200161280b565b3b15159056fe6164643a20696e76616c6964206465706f7369742066656520626173697320706f696e7473736574526566657272616c436f6d6d697373696f6e526174653a20696e76616c696420726566657272616c20636f6d6d697373696f6e207261746520626173697320706f696e74734f776e61626c653a206e6577206f776e657220697320746865207a65726f20616464726573737361666541706f6c6c6f5472616e736665723a205472616e73666572206661696c6564536166654d6174683a206d756c7469706c69636174696f6e206f766572666c6f777365743a20696e76616c6964206465706f7369742066656520626173697320706f696e74734f776e61626c653a2063616c6c6572206973206e6f7420746865206f776e657254686520526566657272616c20636f6e74726163742061646472657373206973206368616e67656420616c72656164795361666545524332303a204552433230206f7065726174696f6e20646964206e6f742073756363656564a264697066735822122088dbb3bad8285dcc13d020c9cca653df399d41c46ef97500ddf56af0eaf7a8f164736f6c634300060c0033",
  "immutableReferences": {},
  "source": "// SPDX-License-Identifier: MIT\r\npragma solidity 0.6.12;\r\n\r\nimport \"./libs/ReentrancyGuard.sol\";\r\n\r\nimport \"./libs/Ownable.sol\";\r\n\r\nimport \"./libs/SafeMath.sol\";\r\n\r\nimport \"./libs/SafeERC20.sol\";\r\n\r\nimport \"./ApolloToken.sol\";\r\n\r\nimport \"./libs/IReferral.sol\";\r\n\r\n// MasterChef is the master of Apollo. He can make Apollo and he is a fair guy.\r\n//\r\n// Note that it's ownable and the owner wields tremendous power. The ownership\r\n// will be transferred to a governance smart contract once Apollo is sufficiently\r\n// distributed and the community can show to govern itself.\r\n//\r\n// Have fun reading it. Hopefully it's bug-free. God bless.\r\n// European boys play fair, don't worry.\r\n\r\ncontract MasterChef is Ownable, ReentrancyGuard {\r\n    using SafeMath for uint256;\r\n    using SafeERC20 for IERC20;\r\n\r\n    // Info of each user.\r\n    struct UserInfo {\r\n        uint256 amount;         // How many LP tokens the user has provided.\r\n        uint256 rewardDebt;     // Reward debt. See explanation below.\r\n        //\r\n        // We do some fancy math here. Basically, any point in time, the amount of IRIS\r\n        // entitled to a user but is pending to be distributed is:\r\n        //\r\n        //   pending reward = (user.amount * pool.accApolloPerShare) - user.rewardDebt\r\n        //\r\n        // Whenever a user deposits or withdraws LP tokens to a pool. Here's what happens:\r\n        //   1. The pool's `accApolloPerShare` (and `lastRewardBlock`) gets updated.\r\n        //   2. User receives the pending reward sent to his/her address.\r\n        //   3. User's `amount` gets updated.\r\n        //   4. User's `rewardDebt` gets updated.\r\n    }\r\n\r\n    // Info of each pool.\r\n    struct PoolInfo {\r\n        IERC20 lpToken;           // Address of LP token contract.\r\n        uint256 allocPoint;       // How many allocation points assigned to this pool. IRISes to distribute per block.\r\n        uint256 lastRewardBlock;  // Last block number that IRISes distribution occurs.\r\n        uint256 accApolloPerShare;   // Accumulated IRISes per share, times 1e18. See below.\r\n        uint16 depositFeeBP;      // Deposit fee in basis points\r\n        uint256 lpSupply;\r\n    }\r\n\r\n    // The IRIS TOKEN!\r\n    ApolloToken public apollo;\r\n    address public devAddress;\r\n    address public feeAddress;\r\n    uint256 constant max_apollo_supply = 1000000 ether;\r\n\r\n    // IRIS tokens created per block.\r\n    uint256 public apolloPerBlock = 0.4 ether;\r\n\r\n    // Info of each pool.\r\n    PoolInfo[] public poolInfo;\r\n    // Info of each user that stakes LP tokens.\r\n    mapping(uint256 => mapping(address => UserInfo)) public userInfo;\r\n    // Total allocation points. Must be the sum of all allocation points in all pools.\r\n    uint256 public totalAllocPoint = 0;\r\n    // The block number when IRIS mining starts.\r\n    uint256 public startBlock;\r\n\r\n    // Apollo referral contract address.\r\n    IReferral public referral;\r\n    // Referral commission rate in basis points.\r\n    uint16 public referralCommissionRate = 200;\r\n    // Max referral commission rate: 5%.\r\n    uint16 public constant MAXIMUM_REFERRAL_COMMISSION_RATE = 500;\r\n    uint256 public constant MAXIMUM_EMISSION_RATE = 1 ether;\r\n\r\n    bool updateReferralAddress = false;\r\n\r\n    event Deposit(address indexed user, uint256 indexed pid, uint256 amount);\r\n    event Withdraw(address indexed user, uint256 indexed pid, uint256 amount);\r\n    event EmergencyWithdraw(address indexed user, uint256 indexed pid, uint256 amount);\r\n    event SetFeeAddress(address indexed user, address indexed newAddress);\r\n    event SetDevAddress(address indexed user, address indexed newAddress);\r\n    event SetReferralAddress(address indexed user, IReferral indexed newAddress);\r\n    event UpdateEmissionRate(address indexed user, uint256 apolloPerBlock);\r\n    event ReferralCommissionPaid(address indexed user, address indexed referrer, uint256 commissionAmount);\r\n    event PoolAdd(address indexed user, IERC20 lpToken, uint256 allocPoint, uint256 lastRewardBlock, uint16 depositFeeBP);\r\n    event PoolSet(address indexed user, IERC20 lpToken, uint256 allocPoint, uint256 lastRewardBlock, uint16 depositFeeBP);\r\n    event SetReferralCommissionRate(address indexed user, uint16 referralCommmissionRate);\r\n    event UpdateStartBlock(address indexed user, uint256 startBlock);\r\n    constructor(\r\n        ApolloToken _apollo,\r\n        uint256 _startBlock,\r\n        address _devAddress,\r\n        address _feeAddress\r\n\r\n    ) public {\r\n        apollo = _apollo;\r\n        startBlock = _startBlock;\r\n\r\n        devAddress = _devAddress;\r\n        feeAddress = _feeAddress;\r\n        apollo.balanceOf(address(this));\r\n    }\r\n\r\n    function poolLength() external view returns (uint256) {\r\n        return poolInfo.length;\r\n    }\r\n\r\n    mapping(IERC20 => bool) public poolExistence;\r\n    modifier nonDuplicated(IERC20 _lpToken) {\r\n        require(poolExistence[_lpToken] == false, \"nonDuplicated: duplicated\");\r\n        _;\r\n    }\r\n\r\n    // Add a new lp to the pool. Can only be called by the owner.\r\n    function add(uint256 _allocPoint, IERC20 _lpToken, uint16 _depositFeeBP) external onlyOwner nonDuplicated(_lpToken) {\r\n        _lpToken.balanceOf(address(this));\r\n        require(_depositFeeBP <= 500, \"add: invalid deposit fee basis points\");\r\n        _lpToken.balanceOf(address(this));\r\n        uint256 lastRewardBlock = block.number > startBlock ? block.number : startBlock;\r\n        totalAllocPoint = totalAllocPoint.add(_allocPoint);\r\n        poolExistence[_lpToken] = true;\r\n        poolInfo.push(PoolInfo({\r\n        lpToken : _lpToken,\r\n        allocPoint : _allocPoint,\r\n        lastRewardBlock : lastRewardBlock,\r\n        accApolloPerShare : 0,\r\n        depositFeeBP : _depositFeeBP,\r\n        lpSupply : 0\r\n        }));\r\n        emit PoolAdd(msg.sender, _lpToken, _allocPoint, lastRewardBlock, _depositFeeBP);\r\n    }\r\n\r\n    // Update the given pool's IRIS allocation point and deposit fee. Can only be called by the owner.\r\n    function set(uint256 _pid, uint256 _allocPoint, uint16 _depositFeeBP) external onlyOwner {\r\n        require(_depositFeeBP <= 500, \"set: invalid deposit fee basis points\");\r\n        totalAllocPoint = totalAllocPoint.sub(poolInfo[_pid].allocPoint).add(_allocPoint);\r\n        poolInfo[_pid].allocPoint = _allocPoint;\r\n        poolInfo[_pid].depositFeeBP = _depositFeeBP;\r\n        emit PoolSet(msg.sender, poolInfo[_pid].lpToken, _allocPoint, poolInfo[_pid].lastRewardBlock, _depositFeeBP);\r\n    }\r\n\r\n    // Return reward multiplier over the given _from to _to block.\r\n    function getMultiplier(uint256 _from, uint256 _to) public view returns (uint256) {\r\n        if (apollo.totalSupply() >= max_apollo_supply) return 0;\r\n\r\n        return _to.sub(_from);\r\n    }\r\n\r\n    // View function to see pending IRISes on frontend.\r\n    function pendingApollo(uint256 _pid, address _user) external view returns (uint256) {\r\n        PoolInfo storage pool = poolInfo[_pid];\r\n        UserInfo storage user = userInfo[_pid][_user];\r\n        uint256 accApolloPerShare = pool.accApolloPerShare;\r\n        if (block.number > pool.lastRewardBlock && pool.lpSupply != 0 && totalAllocPoint > 0) {\r\n            uint256 multiplier = getMultiplier(pool.lastRewardBlock, block.number);\r\n            uint256 apolloReward = multiplier.mul(apolloPerBlock).mul(pool.allocPoint).div(totalAllocPoint);\r\n            accApolloPerShare = accApolloPerShare.add(apolloReward.mul(1e18).div(pool.lpSupply));\r\n        }\r\n        return user.amount.mul(accApolloPerShare).div(1e18).sub(user.rewardDebt);\r\n    }\r\n\r\n    // Update reward variables for all pools. Be careful of gas spending!\r\n    function massUpdatePools() public {\r\n        uint256 length = poolInfo.length;\r\n        for (uint256 pid = 0; pid < length; ++pid) {\r\n            updatePool(pid);\r\n        }\r\n    }\r\n\r\n    // Update reward variables of the given pool to be up-to-date.\r\n    function updatePool(uint256 _pid) public {\r\n        PoolInfo storage pool = poolInfo[_pid];\r\n        if (block.number <= pool.lastRewardBlock) {\r\n            return;\r\n        }\r\n        if (pool.lpSupply == 0 || pool.allocPoint == 0) {\r\n            pool.lastRewardBlock = block.number;\r\n            return;\r\n        }\r\n        uint256 multiplier = getMultiplier(pool.lastRewardBlock, block.number);\r\n        uint256 apolloReward = multiplier.mul(apolloPerBlock).mul(pool.allocPoint).div(totalAllocPoint);\r\n        if (apollo.totalSupply().add(apolloReward.mul(105).div(100)) <= max_apollo_supply) {\r\n            apollo.mint(devAddress, apolloReward.div(20));\r\n            apollo.mint(address(this), apolloReward);\r\n        } else if (apollo.totalSupply() < max_apollo_supply) {\r\n            apollo.mint(address(this), max_apollo_supply.sub(apollo.totalSupply()));\r\n        }\r\n        pool.accApolloPerShare = pool.accApolloPerShare.add(apolloReward.mul(1e18).div(pool.lpSupply));\r\n        pool.lastRewardBlock = block.number;\r\n    }\r\n\r\n    // Deposit LP tokens to MasterChef for IRIS allocation.\r\n    function deposit(uint256 _pid, uint256 _amount, address _referrer) nonReentrant external {\r\n        PoolInfo storage pool = poolInfo[_pid];\r\n        UserInfo storage user = userInfo[_pid][msg.sender];\r\n        updatePool(_pid);\r\n        if (_amount > 0 && address(referral) != address(0) && _referrer != address(0) && _referrer != msg.sender) {\r\n            referral.recordReferral(msg.sender, _referrer);\r\n        }\r\n        if (user.amount > 0) {\r\n            uint256 pending = user.amount.mul(pool.accApolloPerShare).div(1e18).sub(user.rewardDebt);\r\n            if (pending > 0) {\r\n                safeApolloTransfer(msg.sender, pending);\r\n                payReferralCommission(msg.sender, pending);\r\n            }\r\n        }\r\n        if (_amount > 0) {\r\n            uint256 balanceBefore = pool.lpToken.balanceOf(address(this));\r\n            pool.lpToken.safeTransferFrom(address(msg.sender), address(this), _amount);\r\n            _amount = pool.lpToken.balanceOf(address(this)).sub(balanceBefore);\r\n            require(_amount > 0, \"we dont accept deposits of 0\");\r\n            if (pool.depositFeeBP > 0) {\r\n                uint256 depositFee = _amount.mul(pool.depositFeeBP).div(10000);\r\n                pool.lpToken.safeTransfer(feeAddress, depositFee);\r\n                user.amount = user.amount.add(_amount).sub(depositFee);\r\n                pool.lpSupply = pool.lpSupply.add(_amount).sub(depositFee);\r\n            } else {\r\n                user.amount = user.amount.add(_amount);\r\n                pool.lpSupply = pool.lpSupply.add(_amount);\r\n            }\r\n        }\r\n        user.rewardDebt = user.amount.mul(pool.accApolloPerShare).div(1e18);\r\n        emit Deposit(msg.sender, _pid, _amount);\r\n    }\r\n\r\n    // Withdraw LP tokens from MasterChef.\r\n    function withdraw(uint256 _pid, uint256 _amount) nonReentrant external {\r\n        PoolInfo storage pool = poolInfo[_pid];\r\n        UserInfo storage user = userInfo[_pid][msg.sender];\r\n        require(user.amount >= _amount, \"withdraw: not good\");\r\n        updatePool(_pid);\r\n        uint256 pending = user.amount.mul(pool.accApolloPerShare).div(1e18).sub(user.rewardDebt);\r\n        if (pending > 0) {\r\n            safeApolloTransfer(msg.sender, pending);\r\n            payReferralCommission(msg.sender, pending);\r\n        }\r\n        if (_amount > 0) {\r\n            user.amount = user.amount.sub(_amount);\r\n            pool.lpToken.safeTransfer(address(msg.sender), _amount);\r\n            pool.lpSupply = pool.lpSupply.sub(_amount);\r\n        }\r\n        user.rewardDebt = user.amount.mul(pool.accApolloPerShare).div(1e18);\r\n        emit Withdraw(msg.sender, _pid, _amount);\r\n    }\r\n\r\n    // Withdraw without caring about rewards. EMERGENCY ONLY.\r\n    function emergencyWithdraw(uint256 _pid) nonReentrant external {\r\n        PoolInfo storage pool = poolInfo[_pid];\r\n        UserInfo storage user = userInfo[_pid][msg.sender];\r\n        uint256 amount = user.amount;\r\n        pool.lpSupply = pool.lpSupply.sub(user.amount);\r\n        user.amount = 0;\r\n        user.rewardDebt = 0;\r\n        pool.lpToken.safeTransfer(address(msg.sender), amount);\r\n        emit EmergencyWithdraw(msg.sender, _pid, amount);\r\n    }\r\n\r\n    // Safe apollo transfer function, just in case if rounding error causes pool to not have enough IRIS.\r\n    function safeApolloTransfer(address _to, uint256 _amount) internal {\r\n        uint256 apolloBal = apollo.balanceOf(address(this));\r\n        bool transferSuccess = false;\r\n        if (_amount > apolloBal) {\r\n            transferSuccess = apollo.transfer(_to, apolloBal);\r\n        } else {\r\n            transferSuccess = apollo.transfer(_to, _amount);\r\n        }\r\n        require(transferSuccess, \"safeApolloTransfer: Transfer failed\");\r\n    }\r\n\r\n    // Update dev address by the previous dev.\r\n    function setDevAddress(address _devAddress) external onlyOwner {\r\n        require(_devAddress != address(0), \"!nonzero\");\r\n        devAddress = _devAddress;\r\n        emit SetDevAddress(msg.sender, _devAddress);\r\n    }\r\n\r\n    function setFeeAddress(address _feeAddress) external onlyOwner {\r\n        require(_feeAddress != address(0), \"!nonzero\");\r\n        feeAddress = _feeAddress;\r\n        emit SetFeeAddress(msg.sender, _feeAddress);\r\n    }\r\n\r\n    function updateEmissionRate(uint256 _apolloPerBlock) external onlyOwner {\r\n        require(_apolloPerBlock <= MAXIMUM_EMISSION_RATE, \"Too High\");\r\n        massUpdatePools();\r\n        apolloPerBlock = _apolloPerBlock;\r\n        emit UpdateEmissionRate(msg.sender, _apolloPerBlock);\r\n    }\r\n\r\n    // Update the referral contract address by the owner\r\n    function setReferralAddress(IReferral _referral) external onlyOwner {\r\n        require(updateReferralAddress == false, \"The Referral contract address is changed already\");\r\n        referral = _referral;\r\n        updateReferralAddress = true;\r\n        emit SetReferralAddress(msg.sender, _referral);\r\n    }\r\n\r\n    // Update referral commission rate by the owner\r\n    function setReferralCommissionRate(uint16 _referralCommissionRate) external onlyOwner {\r\n        require(_referralCommissionRate <= MAXIMUM_REFERRAL_COMMISSION_RATE, \"setReferralCommissionRate: invalid referral commission rate basis points\");\r\n        referralCommissionRate = _referralCommissionRate;\r\n        emit SetReferralCommissionRate(msg.sender, _referralCommissionRate);\r\n    }\r\n\r\n    // Pay referral commission to the referrer who referred this user.\r\n    function payReferralCommission(address _user, uint256 _pending) internal {\r\n        if (address(referral) != address(0) && referralCommissionRate > 0) {\r\n            address referrer = referral.getReferrer(_user);\r\n            uint256 commissionAmount = _pending.mul(referralCommissionRate).div(10000);\r\n\r\n            if (referrer != address(0) && commissionAmount > 0) {\r\n                if (apollo.totalSupply().add(commissionAmount) <= max_apollo_supply) {\r\n                    apollo.mint(referrer, commissionAmount);\r\n                } else if (apollo.totalSupply() < max_apollo_supply) {\r\n                    apollo.mint(address(this), max_apollo_supply.sub(apollo.totalSupply()));\r\n                }\r\n                emit ReferralCommissionPaid(_user, referrer, commissionAmount);\r\n            }\r\n        }\r\n    }\r\n\r\n    // Only update before start of farm\r\n    function updateStartBlock(uint256 _startBlock) onlyOwner external {\r\n        require(startBlock > block.number, \"Farm already started\");\r\n        uint256 length = poolInfo.length;\r\n        for (uint256 pid = 0; pid < length; ++pid) {\r\n            PoolInfo storage pool = poolInfo[pid];\r\n            pool.lastRewardBlock = _startBlock;\r\n        }\r\n        startBlock = _startBlock;\r\n        emit UpdateStartBlock(msg.sender, _startBlock);\r\n    }\r\n}\r\n",
  "sourcePath": "C:\\defi\\bitdeep\\hermesdefi\\contracts\\contracts\\masterchef.sol",
  "compiler": {
    "name": "solc",
    "version": "0.6.12+commit.27d51765.Emscripten.clang"
  },
  "schemaVersion": "3.4.2",
  "updatedAt": "2021-10-13T00:36:24.565Z",
  "devdoc": {
    "kind": "dev",
    "methods": {
      "owner()": {
        "details": "Returns the address of the current owner."
      },
      "renounceOwnership()": {
        "details": "Leaves the contract without owner. It will not be possible to call `onlyOwner` functions anymore. Can only be called by the current owner. NOTE: Renouncing ownership will leave the contract without an owner, thereby removing any functionality that is only available to the owner."
      },
      "transferOwnership(address)": {
        "details": "Transfers ownership of the contract to a new account (`newOwner`). Can only be called by the current owner."
      }
    },
    "version": 1
  },
  "userdoc": {
    "kind": "user",
    "methods": {},
    "version": 1
  }
}