{
  "contractName": "MasterChef",
  "abi": [
    {
      "inputs": [
        {
          "internalType": "address",
          "name": "_apollo",
          "type": "address"
        },
        {
          "internalType": "uint256",
          "name": "_startBlock",
          "type": "uint256"
        },
        {
          "internalType": "address",
          "name": "_devAddress",
          "type": "address"
        },
        {
          "internalType": "address",
          "name": "_feeAddress",
          "type": "address"
        },
        {
          "internalType": "address",
          "name": "_nft",
          "type": "address"
        }
      ],
      "stateMutability": "nonpayable",
      "type": "constructor"
    },
    {
      "anonymous": false,
      "inputs": [
        {
          "indexed": false,
          "internalType": "address",
          "name": "to",
          "type": "address"
        },
        {
          "indexed": false,
          "internalType": "uint256",
          "name": "requested",
          "type": "uint256"
        },
        {
          "indexed": false,
          "internalType": "uint256",
          "name": "amount",
          "type": "uint256"
        }
      ],
      "name": "ApolloTransfer",
      "type": "event"
    },
    {
      "anonymous": false,
      "inputs": [
        {
          "indexed": false,
          "internalType": "address",
          "name": "to",
          "type": "address"
        },
        {
          "indexed": false,
          "internalType": "uint256",
          "name": "multiplier",
          "type": "uint256"
        },
        {
          "indexed": false,
          "internalType": "uint256",
          "name": "bonus",
          "type": "uint256"
        }
      ],
      "name": "Bonus",
      "type": "event"
    },
    {
      "anonymous": false,
      "inputs": [
        {
          "indexed": true,
          "internalType": "address",
          "name": "user",
          "type": "address"
        },
        {
          "indexed": true,
          "internalType": "uint256",
          "name": "pid",
          "type": "uint256"
        },
        {
          "indexed": false,
          "internalType": "uint256",
          "name": "amount",
          "type": "uint256"
        }
      ],
      "name": "Deposit",
      "type": "event"
    },
    {
      "anonymous": false,
      "inputs": [
        {
          "indexed": true,
          "internalType": "address",
          "name": "user",
          "type": "address"
        },
        {
          "indexed": true,
          "internalType": "uint256",
          "name": "pid",
          "type": "uint256"
        },
        {
          "indexed": false,
          "internalType": "uint256",
          "name": "amount",
          "type": "uint256"
        }
      ],
      "name": "EmergencyWithdraw",
      "type": "event"
    },
    {
      "anonymous": false,
      "inputs": [
        {
          "indexed": true,
          "internalType": "address",
          "name": "previousOwner",
          "type": "address"
        },
        {
          "indexed": true,
          "internalType": "address",
          "name": "newOwner",
          "type": "address"
        }
      ],
      "name": "OwnershipTransferred",
      "type": "event"
    },
    {
      "anonymous": false,
      "inputs": [
        {
          "indexed": true,
          "internalType": "address",
          "name": "user",
          "type": "address"
        },
        {
          "indexed": false,
          "internalType": "contract IERC20",
          "name": "lpToken",
          "type": "address"
        },
        {
          "indexed": false,
          "internalType": "uint256",
          "name": "allocPoint",
          "type": "uint256"
        },
        {
          "indexed": false,
          "internalType": "uint256",
          "name": "lastRewardBlock",
          "type": "uint256"
        },
        {
          "indexed": false,
          "internalType": "uint16",
          "name": "depositFeeBP",
          "type": "uint16"
        }
      ],
      "name": "PoolAdd",
      "type": "event"
    },
    {
      "anonymous": false,
      "inputs": [
        {
          "indexed": true,
          "internalType": "address",
          "name": "user",
          "type": "address"
        },
        {
          "indexed": false,
          "internalType": "contract IERC20",
          "name": "lpToken",
          "type": "address"
        },
        {
          "indexed": false,
          "internalType": "uint256",
          "name": "allocPoint",
          "type": "uint256"
        },
        {
          "indexed": false,
          "internalType": "uint256",
          "name": "lastRewardBlock",
          "type": "uint256"
        },
        {
          "indexed": false,
          "internalType": "uint16",
          "name": "depositFeeBP",
          "type": "uint16"
        }
      ],
      "name": "PoolSet",
      "type": "event"
    },
    {
      "anonymous": false,
      "inputs": [
        {
          "indexed": true,
          "internalType": "address",
          "name": "user",
          "type": "address"
        },
        {
          "indexed": true,
          "internalType": "address",
          "name": "newAddress",
          "type": "address"
        }
      ],
      "name": "SetDevAddress",
      "type": "event"
    },
    {
      "anonymous": false,
      "inputs": [
        {
          "indexed": true,
          "internalType": "address",
          "name": "user",
          "type": "address"
        },
        {
          "indexed": true,
          "internalType": "address",
          "name": "newAddress",
          "type": "address"
        }
      ],
      "name": "SetFeeAddress",
      "type": "event"
    },
    {
      "anonymous": false,
      "inputs": [
        {
          "indexed": true,
          "internalType": "address",
          "name": "user",
          "type": "address"
        },
        {
          "indexed": false,
          "internalType": "uint256",
          "name": "apolloPerBlock",
          "type": "uint256"
        }
      ],
      "name": "UpdateEmissionRate",
      "type": "event"
    },
    {
      "anonymous": false,
      "inputs": [
        {
          "indexed": true,
          "internalType": "address",
          "name": "user",
          "type": "address"
        },
        {
          "indexed": false,
          "internalType": "uint256",
          "name": "startBlock",
          "type": "uint256"
        }
      ],
      "name": "UpdateStartBlock",
      "type": "event"
    },
    {
      "anonymous": false,
      "inputs": [
        {
          "indexed": true,
          "internalType": "address",
          "name": "user",
          "type": "address"
        },
        {
          "indexed": true,
          "internalType": "uint256",
          "name": "pid",
          "type": "uint256"
        },
        {
          "indexed": false,
          "internalType": "uint256",
          "name": "amount",
          "type": "uint256"
        }
      ],
      "name": "Withdraw",
      "type": "event"
    },
    {
      "inputs": [],
      "name": "BONUS_MULTIPLIER",
      "outputs": [
        {
          "internalType": "uint256",
          "name": "",
          "type": "uint256"
        }
      ],
      "stateMutability": "view",
      "type": "function"
    },
    {
      "inputs": [],
      "name": "MAXIMUM_EMISSION_RATE",
      "outputs": [
        {
          "internalType": "uint256",
          "name": "",
          "type": "uint256"
        }
      ],
      "stateMutability": "view",
      "type": "function"
    },
    {
      "inputs": [],
      "name": "apollo",
      "outputs": [
        {
          "internalType": "contract ApolloToken",
          "name": "",
          "type": "address"
        }
      ],
      "stateMutability": "view",
      "type": "function"
    },
    {
      "inputs": [],
      "name": "apolloPerBlock",
      "outputs": [
        {
          "internalType": "uint256",
          "name": "",
          "type": "uint256"
        }
      ],
      "stateMutability": "view",
      "type": "function"
    },
    {
      "inputs": [],
      "name": "devAddress",
      "outputs": [
        {
          "internalType": "address",
          "name": "",
          "type": "address"
        }
      ],
      "stateMutability": "view",
      "type": "function"
    },
    {
      "inputs": [],
      "name": "feeAddress",
      "outputs": [
        {
          "internalType": "address",
          "name": "",
          "type": "address"
        }
      ],
      "stateMutability": "view",
      "type": "function"
    },
    {
      "inputs": [],
      "name": "minNftToBoost",
      "outputs": [
        {
          "internalType": "uint256",
          "name": "",
          "type": "uint256"
        }
      ],
      "stateMutability": "view",
      "type": "function"
    },
    {
      "inputs": [],
      "name": "nft",
      "outputs": [
        {
          "internalType": "contract IERC721",
          "name": "",
          "type": "address"
        }
      ],
      "stateMutability": "view",
      "type": "function"
    },
    {
      "inputs": [],
      "name": "nftBoost",
      "outputs": [
        {
          "internalType": "uint256",
          "name": "",
          "type": "uint256"
        }
      ],
      "stateMutability": "view",
      "type": "function"
    },
    {
      "inputs": [],
      "name": "owner",
      "outputs": [
        {
          "internalType": "address",
          "name": "",
          "type": "address"
        }
      ],
      "stateMutability": "view",
      "type": "function"
    },
    {
      "inputs": [
        {
          "internalType": "contract IERC20",
          "name": "",
          "type": "address"
        }
      ],
      "name": "poolExistence",
      "outputs": [
        {
          "internalType": "bool",
          "name": "",
          "type": "bool"
        }
      ],
      "stateMutability": "view",
      "type": "function"
    },
    {
      "inputs": [
        {
          "internalType": "uint256",
          "name": "",
          "type": "uint256"
        }
      ],
      "name": "poolInfo",
      "outputs": [
        {
          "internalType": "contract IERC20",
          "name": "lpToken",
          "type": "address"
        },
        {
          "internalType": "uint256",
          "name": "allocPoint",
          "type": "uint256"
        },
        {
          "internalType": "uint256",
          "name": "lastRewardBlock",
          "type": "uint256"
        },
        {
          "internalType": "uint256",
          "name": "accApolloPerShare",
          "type": "uint256"
        },
        {
          "internalType": "uint16",
          "name": "depositFeeBP",
          "type": "uint16"
        },
        {
          "internalType": "uint256",
          "name": "lpSupply",
          "type": "uint256"
        }
      ],
      "stateMutability": "view",
      "type": "function"
    },
    {
      "inputs": [],
      "name": "renounceOwnership",
      "outputs": [],
      "stateMutability": "nonpayable",
      "type": "function"
    },
    {
      "inputs": [],
      "name": "startBlock",
      "outputs": [
        {
          "internalType": "uint256",
          "name": "",
          "type": "uint256"
        }
      ],
      "stateMutability": "view",
      "type": "function"
    },
    {
      "inputs": [],
      "name": "totalAllocPoint",
      "outputs": [
        {
          "internalType": "uint256",
          "name": "",
          "type": "uint256"
        }
      ],
      "stateMutability": "view",
      "type": "function"
    },
    {
      "inputs": [
        {
          "internalType": "address",
          "name": "newOwner",
          "type": "address"
        }
      ],
      "name": "transferOwnership",
      "outputs": [],
      "stateMutability": "nonpayable",
      "type": "function"
    },
    {
      "inputs": [
        {
          "internalType": "uint256",
          "name": "",
          "type": "uint256"
        },
        {
          "internalType": "address",
          "name": "",
          "type": "address"
        }
      ],
      "name": "userInfo",
      "outputs": [
        {
          "internalType": "uint256",
          "name": "amount",
          "type": "uint256"
        },
        {
          "internalType": "uint256",
          "name": "rewardDebt",
          "type": "uint256"
        }
      ],
      "stateMutability": "view",
      "type": "function"
    },
    {
      "inputs": [],
      "name": "poolLength",
      "outputs": [
        {
          "internalType": "uint256",
          "name": "",
          "type": "uint256"
        }
      ],
      "stateMutability": "view",
      "type": "function"
    },
    {
      "inputs": [
        {
          "internalType": "uint256",
          "name": "_allocPoint",
          "type": "uint256"
        },
        {
          "internalType": "contract IERC20",
          "name": "_lpToken",
          "type": "address"
        },
        {
          "internalType": "uint16",
          "name": "_depositFeeBP",
          "type": "uint16"
        }
      ],
      "name": "add",
      "outputs": [],
      "stateMutability": "nonpayable",
      "type": "function"
    },
    {
      "inputs": [
        {
          "internalType": "uint256",
          "name": "_pid",
          "type": "uint256"
        },
        {
          "internalType": "uint256",
          "name": "_allocPoint",
          "type": "uint256"
        },
        {
          "internalType": "uint16",
          "name": "_depositFeeBP",
          "type": "uint16"
        }
      ],
      "name": "set",
      "outputs": [],
      "stateMutability": "nonpayable",
      "type": "function"
    },
    {
      "inputs": [
        {
          "internalType": "uint256",
          "name": "_from",
          "type": "uint256"
        },
        {
          "internalType": "uint256",
          "name": "_to",
          "type": "uint256"
        }
      ],
      "name": "getMultiplier",
      "outputs": [
        {
          "internalType": "uint256",
          "name": "",
          "type": "uint256"
        }
      ],
      "stateMutability": "view",
      "type": "function"
    },
    {
      "inputs": [
        {
          "internalType": "uint256",
          "name": "_pid",
          "type": "uint256"
        },
        {
          "internalType": "address",
          "name": "_user",
          "type": "address"
        }
      ],
      "name": "pendingApollo",
      "outputs": [
        {
          "internalType": "uint256",
          "name": "",
          "type": "uint256"
        }
      ],
      "stateMutability": "view",
      "type": "function"
    },
    {
      "inputs": [],
      "name": "massUpdatePools",
      "outputs": [],
      "stateMutability": "nonpayable",
      "type": "function"
    },
    {
      "inputs": [
        {
          "internalType": "uint256",
          "name": "_pid",
          "type": "uint256"
        }
      ],
      "name": "updatePool",
      "outputs": [],
      "stateMutability": "nonpayable",
      "type": "function"
    },
    {
      "inputs": [
        {
          "internalType": "uint256",
          "name": "_pid",
          "type": "uint256"
        },
        {
          "internalType": "uint256",
          "name": "_amount",
          "type": "uint256"
        }
      ],
      "name": "deposit",
      "outputs": [],
      "stateMutability": "nonpayable",
      "type": "function"
    },
    {
      "inputs": [
        {
          "internalType": "uint256",
          "name": "_pid",
          "type": "uint256"
        },
        {
          "internalType": "uint256",
          "name": "_amount",
          "type": "uint256"
        }
      ],
      "name": "withdraw",
      "outputs": [],
      "stateMutability": "nonpayable",
      "type": "function"
    },
    {
      "inputs": [
        {
          "internalType": "uint256",
          "name": "_pid",
          "type": "uint256"
        }
      ],
      "name": "emergencyWithdraw",
      "outputs": [],
      "stateMutability": "nonpayable",
      "type": "function"
    },
    {
      "inputs": [
        {
          "internalType": "address",
          "name": "_devAddress",
          "type": "address"
        }
      ],
      "name": "setDevAddress",
      "outputs": [],
      "stateMutability": "nonpayable",
      "type": "function"
    },
    {
      "inputs": [
        {
          "internalType": "address",
          "name": "_feeAddress",
          "type": "address"
        }
      ],
      "name": "setFeeAddress",
      "outputs": [],
      "stateMutability": "nonpayable",
      "type": "function"
    },
    {
      "inputs": [
        {
          "internalType": "uint256",
          "name": "_apolloPerBlock",
          "type": "uint256"
        }
      ],
      "name": "updateEmissionRate",
      "outputs": [],
      "stateMutability": "nonpayable",
      "type": "function"
    },
    {
      "inputs": [
        {
          "internalType": "uint256",
          "name": "_startBlock",
          "type": "uint256"
        }
      ],
      "name": "updateStartBlock",
      "outputs": [],
      "stateMutability": "nonpayable",
      "type": "function"
    },
    {
      "inputs": [
        {
          "internalType": "uint256",
          "name": "_minNftToBoost",
          "type": "uint256"
        }
      ],
      "name": "setMinNftBoost",
      "outputs": [],
      "stateMutability": "nonpayable",
      "type": "function"
    },
    {
      "inputs": [
        {
          "internalType": "uint256",
          "name": "_nftBoost",
          "type": "uint256"
        }
      ],
      "name": "setNftBoost",
      "outputs": [],
      "stateMutability": "nonpayable",
      "type": "function"
    },
    {
      "inputs": [
        {
          "internalType": "address",
          "name": "_address",
          "type": "address"
        }
      ],
      "name": "isNftHolder",
      "outputs": [
        {
          "internalType": "bool",
          "name": "",
          "type": "bool"
        }
      ],
      "stateMutability": "view",
      "type": "function"
    },
    {
      "inputs": [
        {
          "internalType": "address",
          "name": "_user",
          "type": "address"
        }
      ],
      "name": "calculateBonus",
      "outputs": [
        {
          "internalType": "uint256",
          "name": "",
          "type": "uint256"
        }
      ],
      "stateMutability": "view",
      "type": "function"
    },
    {
      "inputs": [],
      "name": "setRewardTo4",
      "outputs": [],
      "stateMutability": "nonpayable",
      "type": "function"
    },
    {
      "inputs": [],
      "name": "setRewardTo04",
      "outputs": [],
      "stateMutability": "nonpayable",
      "type": "function"
    },
    {
      "inputs": [],
      "name": "setRewardTo05",
      "outputs": [],
      "stateMutability": "nonpayable",
      "type": "function"
    },
    {
      "inputs": [],
      "name": "setRewardTo06",
      "outputs": [],
      "stateMutability": "nonpayable",
      "type": "function"
    }
  ],
  "bytecode": "0x60806040526738e62046fb1a000060065560006009556005600c556032600d553480156200002c57600080fd5b5060405162002d9038038062002d90833981810160405260a08110156200005257600080fd5b5080516020820151604083015160608401516080909401519293919290919060006200007d6200020e565b600080546001600160a01b0319166001600160a01b0383169081178255604051929350917f8be0079c531659141344cd1fd0a4f28419497f9722a3daafe3b4186f6b6457e0908290a35060018055600280546001600160a01b03199081166001600160a01b038881169190911792839055600380548316858316179055600a8790556004805483168783161781556005805490931686831617909255604080516370a0823160e01b81523093810193909352519216916370a0823191602480820192602092909190829003018186803b1580156200015a57600080fd5b505afa1580156200016f573d6000803e3d6000fd5b505050506040513d60208110156200018657600080fd5b5050600354604080516370a0823160e01b815230600482015290516001600160a01b03909216916370a0823191602480820192602092909190829003018186803b158015620001d457600080fd5b505afa158015620001e9573d6000803e3d6000fd5b505050506040513d60208110156200020057600080fd5b506200021295505050505050565b3390565b612b6e80620002226000396000f3fe608060405234801561001057600080fd5b506004361061023d5760003560e01c80636586cb9c1161013b5780639a24d34b116100b8578063da7b65b81161007c578063da7b65b8146105d5578063e2bbb158146105dd578063f2fde38b14610600578063f610dd8c14610626578063fac2b9ba1461062e5761023d565b80639a24d34b1461055c5780639f3e7e4214610579578063aeb4eb0414610581578063cbd258b514610589578063d0d41fe1146105af5761023d565b80638705fcd4116100ff5780638705fcd4146104be5780638aa28550146104e45780638da5cb5b146104ec5780638dbb1e3a146104f457806393f1a40b146105175761023d565b80636586cb9c146104785780636eed6a2c14610480578063715018a6146104885780637319e5aa1461049057806383100c38146104b65761023d565b80633bcaba5f116101c957806347ccca021161018d57806347ccca021461042657806348cd4cb11461042e57806351eb05a6146104365780635312ea8e14610453578063630b5ba1146104705761023d565b80633bcaba5f1461038d57806341275358146103c757806343e48c62146103cf578063441a3e70146103d75780634613fa61146103fa5761023d565b806317caf6f11161021057806317caf6f11461030f5780632364a7071461031757806324bcb38c146103345780633365b50a146103615780633ad10ef6146103695761023d565b80630653927514610242578063081e3eda1461027a5780630ba84cd2146102945780631526fe27146102b1575b600080fd5b6102786004803603606081101561025857600080fd5b5080359060208101356001600160a01b0316906040013561ffff1661064b565b005b610282610a27565b60408051918252519081900360200190f35b610278600480360360208110156102aa57600080fd5b5035610a2d565b6102ce600480360360208110156102c757600080fd5b5035610b13565b604080516001600160a01b039097168752602087019590955285850193909352606085019190915261ffff16608084015260a0830152519081900360c00190f35b610282610b67565b6102786004803603602081101561032d57600080fd5b5035610b6d565b6102786004803603606081101561034a57600080fd5b508035906020810135906040013561ffff16610bca565b610282610dc0565b610371610dc6565b604080516001600160a01b039092168252519081900360200190f35b6103b3600480360360208110156103a357600080fd5b50356001600160a01b0316610dd5565b604080519115158252519081900360200190f35b610371610e5e565b610278610e6d565b610278600480360360408110156103ed57600080fd5b5080359060200135610ece565b6102826004803603604081101561041057600080fd5b50803590602001356001600160a01b03166111a8565b6103716112c2565b6102826112d1565b6102786004803603602081101561044c57600080fd5b50356112d7565b6102786004803603602081101561046957600080fd5b5035611622565b610278611732565b610278611755565b6102826117b6565b6102786117c2565b610282600480360360208110156104a657600080fd5b50356001600160a01b0316611864565b61027861188e565b610278600480360360208110156104d457600080fd5b50356001600160a01b03166118ef565b6102826119d9565b6103716119de565b6102826004803603604081101561050a57600080fd5b50803590602001356119ed565b6105436004803603604081101561052d57600080fd5b50803590602001356001600160a01b0316611a92565b6040805192835260208301919091528051918290030190f35b6102786004803603602081101561057257600080fd5b5035611ab6565b610282611b13565b610282611b19565b6103b36004803603602081101561059f57600080fd5b50356001600160a01b0316611b1f565b610278600480360360208110156105c557600080fd5b50356001600160a01b0316611b34565b610371611c1e565b610278600480360360408110156105f357600080fd5b5080359060200135611c2d565b6102786004803603602081101561061657600080fd5b50356001600160a01b031661208c565b610278612184565b6102786004803603602081101561064457600080fd5b50356121e5565b610653612306565b6000546001600160a01b039081169116146106a3576040805162461bcd60e51b81526020600482018190526024820152600080516020612aef833981519152604482015290519081900360640190fd5b6001600160a01b0382166000908152600b6020526040902054829060ff1615610713576040805162461bcd60e51b815260206004820152601960248201527f6e6f6e4475706c6963617465643a206475706c69636174656400000000000000604482015290519081900360640190fd5b604080516370a0823160e01b815230600482015290516001600160a01b038516916370a08231916024808301926020929190829003018186803b15801561075957600080fd5b505afa15801561076d573d6000803e3d6000fd5b505050506040513d602081101561078357600080fd5b50506101f461ffff831611156107ca5760405162461bcd60e51b8152600401808060200182810382526025815260200180612a3b6025913960400191505060405180910390fd5b604080516370a0823160e01b815230600482015290516001600160a01b038516916370a08231916024808301926020929190829003018186803b15801561081057600080fd5b505afa158015610824573d6000803e3d6000fd5b505050506040513d602081101561083a57600080fd5b5050600a54600090431161085057600a54610852565b435b600954909150610862908661230a565b6009556001600160a01b038481166000818152600b602090815260408083208054600160ff199091168117909155815160c0810183528581528084018c8152818401898152606080840188815261ffff8e8116608080880182815260a089018d8152600780549b8c018155909d5297517fa66cc928b5edb82af9bd49922954155ab7b0942694bea4ce44661d9a8736c6886006909a02998a0180546001600160a01b03191691909f1617909d5594517fa66cc928b5edb82af9bd49922954155ab7b0942694bea4ce44661d9a8736c68988015592517fa66cc928b5edb82af9bd49922954155ab7b0942694bea4ce44661d9a8736c68a870155517fa66cc928b5edb82af9bd49922954155ab7b0942694bea4ce44661d9a8736c68b86015592517fa66cc928b5edb82af9bd49922954155ab7b0942694bea4ce44661d9a8736c68c8501805461ffff19169190921617905594517fa66cc928b5edb82af9bd49922954155ab7b0942694bea4ce44661d9a8736c68d9092019190915581519485529184018a9052838101869052908301919091525133927fa2c51573880fb2ac3b22bb2584e1c8972b7baf3928d9abbf230c500de25e84fa928290030190a25050505050565b60075490565b610a35612306565b6000546001600160a01b03908116911614610a85576040805162461bcd60e51b81526020600482018190526024820152600080516020612aef833981519152604482015290519081900360640190fd5b674563918244f40000811115610acd576040805162461bcd60e51b81526020600482015260086024820152670a8dede4090d2ced60c31b604482015290519081900360640190fd5b610ad5611732565b600681905560408051828152905133917fe2492e003bbe8afa53088b406f0c1cb5d9e280370fc72a74cf116ffd343c4053919081900360200190a250565b60078181548110610b2057fe5b60009182526020909120600690910201805460018201546002830154600384015460048501546005909501546001600160a01b0390941695509193909261ffff9091169086565b60095481565b610b75612306565b6000546001600160a01b03908116911614610bc5576040805162461bcd60e51b81526020600482018190526024820152600080516020612aef833981519152604482015290519081900360640190fd5b600c55565b610bd2612306565b6000546001600160a01b03908116911614610c22576040805162461bcd60e51b81526020600482018190526024820152600080516020612aef833981519152604482015290519081900360640190fd5b6101f48161ffff161115610c675760405162461bcd60e51b8152600401808060200182810382526025815260200180612aca6025913960400191505060405180910390fd5b610ca482610c9e60078681548110610c7b57fe5b90600052602060002090600602016001015460095461236490919063ffffffff16565b9061230a565b6009819055508160078481548110610cb857fe5b9060005260206000209060060201600101819055508060078481548110610cdb57fe5b906000526020600020906006020160040160006101000a81548161ffff021916908361ffff160217905550336001600160a01b03167f6b15d9ccfec36c187bb7ca9613a8be7a7367d3fc401d1efdea721d6c4567395e60078581548110610d3e57fe5b906000526020600020906006020160000160009054906101000a90046001600160a01b03168460078781548110610d7157fe5b9060005260206000209060060201600201548560405180856001600160a01b031681526020018481526020018381526020018261ffff16815260200194505050505060405180910390a2505050565b600c5481565b6004546001600160a01b031681565b600c54600354604080516370a0823160e01b81526001600160a01b03858116600483015291516000949392909216916370a0823191602480820192602092909190829003018186803b158015610e2a57600080fd5b505afa158015610e3e573d6000803e3d6000fd5b505050506040513d6020811015610e5457600080fd5b5051101592915050565b6005546001600160a01b031681565b6004546001600160a01b03163314610ec0576040805162461bcd60e51b815260206004820152601160248201527031b0b63632b91034b9903737ba103232bb60791b604482015290519081900360640190fd5b673782dace9d900000600655565b60026001541415610f26576040805162461bcd60e51b815260206004820152601f60248201527f5265656e7472616e637947756172643a207265656e7472616e742063616c6c00604482015290519081900360640190fd5b6002600181905550600060078381548110610f3d57fe5b600091825260208083208684526008825260408085203386529092529220805460069092029092019250831115610fb0576040805162461bcd60e51b81526020600482015260126024820152711dda5d1a191c985dce881b9bdd0819dbdbd960721b604482015290519081900360640190fd5b610fb9846112d7565b6000610ff68260010154610ff0670de0b6b3a7640000610fea876003015487600001546123a690919063ffffffff16565b906123ff565b90612364565b9050801561110457600061100933611864565b905060008111801561101b5750600082115b156110f85760006110326103e8610fea85856123a6565b604080513381526020810185905280820183905290519192507f67faea3e5084d47509891dc088be511b349ea7ad949853bd5b2093e8b0b7365c919081900360600190a1600254604080516340c10f1960e01b81523060048201526024810184905290516001600160a01b03909216916340c10f199160448082019260009290919082900301818387803b1580156110c957600080fd5b505af11580156110dd573d6000803e3d6000fd5b505050506110f4818461230a90919063ffffffff16565b9250505b6111023383612441565b505b83156111435781546111169085612364565b8255825461112e906001600160a01b0316338661265f565b600583015461113d9085612364565b60058401555b6003830154825461116191670de0b6b3a764000091610fea916123a6565b6001830155604080518581529051869133917ff279e6a1f5e320cca91135676d9cb6e44ca8a08c0b88342bcdb1144f6511b5689181900360200190a3505060018055505050565b600080600784815481106111b857fe5b600091825260208083208784526008825260408085206001600160a01b038916865290925292206003600690920290920190810154600282015491935090431180156112075750600583015415155b801561121557506000600954115b1561128b57600061122a8460020154436119ed565b90506000611257600954610fea8760010154611251600654876123a690919063ffffffff16565b906123a6565b905061128661127f8660050154610fea670de0b6b3a7640000856123a690919063ffffffff16565b849061230a565b925050505b6112b68260010154610ff0670de0b6b3a7640000610fea8587600001546123a690919063ffffffff16565b93505050505b92915050565b6003546001600160a01b031681565b600a5481565b6000600782815481106112e657fe5b9060005260206000209060060201905080600201544311611307575061161f565b6005810154158061131a57506001810154155b1561132b574360029091015561161f565b600061133b8260020154436119ed565b90506000611362600954610fea8560010154611251600654876123a690919063ffffffff16565b9050693f870857a3e0e38000006114026113826064610fea8560696123a6565b600260009054906101000a90046001600160a01b03166001600160a01b03166318160ddd6040518163ffffffff1660e01b815260040160206040518083038186803b1580156113d057600080fd5b505afa1580156113e4573d6000803e3d6000fd5b505050506040513d60208110156113fa57600080fd5b50519061230a565b1161147757600254604080516340c10f1960e01b81523060048201526024810184905290516001600160a01b03909216916340c10f199160448082019260009290919082900301818387803b15801561145a57600080fd5b505af115801561146e573d6000803e3d6000fd5b505050506115e6565b600254604080516318160ddd60e01b81529051693f870857a3e0e3800000926001600160a01b0316916318160ddd916004808301926020929190829003018186803b1580156114c557600080fd5b505afa1580156114d9573d6000803e3d6000fd5b505050506040513d60208110156114ef57600080fd5b505110156115e657600254604080516318160ddd60e01b815290516001600160a01b03909216916340c10f199130916115879185916318160ddd91600480820192602092909190829003018186803b15801561154a57600080fd5b505afa15801561155e573d6000803e3d6000fd5b505050506040513d602081101561157457600080fd5b5051693f870857a3e0e380000090612364565b6040518363ffffffff1660e01b815260040180836001600160a01b0316815260200182815260200192505050600060405180830381600087803b1580156115cd57600080fd5b505af11580156115e1573d6000803e3d6000fd5b505050505b60058301546116109061160590610fea84670de0b6b3a76400006123a6565b60038501549061230a565b60038401555050436002909101555b50565b6002600154141561167a576040805162461bcd60e51b815260206004820152601f60248201527f5265656e7472616e637947756172643a207265656e7472616e742063616c6c00604482015290519081900360640190fd5b600260018190555060006007828154811061169157fe5b600091825260208083208584526008825260408085203386529092529220805460069290920290920160058101549093506116cc9082612364565b60058401556000808355600183015582546116f1906001600160a01b0316338361265f565b604080518281529051859133917fbb757047c2b5f3974fe26b7c10f732e7bce710b0952a71082702781e62ae05959181900360200190a35050600180555050565b60075460005b8181101561175157611749816112d7565b600101611738565b5050565b6004546001600160a01b031633146117a8576040805162461bcd60e51b815260206004820152601160248201527031b0b63632b91034b9903737ba103232bb60791b604482015290519081900360640190fd5b67058d15e176280000600655565b674563918244f4000081565b6117ca612306565b6000546001600160a01b0390811691161461181a576040805162461bcd60e51b81526020600482018190526024820152600080516020612aef833981519152604482015290519081900360640190fd5b600080546040516001600160a01b03909116907f8be0079c531659141344cd1fd0a4f28419497f9722a3daafe3b4186f6b6457e0908390a3600080546001600160a01b0319169055565b60008061187083610dd5565b1561187a5750600d545b8061188660008261230a565b949350505050565b6004546001600160a01b031633146118e1576040805162461bcd60e51b815260206004820152601160248201527031b0b63632b91034b9903737ba103232bb60791b604482015290519081900360640190fd5b670853a0d2313c0000600655565b6118f7612306565b6000546001600160a01b03908116911614611947576040805162461bcd60e51b81526020600482018190526024820152600080516020612aef833981519152604482015290519081900360640190fd5b6001600160a01b03811661198d576040805162461bcd60e51b8152602060048201526008602482015267216e6f6e7a65726f60c01b604482015290519081900360640190fd5b600580546001600160a01b0319166001600160a01b03831690811790915560405133907fd44190acf9d04bdb5d3a1aafff7e6dee8b40b93dfb8c5d3f0eea4b9f4539c3f790600090a350565b600081565b6000546001600160a01b031690565b6000693f870857a3e0e3800000600260009054906101000a90046001600160a01b03166001600160a01b03166318160ddd6040518163ffffffff1660e01b815260040160206040518083038186803b158015611a4857600080fd5b505afa158015611a5c573d6000803e3d6000fd5b505050506040513d6020811015611a7257600080fd5b505110611a81575060006112bc565b611a8b8284612364565b9392505050565b60086020908152600092835260408084209091529082529020805460019091015482565b611abe612306565b6000546001600160a01b03908116911614611b0e576040805162461bcd60e51b81526020600482018190526024820152600080516020612aef833981519152604482015290519081900360640190fd5b600d55565b600d5481565b60065481565b600b6020526000908152604090205460ff1681565b611b3c612306565b6000546001600160a01b03908116911614611b8c576040805162461bcd60e51b81526020600482018190526024820152600080516020612aef833981519152604482015290519081900360640190fd5b6001600160a01b038116611bd2576040805162461bcd60e51b8152602060048201526008602482015267216e6f6e7a65726f60c01b604482015290519081900360640190fd5b600480546001600160a01b0319166001600160a01b03831690811790915560405133907f618c54559e94f1499a808aad71ee8729f8e74e8c48e979616328ce493a1a52e790600090a350565b6002546001600160a01b031681565b60026001541415611c85576040805162461bcd60e51b815260206004820152601f60248201527f5265656e7472616e637947756172643a207265656e7472616e742063616c6c00604482015290519081900360640190fd5b6002600181905550600060078381548110611c9c57fe5b60009182526020808320868452600882526040808520338652909252922060069091029091019150611ccd846112d7565b805415611e14576000611d058260010154610ff0670de0b6b3a7640000610fea876003015487600001546123a690919063ffffffff16565b90506000611d1233611864565b9050600081118015611d245750600082115b15611e01576000611d3b6103e8610fea85856123a6565b604080513381526020810185905280820183905290519192507f67faea3e5084d47509891dc088be511b349ea7ad949853bd5b2093e8b0b7365c919081900360600190a1600254604080516340c10f1960e01b81523060048201526024810184905290516001600160a01b03909216916340c10f199160448082019260009290919082900301818387803b158015611dd257600080fd5b505af1158015611de6573d6000803e3d6000fd5b50505050611dfd818461230a90919063ffffffff16565b9250505b8115611e1157611e113383612441565b50505b8215612028578154604080516370a0823160e01b815230600482015290516000926001600160a01b0316916370a08231916024808301926020929190829003018186803b158015611e6457600080fd5b505afa158015611e78573d6000803e3d6000fd5b505050506040513d6020811015611e8e57600080fd5b50518354909150611eaa906001600160a01b03163330876126b6565b8254604080516370a0823160e01b81523060048201529051611f2c9284926001600160a01b03909116916370a0823191602480820192602092909190829003018186803b158015611efa57600080fd5b505afa158015611f0e573d6000803e3d6000fd5b505050506040513d6020811015611f2457600080fd5b505190612364565b935060008411611f83576040805162461bcd60e51b815260206004820152601c60248201527f776520646f6e7420616363657074206465706f73697473206f66203000000000604482015290519081900360640190fd5b600483015461ffff1615612003576004830154600090611fb09061271090610fea90889061ffff166123a6565b6005548554919250611fcf916001600160a01b0390811691168361265f565b8254611fe1908290610ff0908861230a565b83556005840154611ff8908290610ff0908861230a565b600585015550612026565b815461200f908561230a565b82556005830154612020908561230a565b60058401555b505b6003820154815461204691670de0b6b3a764000091610fea916123a6565b6001820155604080518481529051859133917f90890809c654f11d6e72a28fa60149770a0d11ec6c92319d6ceb2bb0a4ea1a159181900360200190a35050600180555050565b612094612306565b6000546001600160a01b039081169116146120e4576040805162461bcd60e51b81526020600482018190526024820152600080516020612aef833981519152604482015290519081900360640190fd5b6001600160a01b0381166121295760405162461bcd60e51b8152600401808060200182810382526026815260200180612a606026913960400191505060405180910390fd5b600080546040516001600160a01b03808516939216917f8be0079c531659141344cd1fd0a4f28419497f9722a3daafe3b4186f6b6457e091a3600080546001600160a01b0319166001600160a01b0392909216919091179055565b6004546001600160a01b031633146121d7576040805162461bcd60e51b815260206004820152601160248201527031b0b63632b91034b9903737ba103232bb60791b604482015290519081900360640190fd5b6706f05b59d3b20000600655565b6121ed612306565b6000546001600160a01b0390811691161461223d576040805162461bcd60e51b81526020600482018190526024820152600080516020612aef833981519152604482015290519081900360640190fd5b43600a541161228a576040805162461bcd60e51b815260206004820152601460248201527311985c9b48185b1c9958591e481cdd185c9d195960621b604482015290519081900360640190fd5b60075460005b818110156122c6576000600782815481106122a757fe5b6000918252602090912060026006909202010184905550600101612290565b50600a82905560408051838152905133917f3eb4ecd5fe1c1fb419227f1ed2015b7c67d3867f237683c50a2192b6ceabe016919081900360200190a25050565b3390565b600082820183811015611a8b576040805162461bcd60e51b815260206004820152601b60248201527f536166654d6174683a206164646974696f6e206f766572666c6f770000000000604482015290519081900360640190fd5b6000611a8b83836040518060400160405280601e81526020017f536166654d6174683a207375627472616374696f6e206f766572666c6f770000815250612710565b6000826123b5575060006112bc565b828202828482816123c257fe5b0414611a8b5760405162461bcd60e51b8152600401808060200182810382526021815260200180612aa96021913960400191505060405180910390fd5b6000611a8b83836040518060400160405280601a81526020017f536166654d6174683a206469766973696f6e206279207a65726f0000000000008152506127a7565b600254604080516370a0823160e01b815230600482015290516000926001600160a01b0316916370a08231916024808301926020929190829003018186803b15801561248c57600080fd5b505afa1580156124a0573d6000803e3d6000fd5b505050506040513d60208110156124b657600080fd5b50519050600081831115612598576002546040805163a9059cbb60e01b81526001600160a01b038781166004830152602482018690529151919092169163a9059cbb9160448083019260209291908290030181600087803b15801561251a57600080fd5b505af115801561252e573d6000803e3d6000fd5b505050506040513d602081101561254457600080fd5b5051604080516001600160a01b03871681526020810186905280820185905290519192507f1b1a22b20cb19b371e55153b5493ff905a169b64a3488ed6c76f9c3486724c6c919081900360600190a161261d565b6002546040805163a9059cbb60e01b81526001600160a01b038781166004830152602482018790529151919092169163a9059cbb9160448083019260209291908290030181600087803b1580156125ee57600080fd5b505af1158015612602573d6000803e3d6000fd5b505050506040513d602081101561261857600080fd5b505190505b806126595760405162461bcd60e51b8152600401808060200182810382526023815260200180612a866023913960400191505060405180910390fd5b50505050565b604080516001600160a01b038416602482015260448082018490528251808303909101815260649091019091526020810180516001600160e01b031663a9059cbb60e01b1790526126b190849061280c565b505050565b604080516001600160a01b0380861660248301528416604482015260648082018490528251808303909101815260849091019091526020810180516001600160e01b03166323b872dd60e01b17905261265990859061280c565b6000818484111561279f5760405162461bcd60e51b81526004018080602001828103825283818151815260200191508051906020019080838360005b8381101561276457818101518382015260200161274c565b50505050905090810190601f1680156127915780820380516001836020036101000a031916815260200191505b509250505060405180910390fd5b505050900390565b600081836127f65760405162461bcd60e51b815260206004820181815283516024840152835190928392604490910191908501908083836000831561276457818101518382015260200161274c565b50600083858161280257fe5b0495945050505050565b6060612861826040518060400160405280602081526020017f5361666545524332303a206c6f772d6c6576656c2063616c6c206661696c6564815250856001600160a01b03166128bd9092919063ffffffff16565b8051909150156126b15780806020019051602081101561288057600080fd5b50516126b15760405162461bcd60e51b815260040180806020018281038252602a815260200180612b0f602a913960400191505060405180910390fd5b6060611886848460008560606128d285612a34565b612923576040805162461bcd60e51b815260206004820152601d60248201527f416464726573733a2063616c6c20746f206e6f6e2d636f6e7472616374000000604482015290519081900360640190fd5b60006060866001600160a01b031685876040518082805190602001908083835b602083106129625780518252601f199092019160209182019101612943565b6001836020036101000a03801982511681845116808217855250505050505090500191505060006040518083038185875af1925050503d80600081146129c4576040519150601f19603f3d011682016040523d82523d6000602084013e6129c9565b606091505b509150915081156129dd5791506118869050565b8051156129ed5780518082602001fd5b60405162461bcd60e51b815260206004820181815286516024840152865187939192839260440191908501908083836000831561276457818101518382015260200161274c565b3b15159056fe6164643a20696e76616c6964206465706f7369742066656520626173697320706f696e74734f776e61626c653a206e6577206f776e657220697320746865207a65726f20616464726573737361666541706f6c6c6f5472616e736665723a205472616e73666572206661696c6564536166654d6174683a206d756c7469706c69636174696f6e206f766572666c6f777365743a20696e76616c6964206465706f7369742066656520626173697320706f696e74734f776e61626c653a2063616c6c6572206973206e6f7420746865206f776e65725361666545524332303a204552433230206f7065726174696f6e20646964206e6f742073756363656564a2646970667358221220e82d8508a13ce718c4ce315603d4b52c1a3d567827105e186280f7a67f73785164736f6c634300060c0033",
  "immutableReferences": {},
  "source": "// SPDX-License-Identifier: MIT\r\npragma solidity 0.6.12;\r\n\r\nimport \"./libs/ReentrancyGuard.sol\";\r\n\r\nimport \"./libs/Ownable.sol\";\r\n\r\nimport \"./libs/SafeMath.sol\";\r\n\r\nimport \"./libs/SafeERC20.sol\";\r\n\r\nimport \"./ApolloToken.sol\";\r\n\r\nimport \"@openzeppelin/contracts/token/ERC721/IERC721.sol\";\r\n\r\n// MasterChef is the master of Apollo. He can make Apollo and he is a fair guy.\r\n//\r\n// Note that it's ownable and the owner wields tremendous power. The ownership\r\n// will be transferred to a governance smart contract once Apollo is sufficiently\r\n// distributed and the community can show to govern itself.\r\n//\r\n// Have fun reading it. Hopefully it's bug-free. God bless.\r\n// European boys play fair, don't worry.\r\n\r\ncontract MasterChef is Ownable, ReentrancyGuard {\r\n    using SafeMath for uint256;\r\n    using SafeERC20 for IERC20;\r\n\r\n    // Info of each user.\r\n    struct UserInfo {\r\n        uint256 amount;         // How many LP tokens the user has provided.\r\n        uint256 rewardDebt;     // Reward debt. See explanation below.\r\n        //\r\n        // We do some fancy math here. Basically, any point in time, the amount of IRIS\r\n        // entitled to a user but is pending to be distributed is:\r\n        //\r\n        //   pending reward = (user.amount * pool.accApolloPerShare) - user.rewardDebt\r\n        //\r\n        // Whenever a user deposits or withdraws LP tokens to a pool. Here's what happens:\r\n        //   1. The pool's `accApolloPerShare` (and `lastRewardBlock`) gets updated.\r\n        //   2. User receives the pending reward sent to his/her address.\r\n        //   3. User's `amount` gets updated.\r\n        //   4. User's `rewardDebt` gets updated.\r\n    }\r\n\r\n    // Info of each pool.\r\n    struct PoolInfo {\r\n        IERC20 lpToken;           // Address of LP token contract.\r\n        uint256 allocPoint;       // How many allocation points assigned to this pool. IRISes to distribute per block.\r\n        uint256 lastRewardBlock;  // Last block number that IRISes distribution occurs.\r\n        uint256 accApolloPerShare;   // Accumulated IRISes per share, times 1e18. See below.\r\n        uint16 depositFeeBP;      // Deposit fee in basis points\r\n        uint256 lpSupply;\r\n    }\r\n\r\n    // The IRIS TOKEN!\r\n    ApolloToken public apollo;\r\n    IERC721 public nft;\r\n    address public devAddress;\r\n    address public feeAddress;\r\n    uint256 constant max_apollo_supply = 300_000 ether;\r\n\r\n    // IRIS tokens created per block.\r\n    uint256 public apolloPerBlock = 4.1 ether;\r\n\r\n    // Info of each pool.\r\n    PoolInfo[] public poolInfo;\r\n    // Info of each user that stakes LP tokens.\r\n    mapping(uint256 => mapping(address => UserInfo)) public userInfo;\r\n    // Total allocation points. Must be the sum of all allocation points in all pools.\r\n    uint256 public totalAllocPoint = 0;\r\n    // The block number when IRIS mining starts.\r\n    uint256 public startBlock;\r\n\r\n    uint256 public constant MAXIMUM_EMISSION_RATE = 5 ether;\r\n\r\n    event Deposit(address indexed user, uint256 indexed pid, uint256 amount);\r\n    event Withdraw(address indexed user, uint256 indexed pid, uint256 amount);\r\n    event EmergencyWithdraw(address indexed user, uint256 indexed pid, uint256 amount);\r\n    event SetFeeAddress(address indexed user, address indexed newAddress);\r\n    event SetDevAddress(address indexed user, address indexed newAddress);\r\n    event UpdateEmissionRate(address indexed user, uint256 apolloPerBlock);\r\n    event PoolAdd(address indexed user, IERC20 lpToken, uint256 allocPoint, uint256 lastRewardBlock, uint16 depositFeeBP);\r\n    event PoolSet(address indexed user, IERC20 lpToken, uint256 allocPoint, uint256 lastRewardBlock, uint16 depositFeeBP);\r\n    event UpdateStartBlock(address indexed user, uint256 startBlock);\r\n    constructor(\r\n        address _apollo,\r\n        uint256 _startBlock,\r\n        address _devAddress,\r\n        address _feeAddress,\r\n        address _nft\r\n    ) public {\r\n        apollo = ApolloToken(_apollo);\r\n        nft = IERC721(_nft);\r\n        startBlock = _startBlock;\r\n\r\n        devAddress = _devAddress;\r\n        feeAddress = _feeAddress;\r\n        apollo.balanceOf(address(this));\r\n        nft.balanceOf(address(this));\r\n    }\r\n\r\n    function poolLength() external view returns (uint256) {\r\n        return poolInfo.length;\r\n    }\r\n\r\n    mapping(IERC20 => bool) public poolExistence;\r\n    modifier nonDuplicated(IERC20 _lpToken) {\r\n        require(poolExistence[_lpToken] == false, \"nonDuplicated: duplicated\");\r\n        _;\r\n    }\r\n\r\n    // Add a new lp to the pool. Can only be called by the owner.\r\n    function add(uint256 _allocPoint, IERC20 _lpToken, uint16 _depositFeeBP) external onlyOwner nonDuplicated(_lpToken) {\r\n        _lpToken.balanceOf(address(this));\r\n        require(_depositFeeBP <= 500, \"add: invalid deposit fee basis points\");\r\n        _lpToken.balanceOf(address(this));\r\n        uint256 lastRewardBlock = block.number > startBlock ? block.number : startBlock;\r\n        totalAllocPoint = totalAllocPoint.add(_allocPoint);\r\n        poolExistence[_lpToken] = true;\r\n        poolInfo.push(PoolInfo({\r\n        lpToken : _lpToken,\r\n        allocPoint : _allocPoint,\r\n        lastRewardBlock : lastRewardBlock,\r\n        accApolloPerShare : 0,\r\n        depositFeeBP : _depositFeeBP,\r\n        lpSupply : 0\r\n        }));\r\n        emit PoolAdd(msg.sender, _lpToken, _allocPoint, lastRewardBlock, _depositFeeBP);\r\n    }\r\n\r\n    // Update the given pool's IRIS allocation point and deposit fee. Can only be called by the owner.\r\n    function set(uint256 _pid, uint256 _allocPoint, uint16 _depositFeeBP) external onlyOwner {\r\n        require(_depositFeeBP <= 500, \"set: invalid deposit fee basis points\");\r\n        totalAllocPoint = totalAllocPoint.sub(poolInfo[_pid].allocPoint).add(_allocPoint);\r\n        poolInfo[_pid].allocPoint = _allocPoint;\r\n        poolInfo[_pid].depositFeeBP = _depositFeeBP;\r\n        emit PoolSet(msg.sender, poolInfo[_pid].lpToken, _allocPoint, poolInfo[_pid].lastRewardBlock, _depositFeeBP);\r\n    }\r\n\r\n    // Return reward multiplier over the given _from to _to block.\r\n    function getMultiplier(uint256 _from, uint256 _to) public view returns (uint256) {\r\n        if (apollo.totalSupply() >= max_apollo_supply) return 0;\r\n\r\n        return _to.sub(_from);\r\n    }\r\n\r\n    // View function to see pending IRISes on frontend.\r\n    function pendingApollo(uint256 _pid, address _user) external view returns (uint256) {\r\n        PoolInfo storage pool = poolInfo[_pid];\r\n        UserInfo storage user = userInfo[_pid][_user];\r\n        uint256 accApolloPerShare = pool.accApolloPerShare;\r\n        if (block.number > pool.lastRewardBlock && pool.lpSupply != 0 && totalAllocPoint > 0) {\r\n            uint256 multiplier = getMultiplier(pool.lastRewardBlock, block.number);\r\n            uint256 apolloReward = multiplier.mul(apolloPerBlock).mul(pool.allocPoint).div(totalAllocPoint);\r\n            accApolloPerShare = accApolloPerShare.add(apolloReward.mul(1e18).div(pool.lpSupply));\r\n        }\r\n        return user.amount.mul(accApolloPerShare).div(1e18).sub(user.rewardDebt);\r\n    }\r\n\r\n    // Update reward variables for all pools. Be careful of gas spending!\r\n    function massUpdatePools() public {\r\n        uint256 length = poolInfo.length;\r\n        for (uint256 pid = 0; pid < length; ++pid) {\r\n            updatePool(pid);\r\n        }\r\n    }\r\n\r\n    // Update reward variables of the given pool to be up-to-date.\r\n    function updatePool(uint256 _pid) public {\r\n        PoolInfo storage pool = poolInfo[_pid];\r\n        if (block.number <= pool.lastRewardBlock) {\r\n            return;\r\n        }\r\n        if (pool.lpSupply == 0 || pool.allocPoint == 0) {\r\n            pool.lastRewardBlock = block.number;\r\n            return;\r\n        }\r\n        uint256 multiplier = getMultiplier(pool.lastRewardBlock, block.number);\r\n        uint256 apolloReward = multiplier.mul(apolloPerBlock).mul(pool.allocPoint).div(totalAllocPoint);\r\n        if (apollo.totalSupply().add(apolloReward.mul(105).div(100)) <= max_apollo_supply) {\r\n            apollo.mint(address(this), apolloReward);\r\n        } else if (apollo.totalSupply() < max_apollo_supply) {\r\n            apollo.mint(address(this), max_apollo_supply.sub(apollo.totalSupply()));\r\n        }\r\n        pool.accApolloPerShare = pool.accApolloPerShare.add(apolloReward.mul(1e18).div(pool.lpSupply));\r\n        pool.lastRewardBlock = block.number;\r\n    }\r\n\r\n    event Bonus(address to, uint256 multiplier, uint256 bonus);\r\n    // Deposit LP tokens to MasterChef for IRIS allocation.\r\n    function deposit(uint256 _pid, uint256 _amount) nonReentrant external {\r\n        PoolInfo storage pool = poolInfo[_pid];\r\n        UserInfo storage user = userInfo[_pid][msg.sender];\r\n        updatePool(_pid);\r\n        if (user.amount > 0) {\r\n            uint256 pending = user.amount.mul(pool.accApolloPerShare).div(1e18).sub(user.rewardDebt);\r\n\r\n            // add additional % bonus\r\n            uint256 multiplier = calculateBonus(msg.sender);\r\n            if (multiplier > 0 && pending > 0) {\r\n                uint256 bonus = pending.mul(multiplier).div(1000);\r\n                emit Bonus(msg.sender, multiplier, bonus);\r\n                apollo.mint(address(this), bonus);\r\n                pending = pending.add(bonus);\r\n            }\r\n\r\n            if (pending > 0) {\r\n                safeApolloTransfer(msg.sender, pending);\r\n            }\r\n        }\r\n        if (_amount > 0) {\r\n            uint256 balanceBefore = pool.lpToken.balanceOf(address(this));\r\n            pool.lpToken.safeTransferFrom(address(msg.sender), address(this), _amount);\r\n            _amount = pool.lpToken.balanceOf(address(this)).sub(balanceBefore);\r\n            require(_amount > 0, \"we dont accept deposits of 0\");\r\n            if (pool.depositFeeBP > 0) {\r\n                uint256 depositFee = _amount.mul(pool.depositFeeBP).div(10000);\r\n                pool.lpToken.safeTransfer(feeAddress, depositFee);\r\n                user.amount = user.amount.add(_amount).sub(depositFee);\r\n                pool.lpSupply = pool.lpSupply.add(_amount).sub(depositFee);\r\n            } else {\r\n                user.amount = user.amount.add(_amount);\r\n                pool.lpSupply = pool.lpSupply.add(_amount);\r\n            }\r\n        }\r\n        user.rewardDebt = user.amount.mul(pool.accApolloPerShare).div(1e18);\r\n        emit Deposit(msg.sender, _pid, _amount);\r\n    }\r\n\r\n    // Withdraw LP tokens from MasterChef.\r\n    function withdraw(uint256 _pid, uint256 _amount) nonReentrant external {\r\n        PoolInfo storage pool = poolInfo[_pid];\r\n        UserInfo storage user = userInfo[_pid][msg.sender];\r\n        require(user.amount >= _amount, \"withdraw: not good\");\r\n        updatePool(_pid);\r\n        uint256 pending = user.amount.mul(pool.accApolloPerShare).div(1e18).sub(user.rewardDebt);\r\n        if (pending > 0) {\r\n            // add additional % bonus\r\n            uint256 multiplier = calculateBonus(msg.sender);\r\n            if (multiplier > 0 && pending > 0) {\r\n                uint256 bonus = pending.mul(multiplier).div(1000);\r\n                emit Bonus(msg.sender, multiplier, bonus);\r\n                apollo.mint(address(this), bonus);\r\n                pending = pending.add(bonus);\r\n            }\r\n\r\n            safeApolloTransfer(msg.sender, pending);\r\n        }\r\n        if (_amount > 0) {\r\n            user.amount = user.amount.sub(_amount);\r\n            pool.lpToken.safeTransfer(address(msg.sender), _amount);\r\n            pool.lpSupply = pool.lpSupply.sub(_amount);\r\n        }\r\n        user.rewardDebt = user.amount.mul(pool.accApolloPerShare).div(1e18);\r\n        emit Withdraw(msg.sender, _pid, _amount);\r\n    }\r\n\r\n    // Withdraw without caring about rewards. EMERGENCY ONLY.\r\n    function emergencyWithdraw(uint256 _pid) nonReentrant external {\r\n        PoolInfo storage pool = poolInfo[_pid];\r\n        UserInfo storage user = userInfo[_pid][msg.sender];\r\n        uint256 amount = user.amount;\r\n        pool.lpSupply = pool.lpSupply.sub(user.amount);\r\n        user.amount = 0;\r\n        user.rewardDebt = 0;\r\n        pool.lpToken.safeTransfer(address(msg.sender), amount);\r\n        emit EmergencyWithdraw(msg.sender, _pid, amount);\r\n    }\r\n\r\n    event ApolloTransfer(address to, uint256 requested, uint256 amount);\r\n    // Safe apollo transfer function, just in case if rounding error causes pool to not have enough IRIS.\r\n    function safeApolloTransfer(address _to, uint256 _amount) internal {\r\n        uint256 apolloBal = apollo.balanceOf(address(this));\r\n        bool transferSuccess = false;\r\n        if (_amount > apolloBal) {\r\n            transferSuccess = apollo.transfer(_to, apolloBal);\r\n            emit ApolloTransfer(_to, _amount, apolloBal);\r\n        } else {\r\n            transferSuccess = apollo.transfer(_to, _amount);\r\n        }\r\n        require(transferSuccess, \"safeApolloTransfer: Transfer failed\");\r\n    }\r\n\r\n    // Update dev address by the previous dev.\r\n    function setDevAddress(address _devAddress) external onlyOwner {\r\n        require(_devAddress != address(0), \"!nonzero\");\r\n        devAddress = _devAddress;\r\n        emit SetDevAddress(msg.sender, _devAddress);\r\n    }\r\n\r\n    function setFeeAddress(address _feeAddress) external onlyOwner {\r\n        require(_feeAddress != address(0), \"!nonzero\");\r\n        feeAddress = _feeAddress;\r\n        emit SetFeeAddress(msg.sender, _feeAddress);\r\n    }\r\n\r\n    function updateEmissionRate(uint256 _apolloPerBlock) external onlyOwner {\r\n        require(_apolloPerBlock <= MAXIMUM_EMISSION_RATE, \"Too High\");\r\n        massUpdatePools();\r\n        apolloPerBlock = _apolloPerBlock;\r\n        emit UpdateEmissionRate(msg.sender, _apolloPerBlock);\r\n    }\r\n\r\n    // Only update before start of farm\r\n    function updateStartBlock(uint256 _startBlock) onlyOwner external {\r\n        require(startBlock > block.number, \"Farm already started\");\r\n        uint256 length = poolInfo.length;\r\n        for (uint256 pid = 0; pid < length; ++pid) {\r\n            PoolInfo storage pool = poolInfo[pid];\r\n            pool.lastRewardBlock = _startBlock;\r\n        }\r\n        startBlock = _startBlock;\r\n        emit UpdateStartBlock(msg.sender, _startBlock);\r\n    }\r\n\r\n\r\n    uint256 public minNftToBoost = 5;\r\n    uint256 public nftBoost = 50; // 5%\r\n    function setMinNftBoost(uint256 _minNftToBoost) external onlyOwner {\r\n        minNftToBoost = _minNftToBoost;\r\n    }\r\n\r\n    function setNftBoost(uint256 _nftBoost) external onlyOwner {\r\n        nftBoost = _nftBoost;\r\n    }\r\n\r\n    function isNftHolder(address _address) public view returns (bool) {\r\n        return nft.balanceOf(_address) >= minNftToBoost;\r\n    }\r\n\r\n    uint256 public constant BONUS_MULTIPLIER = 0;\r\n\r\n    function calculateBonus(address _user) public view returns (uint256) {\r\n        uint256 _isNftHolder = 0;\r\n        if (isNftHolder(_user)) {\r\n            _isNftHolder = nftBoost;\r\n        }\r\n        uint totalReward = _isNftHolder;\r\n        return BONUS_MULTIPLIER.add(totalReward);\r\n    }\r\n\r\n    modifier onlyOperator() {\r\n        require(devAddress == msg.sender, \"caller is not dev\");\r\n        _;\r\n    }\r\n    function setRewardTo4() external onlyOperator {\r\n        apolloPerBlock = 4 ether;\r\n    }\r\n    function setRewardTo04() external onlyOperator {\r\n        apolloPerBlock = 0.4 ether;\r\n    }\r\n    function setRewardTo05() external onlyOperator {\r\n        apolloPerBlock = 0.5 ether;\r\n    }\r\n    function setRewardTo06() external onlyOperator {\r\n        apolloPerBlock = 0.6 ether;\r\n    }\r\n\r\n}\r\n",
  "sourcePath": "C:\\defi\\bitdeep\\hermesdefi\\masterchef-bank\\contracts\\masterchef.sol",
  "compiler": {
    "name": "solc",
    "version": "0.6.12+commit.27d51765.Emscripten.clang"
  },
  "schemaVersion": "3.4.3",
  "updatedAt": "2021-10-20T23:01:06.540Z",
  "devdoc": {
    "kind": "dev",
    "methods": {
      "owner()": {
        "details": "Returns the address of the current owner."
      },
      "renounceOwnership()": {
        "details": "Leaves the contract without owner. It will not be possible to call `onlyOwner` functions anymore. Can only be called by the current owner. NOTE: Renouncing ownership will leave the contract without an owner, thereby removing any functionality that is only available to the owner."
      },
      "transferOwnership(address)": {
        "details": "Transfers ownership of the contract to a new account (`newOwner`). Can only be called by the current owner."
      }
    },
    "version": 1
  },
  "userdoc": {
    "kind": "user",
    "methods": {},
    "version": 1
  }
}