{
  "contractName": "Referral",
  "abi": [
    {
      "anonymous": false,
      "inputs": [
        {
          "indexed": true,
          "internalType": "address",
          "name": "operator",
          "type": "address"
        },
        {
          "indexed": true,
          "internalType": "bool",
          "name": "status",
          "type": "bool"
        }
      ],
      "name": "OperatorUpdated",
      "type": "event"
    },
    {
      "anonymous": false,
      "inputs": [
        {
          "indexed": true,
          "internalType": "address",
          "name": "previousOwner",
          "type": "address"
        },
        {
          "indexed": true,
          "internalType": "address",
          "name": "newOwner",
          "type": "address"
        }
      ],
      "name": "OwnershipTransferred",
      "type": "event"
    },
    {
      "anonymous": false,
      "inputs": [
        {
          "indexed": true,
          "internalType": "address",
          "name": "user",
          "type": "address"
        },
        {
          "indexed": true,
          "internalType": "address",
          "name": "referrer",
          "type": "address"
        }
      ],
      "name": "ReferralRecorded",
      "type": "event"
    },
    {
      "inputs": [
        {
          "internalType": "address",
          "name": "",
          "type": "address"
        }
      ],
      "name": "operators",
      "outputs": [
        {
          "internalType": "bool",
          "name": "",
          "type": "bool"
        }
      ],
      "stateMutability": "view",
      "type": "function"
    },
    {
      "inputs": [],
      "name": "owner",
      "outputs": [
        {
          "internalType": "address",
          "name": "",
          "type": "address"
        }
      ],
      "stateMutability": "view",
      "type": "function"
    },
    {
      "inputs": [
        {
          "internalType": "address",
          "name": "",
          "type": "address"
        }
      ],
      "name": "referralsCount",
      "outputs": [
        {
          "internalType": "uint256",
          "name": "",
          "type": "uint256"
        }
      ],
      "stateMutability": "view",
      "type": "function"
    },
    {
      "inputs": [
        {
          "internalType": "address",
          "name": "",
          "type": "address"
        }
      ],
      "name": "referrers",
      "outputs": [
        {
          "internalType": "address",
          "name": "",
          "type": "address"
        }
      ],
      "stateMutability": "view",
      "type": "function"
    },
    {
      "inputs": [],
      "name": "renounceOwnership",
      "outputs": [],
      "stateMutability": "nonpayable",
      "type": "function"
    },
    {
      "inputs": [
        {
          "internalType": "address",
          "name": "newOwner",
          "type": "address"
        }
      ],
      "name": "transferOwnership",
      "outputs": [],
      "stateMutability": "nonpayable",
      "type": "function"
    },
    {
      "inputs": [
        {
          "internalType": "address",
          "name": "_user",
          "type": "address"
        },
        {
          "internalType": "address",
          "name": "_referrer",
          "type": "address"
        }
      ],
      "name": "recordReferral",
      "outputs": [],
      "stateMutability": "nonpayable",
      "type": "function"
    },
    {
      "inputs": [
        {
          "internalType": "address",
          "name": "_user",
          "type": "address"
        }
      ],
      "name": "getReferrer",
      "outputs": [
        {
          "internalType": "address",
          "name": "",
          "type": "address"
        }
      ],
      "stateMutability": "view",
      "type": "function"
    },
    {
      "inputs": [
        {
          "internalType": "address",
          "name": "_operator",
          "type": "address"
        },
        {
          "internalType": "bool",
          "name": "_status",
          "type": "bool"
        }
      ],
      "name": "updateOperator",
      "outputs": [],
      "stateMutability": "nonpayable",
      "type": "function"
    }
  ],
  "bytecode": "0x60806040526000805460ff60a01b1916905534801561001d57600080fd5b506000610028610077565b600080546001600160a01b0319166001600160a01b0383169081178255604051929350917f8be0079c531659141344cd1fd0a4f28419497f9722a3daafe3b4186f6b6457e0908290a35061007b565b3390565b6107068061008a6000396000f3fe608060405234801561001057600080fd5b50600436106100935760003560e01c80636b366c66116100665780636b366c661461016a5780636d44a3b2146101a2578063715018a6146101d05780638da5cb5b146101d8578063f2fde38b146101e057610093565b80630c7f7b6b1461009857806313e7c9d8146100c85780634a3b68cc146101025780634a9fefc714610144575b600080fd5b6100c6600480360360408110156100ae57600080fd5b506001600160a01b0381358116916020013516610206565b005b6100ee600480360360208110156100de57600080fd5b50356001600160a01b0316610327565b604080519115158252519081900360200190f35b6101286004803603602081101561011857600080fd5b50356001600160a01b031661033c565b604080516001600160a01b039092168252519081900360200190f35b6101286004803603602081101561015a57600080fd5b50356001600160a01b0316610357565b6101906004803603602081101561018057600080fd5b50356001600160a01b0316610375565b60408051918252519081900360200190f35b6100c6600480360360408110156101b857600080fd5b506001600160a01b0381351690602001351515610387565b6100c66104b5565b610128610569565b6100c6600480360360208110156101f657600080fd5b50356001600160a01b0316610578565b3360009081526001602052604090205460ff166102545760405162461bcd60e51b81526004018080602001828103825260248152602001806106ad6024913960400191505060405180910390fd5b6001600160a01b0382161580159061027457506001600160a01b03811615155b80156102925750806001600160a01b0316826001600160a01b031614155b80156102b657506001600160a01b0382811660009081526002602052604090205416155b15610323576001600160a01b03828116600081815260026020908152604080832080546001600160a01b0319169587169586179055848352600390915280822080546001019055517ff61ccbe316daff56654abed758191f9a4dcac526d43747a50a2d545c0ca64d829190a35b5050565b60016020526000908152604090205460ff1681565b6002602052600090815260409020546001600160a01b031681565b6001600160a01b039081166000908152600260205260409020541690565b60036020526000908152604090205481565b61038f610682565b6000546001600160a01b039081169116146103f1576040805162461bcd60e51b815260206004820181905260248201527f4f776e61626c653a2063616c6c6572206973206e6f7420746865206f776e6572604482015290519081900360640190fd5b600054600160a01b900460ff1615610450576040805162461bcd60e51b815260206004820152601c60248201527f4f70657261746f722063616e2062652075706461746564206f6e636500000000604482015290519081900360640190fd5b6000805460ff60a01b1916600160a01b1781556001600160a01b03831680825260016020526040808320805485151560ff199091168117909155905190927f966c160e1c4dbc7df8d69af4ace01e9297c3cf016397b7914971f2fbfa32672d91a35050565b6104bd610682565b6000546001600160a01b0390811691161461051f576040805162461bcd60e51b815260206004820181905260248201527f4f776e61626c653a2063616c6c6572206973206e6f7420746865206f776e6572604482015290519081900360640190fd5b600080546040516001600160a01b03909116907f8be0079c531659141344cd1fd0a4f28419497f9722a3daafe3b4186f6b6457e0908390a3600080546001600160a01b0319169055565b6000546001600160a01b031690565b610580610682565b6000546001600160a01b039081169116146105e2576040805162461bcd60e51b815260206004820181905260248201527f4f776e61626c653a2063616c6c6572206973206e6f7420746865206f776e6572604482015290519081900360640190fd5b6001600160a01b0381166106275760405162461bcd60e51b81526004018080602001828103825260268152602001806106876026913960400191505060405180910390fd5b600080546040516001600160a01b03808516939216917f8be0079c531659141344cd1fd0a4f28419497f9722a3daafe3b4186f6b6457e091a3600080546001600160a01b0319166001600160a01b0392909216919091179055565b339056fe4f776e61626c653a206e6577206f776e657220697320746865207a65726f20616464726573734f70657261746f723a2063616c6c6572206973206e6f7420746865206f70657261746f72a2646970667358221220939799a08f1850e5dc55aa28cf82f7276924597d94e50a648be0ae1fa537064364736f6c634300060c0033",
  "immutableReferences": {},
  "source": "// SPDX-License-Identifier: MIT\r\n\r\npragma solidity 0.6.12;\r\n\r\nimport \"./libs/Ownable.sol\";\r\n\r\nimport \"./libs/SafeMath.sol\";\r\n\r\nimport \"./libs/Address.sol\";\r\n\r\nimport \"./libs/IERC20.sol\";\r\n\r\nimport \"./libs/SafeERC20.sol\";\r\n\r\nimport \"./libs/IReferral.sol\";\r\n\r\ncontract Referral is IReferral, Ownable {\r\n    using SafeERC20 for IERC20;\r\n\r\n    bool isOperatorUpdated = false;\r\n\r\n    mapping(address => bool) public operators;\r\n    mapping(address => address) public referrers; // user address => referrer address\r\n    mapping(address => uint256) public referralsCount; // referrer address => referrals count\r\n\r\n    event ReferralRecorded(address indexed user, address indexed referrer);\r\n    event OperatorUpdated(address indexed operator, bool indexed status);\r\n\r\n    modifier onlyOperator {\r\n        require(operators[msg.sender], \"Operator: caller is not the operator\");\r\n        _;\r\n    }\r\n\r\n    function recordReferral(address _user, address _referrer) override onlyOperator external {\r\n        if (_user != address(0)\r\n            && _referrer != address(0)\r\n            && _user != _referrer\r\n            && referrers[_user] == address(0)\r\n        ) {\r\n            referrers[_user] = _referrer;\r\n            referralsCount[_referrer] += 1;\r\n            emit ReferralRecorded(_user, _referrer);\r\n        }\r\n    }\r\n\r\n    // Get the referrer address that referred the user\r\n    function getReferrer(address _user) public override view returns (address) {\r\n        return referrers[_user];\r\n    }\r\n\r\n    // Update the status of the operator\r\n    function updateOperator(address _operator, bool _status) external onlyOwner {\r\n\trequire(isOperatorUpdated == false, \"Operator can be updated once\");\r\n\tisOperatorUpdated = true;\r\n        operators[_operator] = _status;\r\n        emit OperatorUpdated(_operator, _status);\r\n    }\r\n}",
  "sourcePath": "C:\\defi\\bitdeep\\hermesdefi\\contracts\\contracts\\referral.sol",
  "compiler": {
    "name": "solc",
    "version": "0.6.12+commit.27d51765.Emscripten.clang"
  },
  "schemaVersion": "3.4.2",
  "updatedAt": "2021-10-13T00:36:24.576Z",
  "devdoc": {
    "kind": "dev",
    "methods": {
      "owner()": {
        "details": "Returns the address of the current owner."
      },
      "renounceOwnership()": {
        "details": "Leaves the contract without owner. It will not be possible to call `onlyOwner` functions anymore. Can only be called by the current owner. NOTE: Renouncing ownership will leave the contract without an owner, thereby removing any functionality that is only available to the owner."
      },
      "transferOwnership(address)": {
        "details": "Transfers ownership of the contract to a new account (`newOwner`). Can only be called by the current owner."
      }
    },
    "version": 1
  },
  "userdoc": {
    "kind": "user",
    "methods": {},
    "version": 1
  }
}